:020000040800F2
:10000000C822022089020008316700081166000832
:100010002D6700087D3F00086BA700080000000066
:10002000000000000000000000000000C9010008FE
:10003000815800080000000025020008958600088D
:10004000DFA70008A3020008A3020008A30200081B
:10005000A3020008A3020008F55E00082B5F000859
:10006000435F00085B5F0008775F0008A302000899
:10007000A3020008A3020008A3020008A3020008CC
:10008000A3020008A3020008A302000841410008DF
:10009000813F0008A3020008A30200088F5F000848
:1000A0003187000835870008A3020008338700085D
:1000B00059870008798700089D870008A302000877
:1000C000A3020008A3020008A3020008A30200087C
:1000D000A3020008618E0008DD8E0008898F0008E9
:1000E0000D5F0008A3020008A3020008458800086D
:1000F0004988000847880008A302000889550008BD
:10010000A3020008616C0008C1870008A302000870
:10011000CD8C0008318D0008F18700082188000887
:10012000A3020008A3020008A3020008A30200081B
:10013000A3020008A3020008A302000891420008DD
:100140005D410008A3020008A3020008C16700087F
:10015000A3020008A3020008A302000805900008FB
:10016000A3020008A3020008A3020008A3020008DB
:10017000A3020008A3020008A30200080000000078
:10018000A3020008A3020008918D0008098E000850
:10019000A3020008A3020008A3020008A3020008AB
:1001A0000000000000000000A3020008DFF80CD0EF
:1001B00001F0F0F90048004765320108C82202202A
:1001C00072B6704762B670472C4B19680868B0E881
:1001D000F04F80F30988BFF36F8F4FF0000080F37A
:1001E000118870470000000008480068006880F32C
:1001F00008884FF0000080F3148862B661B6BFF340
:100200004F8FBFF36F8F00DF00BF00BF08ED00E02E
:10021000DFF80C00016841F470010160704700BF15
:1002200088ED00E0EFF30980BFF36F8F134B1A687E
:100230001EF0100F08BF20ED108A20E9F04F10606B
:1002400009B44FF0010080F31188BFF34F8FBFF363
:100250006F8F19F0A5FF4FF0000080F3118809BCE3
:1002600019680868B0E8F04F1EF0100F08BFB0EC36
:10027000108A80F30988BFF36F8F704714B4002091
:10028000EFF30580704700000648804706480047A6
:10029000FEE7FEE7FEE7FEE7FEE7FEE7FEE7FEE736
:1002A000FEE7FEE7C9860008AD0100089FED1A1AB7
:1002B000F5EE000A40EE010ABDEEE00AF5EEC00AD6
:1002C00010EE100AF1EE10FA38BF401E00EE100AD0
:1002D0001349F7EE001AB8EEC00A30EEC00ADFED9F
:1002E0000F0A20EE200AFCEEC00A10EE900AC0F3BE
:1002F000080000EE900A01EB8000F8EE600A90ED35
:10030000011A70EE600A90ED000A71EEE01A21EE1B
:10031000800A00EE810A704783F9223E0000004403
:1003200088C70108DFED1D0AB5EEC00A60EE200A9D
:10033000BDEEE01A11EE100AF1EE10FA38BF401EC1
:1003400000EE100AB8EEC00A30EEC00ADFED140A63
:1003500020EE200AB4EEE00AF1EE10FAA8BF30EE6B
:10036000600AFCEEC00A0F49F7EE001A10EE900A80
:10037000C0F3080000EE900A01EB8000F8EE600A7E
:1003800090ED011A70EE600A90ED000A71EEE01A2D
:1003900021EE800A00EE810A7047000083F9223EB8
:1003A0000000004488C70108018042804360704714
:1003B0002DE9F04F82B0466853680193058847885D
:1003C0004B88002000900888874201BFB2F800C027
:1003D0006545528893421EBF6FF0020002B0BDE82F
:1003E000F08F9FED412A4FEA970EC7F3400B00BFF5
:1003F000DDE9000202EB800A4A6898464FF00009E6
:10040000B0EE420AB4465FEA0E0025D092ED001A23
:10041000DCED001A02EB8302DCED010A01EE810A39
:1004200092ED001A02EB8302401ED2ED001A02EB9D
:10043000830200EE810A9CED021ADCED030A00043F
:100440000CF1100C000C01EE210A92ED001A02EBE7
:10045000830200EE810AD9D117F0030026D0ACF157
:100460000404A2EB830210F0010F08D002EB830218
:10047000D4ED010A92ED001A241D00EE810A5FEA14
:100480000B0013D002EB830CD4ED010A9CED001A93
:1004900002EBC302401E00EE810AD4ED020A92ED87
:1004A000001A04F1080400EE810AEBD109F1010001
:1004B000AAEC010A1FFA80F9486800EB8902A8F14A
:1004C00001001FFA80F8B8F1000F99D1009806EBEF
:1004D0008706184480B20090681E05042D0C87D151
:1004E00002B00020BDE8F08F000000002DE9F04FC1
:1004F00002884768B0F802804888D1F8049082B03A
:100500004FF0000A1646824207BF098888456FF0FF
:10051000020002B018BFBDE8F08F4FEA980B02EB63
:1005200042000190C8F34000CDF8000009EB8A01B9
:10053000BBF1000F33D0019801EB820C01EB80047A
:100540003B46E64601EBC2054FEA0B0093ED000A7D
:10055000401E81ED000A93ED010A01EB02118CEDC2
:10056000000A93ED020A0CEB021C85ED000A93EDE4
:10057000030A05EB021584ED000A04EB021403F1F3
:100580001003E3D10EEB820000EB820000EB82014E
:10059000ABF10100504307EB0B1701EB001118F012
:1005A000030C21D03B1FA1EB82011CF0010F06D0F0
:1005B00093ED010A01EB82011B1D81ED000A0098F9
:1005C00080B100BF93ED010A01EB820401EBC2018F
:1005D00084ED000A93ED020A401E81ED000A03F14A
:1005E0000803EFD107EB8C070AF101001FFA80FA2C
:1005F000701E0604360C99D102B00020BDE8F08FC1
:100600008A0817D0B2F1004F31D2002AC4BF034686
:1006100094460FDDF0EE400AC3ED000AC3ED010A77
:10062000C3ED020AC3ED030A1033BCF1010CF1D192
:1006300000EB021011F0030108BF7047B1F1004F49
:1006400023D20029D8BF7047021F11F0010F1CBF31
:1006500082ED010A121D480808BF704782ED010AA9
:1006600082ED020A401E02F10802F7D17047F0EE57
:10067000400AC0ED000AC0ED010AC0ED020AC0ED5B
:10068000030A1030521EF2D1D4E7A0EC010A491E31
:10069000FBD170472DE9F0410024061B254671F17E
:1006A000000605DA01240027D0EB070067EB010103
:1006B000161E73F1000605DA0027D2EB07020125AA
:1006C00067EB030300F0C0FC86460E4617469C46C7
:1006D000AC4204D00025D0EB050E65EB010624B139
:1006E0000020D2EB000760EB030C704631463A461F
:1006F0006346BDE8F08100000649074A0868504398
:1007000043F239021044086040087047014908600C
:1007100070470000C0B400206D4EC64140EA01039E
:100720009B0703D009E008C9121F08C0042AFAD2A7
:1007300003E011F8013B00F8013B521EF9D270476B
:10074000D2B201E000F8012B491EFBD27047002213
:10075000F6E710B513460A4604461946FFF7F0FFC0
:10076000204610BD421E12F8013F002BFBD111F8AC
:10077000013B02F8013B002BF9D17047034611F809
:10078000012B00F8012B002AF9D1184670472DE9FA
:10079000F0410546002090460E46044600E0641CE9
:1007A00044450BD2285D00F0B1FC0746305D00F0F7
:1007B000ADFC381A02D1295D0029F0D1BDE8F081E5
:1007C0000FB400B58DB010A909900B9000914FF0B7
:1007D000FF300A9000200C900548069005480790CD
:1007E0006A4609A80F9900F0EFFD0DB05DF814FB03
:1007F000E5130008031400082DE9FF5FD2E901A703
:100800004FF00008916999461446DDF838B0464625
:1008100001988847054659EA0B0005D009E0A1690F
:10082000761C019888470546216A28468847002893
:10083000F5D1681C03D05FEACA7005D015E04FF00F
:10084000FF3004B0BDE8F09F2068011D2160D0F8A2
:1008500000800AE05FEACA7001D108F8015BA16973
:10086000761C7F1E019888470546002F1ADD681CFC
:1008700018D0B9F1000F0DD0E81705EBD060421188
:1008800020F01F0059F822102A1A0120904001423E
:10089000E0D107E0BBF1000FDCD1216A2846884790
:1008A0000028D7D0E16901988847BBF1000F07D134
:1008B000002E05DD5FEACA7002D1002188F8001021
:1008C000A068B84203DDBBF1000F03D017B16FF091
:1008D0000100B6E73046B4E72DE9FF4F087881B054
:1008E0009946FF2805D0491C2D2804D00024002358
:1008F00008E000230BE00124F9E703EB830300EB9E
:100900004303491C0878FF28F7D104B15B4200205B
:100910000090147801462D2C01D02B2C04D1521CB0
:100920002D2C12D00024009400251678FF2E0ED016
:100930000A24A0FB04C801FB0481002700FB071167
:10094000521C16EB0C006941EFE70124EBE79944D8
:1009500050EA01020ED00024AA4D2646DFF8A882F4
:1009600000F0F4FD82468B46B9F1000009DAC9F1C6
:1009700000071BE001980021C0E9001105B0BDE8A7
:10098000F08F074612E0F80707D022462B46304684
:10099000414600F0E4F90646884622462B461046BA
:1009A000194600F0DCF904460D467F10002FEAD10D
:1009B000B9F1000F324643465046594602DA00F07C
:1009C00040FA01E000F0CBF9009A0AB181F0004151
:1009D000019AC2E90001D1E72DE9FF4F1F468DB012
:1009E000D7E901464FF0FF382E2045464FF0000969
:1009F0000B90B9696D1C0E988847396A8246884702
:100A00000028F6D1BAF1FF3F0AD024F4D064002EBA
:100A100011DDBAF12B0F08D0BAF12D0F0BD102E086
:100A2000404611B0ABE744F48064B9696D1C0E9880
:100A300088478246761E6946600501D52D2000E074
:100A40002B208DF8000001F1010B0DF1200809E0C9
:100A5000B9696D1C0E98884782460F9844F400745B
:100A6000761E0560002E02DDBAF1300FF0D00B9932
:100A70008A453ED144F0800406E00F99681CA9F134
:100A8000010944F400740860B9696D1C761E0E9863
:100A9000884782463028F0D02BE00B998A4505D153
:100AA000200603D444F08004761E18E050460BF074
:100AB00031F808B30DF11301761E44F400748B4530
:100AC00008D2AAF130000BF8010B200607D5A9F1D6
:100AD000010003E0200602D409F101008146A005CF
:100AE00002D50F99681C0860B9696D1C0E9888477B
:100AF0008246002ED1DC53E0002E51DDBAF1650FA5
:100B000002D0BAF1450F4BD1A00549D5B9696D1C8A
:100B100024F44074761E0E9888478246002E0CDD21
:100B20002B2804D0BAF12D0F07D144F48074B96991
:100B30006D1C0E9888478246761EE00501D52D2152
:100B400000E02B2108F8011BCDF82C8021E00DF1ED
:100B50002901761E44F4007488450CD2AAF13000B5
:100B600010F0FF0088F8000002D10B99884509D9E0
:100B700008F1010806E0E00501D5244801E042F251
:100B80000F708146B9696D1C0E98884782460F9890
:100B90000560002E04DD50460AF0BCFF0028D6D1C7
:100BA000F9690E988847FF208BF8000088F800004C
:100BB0000020069007904B466A4608A906A8FFF752
:100BC0008BFEA00502D46FF001002AE714F0240F79
:100BD0000AD0E00714D1DDE906123868031D3B6036
:100BE0000068C0E900120BE0DDE9060100F0FAF947
:100BF0000146E00704D13868021D3A6000680160D0
:100C000028460EE7000024400000F03FF1D8FFFF27
:100C10002DE9FE4F804681EA0300C00F0C4600908C
:100C200021F0004123F00045B8EB0200A94105D2B4
:100C30004046214690461C460B46024623F00040A3
:100C4000104347D0270DC7F30A00C3F30A5102909F
:100C5000401A019040286BDAC3F3130040F4801B64
:100C60000098924620B10023D2EB030A63EB0B0BF2
:100C700001985946C0F14002504600F016FA064667
:100C80000D4650465946019A00F02EFA10EB080026
:100C90006141002487EA115284EAE7731A4340D085
:100CA000009A62B3019A012A4FEA075215DC001B31
:100CB00061EB02014FF0004202EA0752CDE9004227
:100CC000001C41F5801132462B4600F0F1FB03B0C9
:100CD000BDE8F08F40462146F9E7001B61EB0201B9
:100CE000001C41F5801300185B412018A2F5001785
:100CF00047EB030140EAD570B6196D4111E06D086C
:100D00004FEA360645EAC0754FEA0752001B61EB11
:100D10000201001C41F5801149084FEA300000191A
:100D2000514132462B4603B0BDE8F04F00F0B1BB55
:100D30000098012240000023D0EB020263EBE07335
:100D4000009821464FEAE074B8EB000061EB040123
:100D5000E9E783F000435BE781F0004158E72DE9C4
:100D6000FE4F81EA030404F0004421F000410094A6
:100D70004FF0000B23F0004350EA01045ED052EA2A
:100D800003045BD0C3F30A54C1F30A552C44A4F204
:100D9000F3340194A0FB0254C1F3130141F4801118
:100DA000C3F3130343F4801301FB024400FB034E1F
:100DB000840A970A44EA815447EA8357A4FB0768E8
:100DC00002958D0A05FB07854FEA932C04FB0C5412
:100DD0002705029D4FEA065847EA1637B5EB080586
:100DE0006EEB070C870E920E47EA811742EA8312D8
:100DF000A7FB0201B6EB0B0164EB00042B0D43EAE9
:100E00000C335E1844EB1C50DA465146E7FB0201F6
:100E1000C5F313044FEA0B3343EA14534FEA043289
:100E2000019C43EA0603A4F10C040294009CCDE962
:100E300000B400F03DFB03B0BDE8F08F0020014698
:100E4000F9E72DE9F04D81EA030404F0004B21F0AD
:100E5000004514464FF0000A23F0004150EA050215
:100E600020D054EA01021DD0C5F30A570246C5F34B
:100E70001303C1F31300C1F30A5640F4801543F481
:100E80008013A7EB0608101BD64608F2FD3873EB5B
:100E9000050002D308F1010801E092185B41B8F1A6
:100EA000000F03DA00200146BDE8F08D00204FF46A
:100EB0008011064684460EE0171B73EB050705D329
:100EC000121B63EB050306434CEA010C49084FEA89
:100ED000300092185B4150EA0107EDD152EA03005D
:100EE00012D082EA040083EA0501084305D0101BF2
:100EF000AB4106D20122002306E000224FF000435E
:100F000002E06FF0010253101AEB06004CEB08519F
:100F100010EB0A0041EB0B01BDE8F04D00F0B9BA4F
:100F20000EB5C10F80EAE0700844CA07002140F204
:100F300033438DE80E000A460B4600F0B9FA03B0C1
:100F400000BD0EB540F2334102910021CDE9001100
:100F50000A460B4600F0ACFA03B000BD00F00042B8
:100F600030F000400AD0C10D01F56071C0F31600E9
:100F700042EA0151C2084007114370470020014670
:100F80007047000030B5041E71F1000404DB4FF01F
:100F90000044404264EB0101141E73F1000405DBC0
:100FA0001C464FF00043524263EB04038B4208BFE0
:100FB000824230BD30B5041E71F1000404DB4FF0F5
:100FC0000044404264EB0101141E73F1000405DB90
:100FD0001C464FF00043524263EB0403994208BFA2
:100FE000904230BD01F0004330B421F0004150EA9E
:100FF000010206D00A0DA2F56072C1F31301002AA6
:1010000002DC30BC00207047440F44EAC104C10038
:10101000E01830BC00EBC25000F004BA30B50B460B
:10102000014600202022012409E021FA02F59D4218
:1010300005D303FA02F5491B04FA02F52844151EEC
:10104000A2F10102F1DC30BD2DE9F05F0546002080
:1010500092469B4688460646814640241BE0284629
:1010600041464746224600F02FF853465A46C01ADA
:10107000914110D311461846224600F016F82D1A59
:1010800067EB01084F4622460120002100F00DF8D1
:1010900017EB00094E41201EA4F10104DFDC484695
:1010A00031462A464346BDE8F09F202A04DB203A19
:1010B00000FA02F1002070479140C2F1200320FAAB
:1010C00003F3194390407047202A04DB203A21FAA9
:1010D00002F00021704721FA02F3D040C2F1200251
:1010E0009140084319467047202A06DBCB17203A67
:1010F00041FA02F043EAE07306E041FA02F3D0401D
:10110000C2F120029140084319467047A0F1410105
:10111000192900D8203070472DE9FF4F1C4681B0B7
:101120000021D4E9016791464FF0FF358A46884691
:10113000A1696D1C02988847216A83468847002868
:10114000F6D1BBF1FF3F0CD026F4C066002F1ADDAC
:10115000700615D5BBF12B0F0AD0BBF12D0F0FD1A7
:1011600004E04FF0FF3005B0BDE8F08F46F4806634
:10117000A1696D1C029888477F1E8346002F02DDFF
:10118000BBF1300F03D0B9F1000F2AD025E0A169DF
:101190006D1C46F400767F1E029888478346002F18
:1011A00005DDBBF1780F06D0BBF1580F03D0B9F1C4
:1011B000000F10D011E0B9F1000F02D0B9F1100FFB
:1011C0000BD1A1696D1C26F400767F1E029888471A
:1011D0008346102000E0082081464FEAE970009025
:1011E00017E00A20F8E74346AAFB092803FB098019
:1011F000DDF800C07F1E0AFB0C0112EB0B0A41EB6D
:10120000EB78A16946F4007605F10105029888475C
:101210008346002F06DD4946584600F0D2F95FEAC2
:10122000000BE0D5E16902988847B00502D46FF061
:10123000010098E7F00718D1700610D570055146E7
:1012400005D50023D1EB030163EB080200E0424621
:101250002068031D23600068C0E9001205E02068D3
:10126000011D21600068C0E900A828467BE72DE940
:10127000FF5F1D464FF0FF3BD5E9014691465F46B3
:101280004FF00008A9697F1C01988847296A8246A7
:1012900088470028F6D1BAF1FF3F0CD024F4C0648F
:1012A000002E19DD600614D5BAF12B0F09D0BAF162
:1012B0002D0F0ED103E0584604B0BDE8F09F44F472
:1012C0008064A9697F1C01988847761E8246002E9B
:1012D00002DDBAF1300F03D0B9F1000F26D032E0B1
:1012E000A969761E44F400747F1C019888478246E1
:1012F000002E05DDBAF1780F06D0BAF1580F03D0F1
:10130000B9F1000F10D01EE0B9F1000F02D0B9F111
:10131000100F18D1A969761E24F400747F1C01985F
:1013200088478246102002E0082000E00A2081461B
:1013300009E008FB0908A969761E44F400747F1CC3
:10134000019888478246002E05DD4946504600F048
:1013500038F90028EDDAE96901988847A00502D438
:101360006FF00100A8E7E00725D1600613D56005FE
:1013700002D5C8F1000000E0404629680A1D2A6035
:101380000968220501D5087015E0220701D50880FB
:1013900011E008600FE02868011D29600068210540
:1013A00002D580F8008006E0210702D5A0F8008071
:1013B00001E0C0F8008038467EE700000268114472
:1013C0001378016018467047D1600449516104499F
:1013D000116200211161114600F002B9BD1300082D
:1013E000B9150008426842B1016811F8013B23B108
:1013F000521EC0E90012184670470121C160881EC4
:10140000704742685AB1C368016843B983688B4228
:1014100005D0491E521CC0E90012002070474FF051
:10142000FF3070470029A8BF7047401C490008BF23
:1014300020F00100704710B4B0FA80FC00FA0CF004
:1014400050EA010404BF10BC704749B1CCF120043C
:1014500021FA04F411FA0CF118BF012121430843C9
:10146000A3EB0C01CB1D4FEA00614FEA102042BFF5
:10147000002010BC704700EBC35010440029A4BFEB
:1014800010BC7047401C490008BF20F0010010BC90
:10149000704710B5141E73F1000408DA401C41F1C6
:1014A000000192185B411A4301D120F0010010BDE8
:1014B0002DE9F04D92469B4611B1B1FA81F202E05E
:1014C000B0FA80F220329046FFF7EFFD04460F4657
:1014D00040EA0A0041EA0B0153465A46084313D03A
:1014E000114653EA010019D0C8F140025046FFF7F7
:1014F000EBFD05460E46504659464246FFF7D5FDE0
:10150000084305D0012004E020463946BDE8F08DAF
:101510000020054346EAE0762C4337430A986305EA
:10152000E40AA0EB08000022FD0A44EA47540A300E
:1015300002D500200146E9E7010510196941DDE9FE
:10154000084500196941BDE8F04DA2E70EB540F22B
:10155000334202920022CDE900221346FFF7A8FF92
:1015600003B000BDC1F30A52C1F3130140F2FF33CF
:1015700041F480119A4202DA00200146704740F29D
:1015800033439A42A2F2334202DC5242FFF79CBD3F
:10159000FFF78BBD064C074D06E0E06840F0010305
:1015A00094E8070098471034AC42F6D3FEF702FEE9
:1015B00000DC010820DC0108C0B24FF4F05100F05B
:1015C000C5B93A2800D2303820F02002412A01D390
:1015D000A2F13700884201D34FF0FF30704700007E
:1015E0002DE9F34F8BB04FF0000801F10C000C46D1
:1015F0004FF0010B46460DF1080A01906269012186
:1016000001989047051E2DD0252D2CD0216A8847A2
:10161000C0B16269012101989047216A884700287A
:10162000F7D1411E62690198904700E0761CA169DC
:101630000B988847216A88470028F7D1E1690B9801
:101640008847DBE7A1690B9888470746A84201D184
:10165000761CD3E7E1690B9888477F1C02D1B8F16B
:10166000000F6FD046E1002762693D463946019878
:1016700090472A2804D162690121019890470125E9
:10168000DFF884926269012101989047A0F130014E
:101690000A290AD24F45E5DC07EB870100EB410739
:1016A000303FDFD445F01005ECE7E90601D46FF0D8
:1016B00000476C280AD04C2814D0682815D06A2816
:1016C0000DD074281CD07A281AD01DE0626901213F
:1016D000019890476C2802D045F0040514E045F0CD
:1016E00002050DE045F020050AE06269012101983C
:1016F0009047682802D045F0080505E045F40065EC
:101700006269012101989047C4E9015765283DD0DD
:1017100019DC58287AD00CDC452837D004DC252881
:1017200026D0412831D131E046282FD047282CD16E
:101730002CE05B2877D0612828D063287CD06428EF
:1017400023D15AE0D0E06F2848D008DC66281DD0AD
:1017500067281BD0692821D06E2816D127E0702871
:1017600045D0732868D0752847D078280DD14DE032
:10177000A1690B988847054625283FF469AFE169C0
:101780000B9888476D1C3FF46AAFB3E023466A4666
:101790006FF001000B99FFF71FF99EE045F0400044
:1017A0006060A80723464FF0000236D43EE0E80709
:1017B0007FF447AF2068011D21600068290501D52D
:1017C00006701BE7290701D5068017E7A90703D58F
:1017D000F117C0E9006111E706600FE745F040002E
:1017E0006060A80723464FF0080216D41EE040F6BA
:1017F0000E0125EA0100606016E045F040006060DF
:10180000A80723464FF00A0207D40FE045F0400036
:101810006060A80708D5234610226FF001000B99DD
:10182000FFF77AFC59E007E0234610226FF0010031
:101830000B99FFF71CFD50E04FF000094F464B4657
:10184000632802D05B2806D040E0E80601D40120DE
:10185000A06001273AE062690121019890475E2863
:1018600005D14FF001096269494601989047216905
:1018700039B900210A46534643F82120491C08295A
:10188000FADBB0B3216969B9C11700EBD16253111A
:101890000AEB830122F01F02821A01200B6890409C
:1018A00003430B6062690121019890475D28E8D1EC
:1018B000B9F1000F09D00020514651F82020D24341
:1018C00041F82020401C0828F7DB02AB2246009795
:1018D0006FF001000B99FEF78FFF00280CDA401C17
:1018E00008D1BBF1000F05D04FF0FF300DB0BDE8BF
:1018F000F08FFFE74046F9E7E90701D108F1010859
:1019000006444FF0000B79E6CCCCCC0C70B5C1F39B
:101910000A5201F000450024C1F3130140F2FF33E5
:1019200041F480119A4201DA002070BD40F2334345
:101930009A42A2F2334203DC5242FFF7C5FB00E0B9
:1019400090402C43F1D0404270BD00007F2801D967
:10195000002208E0064A02EB5002C007127800D1CC
:10196000120902F00F020120904008407047000069
:1019700068D1010870B58C1810F8015B15F00703E9
:1019800001D110F8013B2A1106D110F8012B03E018
:1019900010F8016B01F8016B5B1EF9D12B0705D420
:1019A0000023521E0DD401F8013BFAE710F8013B69
:1019B000CB1A921C03E013F8015B01F8015B521E85
:1019C000F9D5A142D8D3002070BD21B1826842F080
:1019D0000102826003E0826822F0010282607047A7
:1019E0000021084A1168084A1140D0E900231A432F
:1019F00083681A43C3681A431143044AC2F80413A4
:101A00007047000004230140E030FCFF002001404B
:101A100021B1826842F48072826003E0826822F41D
:101A200080728260704721B1826842F400728260E5
:101A300003E0826822F400728260704730B502468B
:101A4000002000235068104C20400D790C6844EAB7
:101A500005242043506090680C4C2040D1E9035489
:101A60002C438D682C434D7944EA45042043906013
:101A7000D06A20F470000C7D641EE4B2234340EA77
:101A80000350D06230BD0000FFFEFFFCFDF7FFC039
:101A9000F0B504460D4600200021092D11DDE06857
:101AA000A5F10A0606EB4607072606FA07F1884362
:101AB000A5F10A0606EB460603FA06F10843E060C4
:101AC0000CE0206905EB4507072606FA07F1884375
:101AD00005EB450603FA06F108432061072A0FDAF1
:101AE000606B561E06EB86071F2606FA07F1884331
:101AF000561E06EB860605FA06F10843606322E0EF
:101B00000D2A0FDA206BD61F06EB86071F2606FA72
:101B100007F18843D61F06EB860605FA06F108434F
:101B2000206310E0E06AA2F10D0606EB86071F268F
:101B300006FA07F18843A2F10D0606EB860605FAC0
:101B400006F10843E062F0BD816841F080418160A8
:101B50007047000010B586B0FE480078FE4909784D
:101B600090FBF1F201FB1201FB480078401E81421C
:101B700002D10120F949C870F6480078F84909787F
:101B800090FBF1F201FB1201F5480078401E814202
:101B900002D10120F1490871EE480078F149097835
:101BA00090FBF1F201FB1201EE480078801E8142A9
:101BB00002D10120E949C873E6480078EA4909786A
:101BC00090FBF1F201FB1201E7480078401E8142D0
:101BD00002D10120E1498870DE480078E3490978A4
:101BE00090FBF1F201FB1201E0480078401E8142B7
:101BF00002D10120D949C872D6480078DC49097859
:101C000090FBF1F201FB1201D9480078801E81425D
:101C100002D10120D1494873CE480078D5490978CE
:101C200090FBF1F201FB1201D2480078801E814244
:101C300002D10120C9498873C6480078CE49097885
:101C400090FBF1F201FB1201CB480078C01E8142EB
:101C500002D10120C1490874BE480078C7490978FB
:101C600090FBF1F201FB1201C4480078C01E8142D2
:101C700004D1BA48407C401CB8494874B548007843
:101C8000401CC0B2B3490870C82801DD00200870AC
:101C9000B248007850B10020B0490870B84A92F8B4
:101CA0003F1092F83E0000F053FE37E2AB48407818
:101CB00060B10020A94948704FF4C87364224FF402
:101CC00096710090042001F0AFFB27E2A3488078D2
:101CD000E8B10020A1498870AA4890F8220000F0DD
:101CE0000400A9490870A948D0ED011AB0EE611AA4
:101CF000D0ED001AF0EE610AD0ED021AB0EE610AE2
:101D0000084602780021084601F064FA06E293488A
:101D1000007C58B10020914908749FED9D1ADFEDB9
:101D20009C0A9FED9B0A01F0D5F9F7E18B48C07B37
:101D300028B100208949C87301F0FCFAEEE1874818
:101D4000C078E8B300208549C870924890ED090A30
:101D50009148D0ED070A30EE600AF2EE040A20EE58
:101D6000200ABDEEC00A10EE100A00B28B49896845
:101D700091ED030ADFED8A0A20EE200ABDEEC00ACB
:101D800010EE101A09B2834A92ED010ABDEEC00AA4
:101D900010EE102A12B2814B9B6893ED020ADFED20
:101DA000800A20EE200ABDEEC00A10EE103A1BB2E7
:101DB000CDE90132CDE90310764890ED2D0A00E01F
:101DC0003CE0DFED770A20EE200ABDEEC00A10EEFF
:101DD000100A00B2704C009094ED100ADFED710A09
:101DE00020EE200ABDEEC00A10EE104A23B26A4C63
:101DF00094ED0C0ADFED6B0A20EE200ABDEEC00A5E
:101E000010EE104A22B2644C94ED0F0AF2EE040A6E
:101E100020EE200ABDEEC00A10EE104A21B25E4C40
:101E200094ED0B0AF2EE040A20EE200ABDEEC00A81
:101E300010EE104A20B201F02BF86FE1474800790C
:101E400038B10020454908710021084601F0F0F83A
:101E500064E14248C07AF8B100204049C87202905B
:101E600003900490059000904F4C0190E48804F298
:101E7000DC54A3B24C4CA48804F2DC54A2B24A4C09
:101E8000648904F2DC54A1B2474C248904F2DC5486
:101E9000A0B200F049FF41E13048407B60B1002032
:101EA0002E49487300900190029003460246014675
:101EB000039000F081FD31E128484079F0B3002023
:101EC000264948713948D0ED254A9FED395A64EECC
:101ED000854AB0EE644AD0ED244A9FED355A64EE4F
:101EE000854AF0EE643AD0ED234A9FED315A64EE14
:101EF000854AB0EE643AD0ED154A9FED2D5A64EE56
:101F0000854AF0EE642AD0ED144A9FED295A64EE1A
:101F1000854AB0EE642AD0ED134A9FED255A64EE4F
:101F2000854AF0EE641AD0ED154A9FED215A64EE11
:101F3000854AB0EE641AD0ED144A00E042E09FED0D
:101F40001C5A64EE854AF0EE640AD0ED134A9FED08
:101F5000185A2FE002A8002003A800208CC40020FB
:101F600004A8002005A8002006A8002007A800203B
:101F700008A8002009A800200AA800200BA800201B
:101F80004CC40020BC0200200CA80020F8B800209F
:101F900000000000E8C2002058B8002008C400205B
:101FA00000007A440000C842CCBE0020000000209F
:101FB0006F12833A64EE854AB0EE640A012000F0A5
:101FC00093FDABE05648807958B30020544988719E
:101FD0005448D0ED1D4AB0EE644AD0ED1C4AF0EEF4
:101FE000643AD0ED1B4AB0EE643AD0ED0D4AF0EE03
:101FF000642AD0ED0C4AB0EE642AD0ED0B4AF0EE24
:10200000641AD0ED0D4AB0EE641AD0ED0C4AF0EE31
:10201000640AD0ED0B4AB0EE640A022000F064FDC1
:102020007CE03F48C079E0B300203D49C8713D489D
:10203000D0ED554A9FED3C5A64EE854AB0EE644AB5
:10204000D0ED544A9FED385A64EE854AF0EE643A7A
:10205000D0ED534A9FED345A64EE854AB0EE643AAF
:10206000D0ED3D4A9FED305A64EE854AF0EE642A89
:10207000D0ED3C4A9FED2C5A64EE854AB0EE642ABE
:10208000D0ED3B4A9FED285A64EE854AF0EE641A83
:10209000D0ED2D4A9FED255A64EE854AB0EE641AC4
:1020A00000E013E0D0ED2C4A9FED205A64EE854A03
:1020B000F0EE640AD0ED2B4A9FED1C5A64EE854A7F
:1020C000B0EE640A032000F00FFD27E01448007A08
:1020D00020B3002012490872124890ED853AF0EEC4
:1020E000432A90ED843AB0EE432A90ED833AF0EE25
:1020F000431A90ED5D3AB0EE431A90ED5C3AF0EE83
:10210000430A90ED5B3AB0EE430A1FED5F4A5FED84
:10211000603A1FED613A042000F0E6FC06B010BD05
:102120008CC40020000000200AD7233CCDCCCC3D3D
:10213000F0B52DED048B89B004460F460025002034
:1021400004E0215C2944CDB2411CC8B2791E814211
:10215000F7DCE01910F8010CA84203D009B0BDEC7F
:10216000048BF0BD2078AA2802D16078AF2800D077
:10217000F4E7A078012821D12079012802D1FC4977
:1021800008711BE02079022803D10120F849087169
:1021900014E02079032803D10120F54908710DE0EE
:1021A0002079042803D10120F149487106E0207903
:1021B000212802DB2079262800DD00BFA078022834
:1021C00010D12079012806D1EA4948718871C87177
:1021D0000872487288722079A02802D10120E5494E
:1021E000487000BFA07810287CD12079000200B28E
:1021F0006179084300EE100AB8EEC00ADE4880EDAF
:10220000130AA079000200B2E179084300EE100A37
:10221000B8EEC00AD84880ED140A207A000200B255
:10222000617A084300EE100AB8EEC00AD24880ED89
:10223000150AA07A000200B2E17A084300EE100A03
:10224000B8EEC00ACC4880ED130A207B000200B231
:10225000617B084300EE100AB8EEC00AC64880ED64
:10226000140AA07B000200B2E17B084300EE100AD2
:10227000B8EEC00AC04880ED150A207C000200B20A
:10228000617C084300EE100AB8EEC00ABA4880ED3F
:10229000230AA07C000200B2E17C084300EE100A91
:1022A000B8EEC00AB44880ED240A207D000200B2D6
:1022B000617D084300EE100AB8EEC00AAE4880ED1A
:1022C000250AAC48007848B90120AA490870A078CE
:1022D000A74981F83E00084680F83F500120A749F1
:1022E00081F82900A07811287ED12179090209B24C
:1022F000627941EA0200FEF713FE41EC190B9FEDF3
:10230000A00B53EC102BFEF72AFD41EC180BFEF747
:1023100069FE9949C862A179090209B2E27941EAE4
:102320000200FEF7FDFD41EC190B9FED950B53EC00
:10233000102BFEF714FD41EC180BFEF753FE8E49EF
:102340000863217A090209B2627A41EA0200FEF7C3
:10235000E7FD41EC190B9FED8A0B53EC102BFEF7B8
:10236000FEFC41EC180BFEF73DFE83494863A17A61
:10237000090209B2E27A41EA0200FEF7D1FD41EC1E
:10238000190B9FED7F0B53EC102BFEF7E8FC41EC93
:10239000180BFEF727FE7849C862217B090209B2B3
:1023A000627B41EA0200FEF7BBFD41EC190B9FED99
:1023B000740B53EC102BFEF7D2FC41EC180BFEF71C
:1023C00011FE6D490863A17B090209B2E27B41EA73
:1023D0000200FEF7A5FD41EC190B9FED690B53ECD4
:1023E000102BFEF7BCFC00E058E041EC180BFEF7A8
:1023F000F9FD61494863217C090209B2627C41EA26
:102400000200FEF78DFD41EC190B9FED5D0B53ECC7
:10241000102BFEF7A4FC41EC180BFEF7E3FD564928
:10242000C866A17C090209B2E27C41EA0200FEF71B
:1024300077FD41EC190B9FED520B53EC102BFEF77F
:102440008EFC41EC180BFEF7CDFD4B490867217D52
:10245000090209B2627D41EA0200FEF761FD41EC2A
:10246000190B9FED470B53EC102BFEF778FC41EC5A
:10247000180BFEF7B7FD404948673E48007848B959
:1024800001203C490870A078394981F83E0008468F
:1024900080F83F500120394981F82900A07812289E
:1024A0007AD12179090209B2627941EA0200FEF784
:1024B00037FD41EC190B9FED340B53EC102BFEF75D
:1024C0004EFC41EC180BFEF78DFD2B49C1F8AC001A
:1024D000A179090209B2E27941EA0200FEF720FD82
:1024E00041EC190B9FED280B53EC102BFEF737FC3A
:1024F00041EC180BFEF776FD1F49C1F8B000217AB8
:10250000090209B2627A41EA0200FEF709FD41ECD4
:10251000190B9FED1D0B53EC102BFEF720FC41EC2B
:10252000180BFEF75FFD1449C1F8B400A17A090247
:1025300009B2E27A41EA0200FEF7F2FC41EC190B23
:102540009FED130B53EC102BFEF709FC41EC180B1D
:10255000FEF748FD0849C1F8EC00217B090209B2E9
:10256000627B41EA0200FEF7DBFC41EC190B14E050
:102570004CC400208CC4002000000020BC020020BD
:10258000FCA9F1D24D62503F7B14AE47E17A843F03
:102590009A9999999999B93FB8E01FED030B53ECBB
:1025A000102BFEF7DCFB41EC180BFEF71BFDA849D6
:1025B000C1F8F000A17B090209B2E27B41EA020006
:1025C000FEF7AEFC41EC190B1FED0F0B53EC102B7B
:1025D000FEF7C5FB41EC180BFEF704FD9C49C1F862
:1025E000F400217C090209B2627C41EA0200FEF794
:1025F00097FC41EC190B1FED1A0B53EC102BFEF757
:10260000AEFB41EC180BFEF7EDFC9149C1F84C0113
:10261000A17C090209B2E27C41EA0200FEF780FCDB
:1026200041EC190B1FED260B53EC102BFEF797FB1B
:1026300041EC180BFEF7D6FC8549C1F85001217D0D
:10264000090209B2627D41EA0200FEF769FC41EC31
:10265000190B1FED310B53EC102BFEF780FB41ECF7
:10266000180BFEF7BFFC7A49C1F85401794800788D
:1026700048B9012077490870A078774981F83E0071
:10268000084680F83F507549D1F8E00011F0F0FE9F
:1026900000261FE07149EC3151F8260011F0E8FEE8
:1026A000002004900590069007906948C830011FEB
:1026B0000A1F131FCDE90032CDE902101B1F0C3A8F
:1026C00014391C3811F0A6FD6449EC3141F826009C
:1026D000701CC6B2042EDDDB00200490059006902D
:1026E00007905F48011F0A1F131FCDE90032CDE993
:1026F00002101B1F0C3A14391C3811F08BFD57497E
:10270000C1F8E0000120574981F82900A07813287A
:102710007DD12179090209B2627941EA0200FEF70E
:10272000FFFB41EC190B1FED6A0B53EC102BFEF76E
:1027300016FB41EC180BFEF755FC4549C1F86C013E
:10274000A179090209B2E27941EA0200FEF7E8FB49
:1027500041EC190B1FED760B53EC102BFEF7FFFA33
:1027600041EC180BFEF73EFC3949C1F87001217AA3
:10277000090209B2627A41EA0200FEF7D1FB41EC9C
:10278000190B1FED810B53EC102BFEF7E8FA41EC0F
:10279000180BFEF727FC2E49C1F87401A17A090233
:1027A00009B2E27A41EA0200FEF7BAFB41EC190BEA
:1027B0001FED8D0B53EC102BFEF7D1FA41EC180BEB
:1027C000FEF710FC2249C1F80C02217B090209B274
:1027D000627B41EA0200FEF7A3FB41EC190B1FEDFF
:1027E000980B53EC102BFEF7BAFA41EC180BFEF7DE
:1027F000F9FB1749C1F81002A17B090209B2E27B7B
:1028000041EA0200FEF78CFB41EC190B00E01DE0F1
:102810001FEDA50B53EC102BFEF7A1FA41EC180BA2
:10282000FEF7E0FB0A49C1F814020A48007848B9EB
:10283000012008490870A078074981F83E00084641
:1028400080F83F500120074981F8290000BF85E446
:10285000000000208CC400204CC4002020B60020C2
:1028600008010020BC02002010B50446344800785E
:1028700038B9AA2C05D101203149087031480470BB
:102880005DE02F480078012807D1AF2C05D1022048
:102890002B4908702B48447051E0294800780228E1
:1028A00007D1F12C05DA03202549087025488470EA
:1028B00045E02348007803280CD1322C0ADA0420A2
:1028C0001F4908701F48C4701F48047000201F492A
:1028D000087034E01A480078042819D11A480078A2
:1028E000002815DD18480078401E17490870174861
:1028F000007816490978491C144A1170001D1149C5
:102900000C5411480078D0B905200D49087016E024
:102910000B48007805280FD10020094908700B48A2
:102920000078001D07490C5408480078401DC1B2CA
:102930000448FFF7FDFB02E000200149087010BDCC
:102940000FA80020B0C400200DA800200EA8002071
:1029500070B504460D46AA200E490873AA210D48F9
:102960004173EF2181730221C17304744574002601
:10297000002006E007490C31095C3144CEB2411C0D
:10298000C8B20628F6DB0348867407210C3000F035
:1029900003F870BD4CC4002070B504460D460448D1
:1029A000044908602A462146024801F08DFA70BDAC
:1029B0000078004030C400207FB50024AA222146C0
:1029C000641C484842542146641C42540622214655
:1029D000641C425400222146641C42549DF801208C
:1029E0002146641C42549DF800202146641C425438
:1029F0009DF805202146641C42549DF80420204681
:102A0000611CCCB237490A549DF809202046611C4C
:102A1000CCB234490A549DF808202046611CCCB23F
:102A200030490A549DF80D202046611CCCB22D4936
:102A30000A549DF80C202146601CC4B22948425417
:102A40009DF821202046611CCCB226490A549DF8ED
:102A500020202046611CCCB222490A549DF8252032
:102A60002046611CCCB21F490A549DF82420204600
:102A7000611CCCB21B490A549DF829202046611CD8
:102A8000CCB218490A549DF828202046611CCCB2CB
:102A900014490A549DF82D202046611CCCB21149DE
:102AA0000A549DF82C202046611CCCB20D490A54D2
:102AB000201FC1B20B480C38C1730025002005E06F
:102AC0000849095C2944CDB2411CC8B2A042F7DBD9
:102AD0002046611CCCB203490D5421460148FFF742
:102AE0005BFF7FBD58C4002070B52DED0A8B82B00E
:102AF0000546B0EE408AF0EE608AB0EE419AF0EE04
:102B0000619AB0EE42AAF0EE62AAB0EE43BAF0EEDD
:102B100063BAB0EE44CA0024AA222146641C80484D
:102B200042542146641C425405F10F00C2B22146B2
:102B3000641C7B48425400222146641C42549FED91
:102B4000790A28EE000ABDEEC00A10EE100A00B2A3
:102B500001909DF805202146641C714842549DF85F
:102B600004202146641C42549FED6E0A28EE800A20
:102B7000BDEEC00A10EE100A00B201909DF80520CB
:102B80002146641C664842549DF804202146601C7E
:102B9000C4B2634842549FED630A29EE000ABDEEB9
:102BA000C00A10EE100A00B201909DF805202046E0
:102BB000611CCCB25A490A549DF804202046611C7D
:102BC000CCB257490A549FED570A29EE800ABDEE50
:102BD000C00A10EE100A00B201909DF805202046B0
:102BE000611CCCB24E490A549DF804202046611C59
:102BF000CCB24B490A549FED4B0A2AEE000ABDEEB7
:102C0000C00A10EE100A00B201909DF8052020467F
:102C1000611CCCB242490A549DF804202046611C34
:102C2000CCB23F490A549FED3F0A2AEE800ABDEE1E
:102C3000C00A10EE100A00B201909DF8052020464F
:102C4000611CCCB236490A549DF804202046611C10
:102C5000CCB233490A549FED330A2BEE000ABDEE85
:102C6000C00A10EE100A00B201909DF8052020461F
:102C7000611CCCB22A490A549DF804202046611CEC
:102C8000CCB227490A549FED270A2BEE800ABDEEED
:102C9000C00A10EE100A00B201909DF805202046EF
:102CA000611CCCB21E490A549DF804202146601CC8
:102CB000C4B21B4842549FED1B0A2CEE000ABDEE25
:102CC000C00A10EE100A00B201909DF805202046BF
:102CD000611CCCB212490A549DF804202046611CA4
:102CE000CCB20F490A54201FC1B20D480C38C17331
:102CF0000026002005E00A49095C3144CEB2411C9F
:102D0000C8B2A042F7DB2046611CCCB204490E5485
:102D100021460348FFF740FE02B0BDEC0A8B70BDB0
:102D200058C4002000007A447FB50024AA2221461E
:102D3000641C564842542146641C425403222146D6
:102D4000641C425400222146641C42549DF8012018
:102D50002146641C42549DF800202146641C4254C4
:102D60009DF805202146641C42549DF8042020460D
:102D7000611CCCB245490A549DF809202046611CCB
:102D8000CCB242490A549DF808202046611CCCB2BE
:102D90003E490A549DF80D202046611CCCB23B49A7
:102DA0000A549DF80C202046611CCCB237490A54C5
:102DB0009DF821202046611CCCB234490A549DF86C
:102DC00020202046611CCCB230490A549DF82520B1
:102DD0002046611CCCB22D490A549DF8242020467F
:102DE000611CCCB229490A549DF829202046611C57
:102DF000CCB226490A549DF828202046611CCCB24A
:102E000022490A549DF82D202046611CCCB21F494E
:102E10000A549DF82C202046611CCCB21B490A5450
:102E20009DF831202046611CCCB218490A549DF807
:102E300030202046611CCCB214490A549DF835203C
:102E40002046611CCCB211490A549DF8342020461A
:102E5000611CCCB20D490A54201FC1B20B480C387A
:102E6000C1730025002005E00849095C2944CDB262
:102E7000411CC8B2A042F7DB2046611CCCB203491A
:102E80000D5421460148FFF787FD7FBD58C400203F
:102E90002DE9F84F05460E4617469846DDE90AAB80
:102EA0000024AA222146641C604842542146641C26
:102EB000425402222146641C425400222146641CD2
:102EC000425400959DF801202146641C42549DF80F
:102ED00000202146641C425400969DF801202146A2
:102EE000641C42549DF800202046611CCCB24F491E
:102EF0000A5400979DF801202046611CCCB24B4932
:102F00000A549DF800202046611CCCB247490A545F
:102F1000CDF800809DF801202046611CCCB24349C9
:102F20000A549DF800202046611CCCB23F490A5447
:102F3000CDF800A09DF801202046611CCCB23B4991
:102F40000A549DF800202046611CCCB237490A542F
:102F5000CDF800B09DF801202146601CC4B2334872
:102F600042549DF800202046611CCCB22F490A54DF
:102F70000C9800909DF801202046611CCCB22B4992
:102F80000A549DF800202046611CCCB227490A54FF
:102F90000D9800909DF801202046611CCCB2234979
:102FA0000A549DF800202046611CCCB21F490A54E7
:102FB0000E9800909DF801202046611CCCB21B4960
:102FC0000A549DF800202046611CCCB217490A54CF
:102FD000002000909DF801202046611CCCB21349CE
:102FE0000A549DF800202046611CCCB20F490A54B7
:102FF000201FC1B20D480C38C1734FF000090020EA
:1030000006E00A49095C494401F0FF09411CC8B2C5
:10301000A042F6DB2046611CCCB2044901F80090C6
:1030200021460248FFF7B8FCBDE8F88F58C40020DD
:1030300073B50024AA222146641C25484254214627
:10304000641C425407222146641C4254002221463B
:10305000641C42549DF803202146641C42549DF890
:1030600002202146641C42549DF801202146641C24
:1030700042549DF800202046611CCCB214490A54E9
:103080009DF805202046611CCCB211490A549DF8D8
:1030900004202046611CCCB20D490A54201FC1B245
:1030A0000B480C38C1730025002005E00849095C75
:1030B0002944CDB2411CC8B2A042F7DB2046611CB6
:1030C000CCB203490D5421460148FFF765FC7CBD95
:1030D00058C4002030B52DED048B81B0B0EE408A8D
:1030E000F0EE608AB0EE419A0024AA222146641CC8
:1030F000364842542146641C42540B222146641C2B
:10310000425400222146641C42549FED310A28EEAD
:10311000000ABDEEC00A10EE100A00B200909DF841
:1031200001202146641C294842549DF80020214674
:10313000641C42549FED260A28EE800ABDEEC00AA8
:1031400010EE100A00B200909DF801202146641C88
:103150001E4842549DF800202046611CCCB21B49F9
:103160000A549FED1B0A29EE000ABDEEC00A10EEBC
:10317000100A00B200909DF801202046611CCCB2DC
:1031800012490A549DF800202046611CCCB20F4918
:103190000A54201FC1B20D480C38C173002500200D
:1031A00005E00A49095C2944CDB2411CC8B2A042DD
:1031B000F7DB2046611CCCB204490D54214603487C
:1031C000FFF7EAFB01B0BDEC048B30BD58C4002012
:1031D000CDCCCC3D2DE9F0412DED048B82B0B0EE8D
:1031E000408AF0EE608AB0EE419A05460E461746D8
:1031F00000240095AA222146641C4C4842542146D2
:10320000641C425401222146641C4254002221467F
:10321000641C42549FED460A28EE000ABDEEC00A27
:1032200010EE100A00B201909DF805202146641CA2
:103230003E4842549DF804202146641C42549FEDB0
:103240003C0A28EE800ABDEEC00A10EE100A00B259
:1032500001909DF805202146641C344842549DF895
:1032600004202046611CCCB230490A549FED300A3C
:1032700029EE000ABDEEC00A10EE100A00B201905D
:103280009DF805202046611CCCB228490A549DF8BF
:1032900004202046611CCCB224490A549DF8032026
:1032A0002046611CCCB221490A549DF802202046D8
:1032B000611CCCB21D490A549DF801202046611CB6
:1032C000CCB21A490A549DF800202046611CCCB2A9
:1032D00016490A542046611CCCB214490E542046AB
:1032E000611CCCB211490F54201FC1B20F480C38D9
:1032F000C1734FF00008002006E00C49095C41440E
:1033000001F0FF08411CC8B2A042F6DB2046611C58
:10331000CCB2064901F8008021460448FFF73CFB87
:1033200002B0BDEC048BBDE8F081000058C4002061
:103330000000C84238B50024AA222146641C39483E
:1033400042542146641C4254F1222146641C4254DA
:1033500000222146641C4254002000909DF8012068
:103360002146641C2F4842549DF800202146641CCD
:103370004254002000909DF801202146641C2948F9
:1033800042549DF800202046611CCCB225490A54C5
:10339000002000909DF801202046611CCCB22149FC
:1033A0000A549DF800202046611CCCB21D490A54E5
:1033B000002000909DF801202046611CCCB21949E4
:1033C0000A549DF800202046611CCCB215490A54CD
:1033D000002000909DF801202146601CC4B21148D5
:1033E00042549DF800202046611CCCB20D490A547D
:1033F000201FC1B20B480C38C1730025002005E026
:103400000849095C2944CDB2411CC8B2A042F7DB8F
:103410002046611CCCB203490D5421460148FFF7F8
:10342000BBFA38BD58C400207FB505460024AA2247
:103430002146641C2E4842542146641C42540022FA
:103440002146641C42542146641C42542146641C9B
:1034500045549DF805202146641C42549DF80420E3
:103460002146641C42549DF809202046611CCCB2C0
:103470001F490A549DF808202046611CCCB21C4903
:103480000A549DF80D202046611CCCB218490A54FC
:103490009DF80C202046611CCCB215490A549DF8B9
:1034A00021202046611CCCB211490A549DF82020ED
:1034B0002046611CCCB20E490A54201FC1B20C48F0
:1034C0000C38C1730026002005E00949095C31442D
:1034D000CEB2411CC8B2A042F7DB2046611CCCB280
:1034E00003490E5421460248FFF756FA7FBD0000FB
:1034F00058C4002070B505460C4600260DB1022CBC
:1035000000D870BDA11E06480288284603F054F872
:103510000646A01E2E54310A601E295400BFF0E753
:103520003AB3002070B505460C4600260DB1022CBA
:1035300000D870BD611EFF22284603F057F80646EA
:10354000601E2E5400BFF4E72DE9F04F89B0044609
:103550000D4616461F46DDE914ABDDE912890E2241
:1035600004F10C0101A8FDF7D9F8206800F052F829
:103570002749606800F0E0F82549A06800F0DCF811
:10358000206801F017FA00906068009902F094FF3B
:10359000206801F00FFA0090A068009902F08CFFFB
:1035A00000208DF81E0001208DF81F0000208DF8EE
:1035B00020008DF821008DF822008DF823008DF871
:1035C0001A908DF81B508DF81C708DF81D60ADF8A9
:1035D000188006A9206800F0F6FF01A800F0D6FECA
:1035E00001220221206800F0E5FF206801F0EEF8DA
:1035F0008DF814008DF815A08DF816B001208DF807
:10360000170005A803F096F809B0BDE8F08F000098
:103610000100020070B505460748854202D14FF00F
:10362000007404E00548854201D14FF0C0640121D7
:10363000204603F0DDF870BD0064004000680040E3
:10364000F0B58FB004460D4616461F461A4920684D
:10365000884204D90121880503F0BAF803E001216A
:10366000480503F0B5F8206801F0EAFF00BF2068C4
:1036700002F09DF80028FAD160680090019502964A
:1036800000200390049705904FF48060069000207E
:103690000790089009904FF480300A9000200B901A
:1036A00003200C9000200D900E906946206802F0D7
:1036B000BBF80FB0F0BD000000640240F0B58FB061
:1036C00004460D4616461F461A492068884204D90A
:1036D0000121880503F07CF803E00121480503F08F
:1036E00077F8206801F0ACFF00BF206802F05FF8B7
:1036F0000028FAD16068009001950296402003905E
:103700000497002005904FF48060069000200790F9
:10371000089009904FF480300A9000200B9003200D
:103720000C9000200D900E906946206802F07CF805
:103730000FB0F0BD006402402DE9FC4180460D460B
:10374000C5F3074030B1012806D0022806D003286F
:1037500008D105E0002405E0012403E0022401E093
:10376000032400BF00BFC5F3072010B1012804D116
:1037700001E0002701E0012700BF00BFE8B220B14F
:10378000012804D0022806D103E0002603E0012628
:1037900001E0022600BF00BF404600F013F8D8F851
:1037A000040000908DF804408DF8067003208DF819
:1037B00005008DF807606946D8F8000002F0BEFDEC
:1037C000BDE8FC8170B505461C492868884201D1D6
:1037D00001242EE01A492868884201D1022428E0F9
:1037E00018492868884201D1042422E01649286833
:1037F000884201D108241CE014492868884201D17C
:10380000102416E012492868884201D1202410E0D3
:1038100010492868884201D140240AE00E492868EE
:10382000884201D1802404E00C492868884200D1F4
:1038300084150121204602F0CBFF70BD000002403C
:103840000004024000080240000C02400010024048
:103850000014024000180240001C024000200240F8
:1038600030B585B00446206800F052F84FF00111E1
:103870006068FFF761FF2549A068FFF75DFF2349F6
:10388000E068FFF759FF21492069FFF755FF2068DD
:1038900004F05EFE05462946A06802F00DFE206891
:1038A00004F056FE05462946E06802F005FE206851
:1038B00004F04EFE05462946206902F0FDFD002079
:1038C000ADF800004FF48270ADF802000020ADF8B2
:1038D00004000220ADF806000120ADF80800400207
:1038E000ADF80A003820ADF80C000020ADF80E004D
:1038F0000720ADF810006946206804F00BFE012196
:10390000206804F0FBFD05B030BD0000010002009E
:1039100010B504461748844204D10121801402F0F6
:1039200077FF26E01448844204D10121001402F0FC
:103930005FFF1EE01148844204D10121C01302F050
:1039400057FF16E00E48844204D10121401402F0D2
:103950005FFF0EE00B48844204D10121080502F00C
:1039600057FF06E00848844203D10121480502F0D0
:103970004FFF10BD0030014000380040003C0040C7
:1039800000340140005001400054014002460B4603
:10399000002105E0481CC1B2C82901DD00207047A4
:1039A0001068008900F002000028F3D010688381BD
:1039B000002105E0481CC1B2C82901DD0020EEE766
:1039C0001068008900F001000028F3D01068808999
:1039D000C0B2E4E770B504460D46206800884FF693
:1039E000C771084021680880206800882843216842
:1039F00008800121206804F081FD70BD2DE9F04FA1
:103A000089B08246884691461C4612ADE0CD5046AC
:103A100000F094F884B148492046FFF78DFE5046E7
:103A200005F0B0F88346204602F0F3FC00905A46B9
:103A30002068009902F0CAFC85B13F492846FFF78B
:103A40007BFE504605F09EF88346284602F0E1FCD6
:103A500000905A462868009902F0B8FC86B13649B1
:103A60003046FFF769FE504605F08CF88346304635
:103A700002F0CFFC00905A463068009902F0A6FC94
:103A800087B12D493846FFF757FE504605F07AF8C2
:103A90008346384602F0BDFC00905A4638680099CB
:103AA00002F094FCADF818900020ADF81A00CDF8A3
:103AB0001C80ADF8200006A9504605F0B7F860203C
:103AC000ADF804000120ADF806000020ADF81000AC
:103AD0003CB101A9504604F009FF0821504604F00A
:103AE00043FF3DB101A9504604F048FF082150466C
:103AF00004F096FF3EB101A9504604F09FFF082153
:103B0000504604F0EBFF3FB101A9504604F0F0FF2E
:103B10000821504605F028F80121504604F095FE92
:103B20000121504604F0A3FE0121504604F0ABFEF3
:103B300009B0BDE8F08F00000100020010B5044696
:103B40003748844204D10121084602F061FE66E054
:103B5000B4F1804F04D10121084602F049FE5EE035
:103B60003048844204D10121022002F041FE56E097
:103B70002D48844204D10121042002F039FE4EE098
:103B80002A48844204D10121082002F031FE46E097
:103B90002748844204D10121102002F029FE3EE092
:103BA0002448844204D10121202002F021FE36E085
:103BB0002148844204D10121022002F029FE2EE096
:103BC0001E48844204D10121080402F021FE26E0AF
:103BD0001B48844204D10121480402F019FE1EE072
:103BE0001848844204D10121880402F011FE16E035
:103BF0001548844204D10121402002F0F9FD0EE075
:103C00001248844204D10121802002F0F1FD06E037
:103C10000F48844203D10121801502F0E9FD10BD57
:103C2000000001400004004000080040000C00407B
:103C3000001000400014004000040140004001401A
:103C4000004401400048014000180040001C0040B2
:103C50000020004070B504460D4600261748006855
:103C600008B1012070BD00211448001F01F0DCFCE8
:103C70000AE0701CC6B2C82E06DD01210F48001FE5
:103C800001F0D2FC0220EDE70C48001F01F08FFD8F
:103C90000028EED10A490948001F01F091FC0748AD
:103CA000083004600548A438C0F8A4500121034836
:103CB000001F01F0B9FC0020D4E70000A46002401E
:103CC0000000302070B504460D4600261548C06D32
:103CD00008B1012070BD00211248583001F0A4FC49
:103CE0000AE0701CC6B2C82E06DD01210D4858300E
:103CF00001F09AFC0220EDE70A48583001F057FD28
:103D00000028EED14FF0E0510648583001F058FC41
:103D100004484466C56501210248583001F084FC1E
:103D20000020D7E700600240F0B585B004460D469C
:103D30001646201D0FC88DE80F00206800F054F8CB
:103D4000606918B127496069FFF7F6FCA06918B1EE
:103D50002449A069FFF7F0FC606938B1206805F0DC
:103D6000E9FB07463946606902F0A6FBA06938B155
:103D7000206805F0DFFB07463946A06902F09CFB8E
:103D80006946206805F0DEF9FF2D16D0FF2E14D00D
:103D9000206805F095FB8DF810008DF811508DF816
:103DA000126001208DF8130004A802F0C3FC012268
:103DB00040F22441206805F09FF9606920B101229A
:103DC0008021206805F065F9A06920B10122402119
:103DD000206805F05EF90121206805F04EF905B074
:103DE000F0BD00000100020010B504461F488442E7
:103DF00004D10121102002F00BFD36E01C48844262
:103E000004D10121480402F0F3FC2EE01948844259
:103E100004D10121880402F0EBFC26E0164884421C
:103E200004D10121C80402F0E3FC1EE013488442DF
:103E300004D10121080502F0DBFC16E010488442A1
:103E400004D10121202002F0E3FC0EE00D48844261
:103E500004D10121880702F0CBFC06E00A48844225
:103E600003D10121400502F0C3FC10BD0010014048
:103E70000044004000480040004C0040005000401A
:103E80000014014000780040007C00402DE9F04122
:103E90000446206805F0C0F90646206805F0D6FA09
:103EA00005464021206805F04BFA0746ABB2206872
:103EB000011D32463846FFF7C3FB0122402120682E
:103EC00005F0E7F8BDE8F08130B50B4600210BE0C6
:103ED0005C5C0568AC8000BF0468248804F0400482
:103EE000002CF9D04C1CE1B29142F1DB30BD70B531
:103EF0000446206805F0DAF905468021206805F0BF
:103F00001FFA06462068011D00232A463046FFF7A7
:103F1000D5FB01228021206805F0BBF870BD0000B0
:103F200010B5134890F88400D0B1114890F8720091
:103F300058B101200F49887017F0C8FA0E4908607F
:103F400000200B4981F8720010E017F0BFFA0A490F
:103F50000968401A642809D900200649887005E0DC
:103F6000002004498870024981F8720010BD0000E9
:103F700060BF002090A70020ACA7002000BFFEE794
:103F800000B585B002215E4800F084FA00286FD0A9
:103F900004215B4800F0A6F95A49594800F086F917
:103FA0006A460021564800F098FB40F2052200982E
:103FB000811A904240D013DC40F20222A0EB0201B1
:103FC00090421BD007DCA0F20110002873D0B0F59E
:103FD000807F71D111E0012911D00229F9D10FE0C0
:103FE00003297FD004DC012943D00229F1D165E007
:103FF00005295BD0FC297FD165E000BF00BF00BF71
:104000000098401E4049087040480A46127800EB6C
:10401000C201684609F0A6FD3B48007800EB40016C
:104020003B4850F82100401C3749097801EB410218
:10403000374941F8220060E036480079012804D170
:104040003549684609F08EFD11E0324800790428B0
:1040500004D1324968460DF007F908E03049684656
:104060000DF017F92F48C06D401C2E49C86544E07B
:1040700044E028480079012805D1274908316846DD
:1040800009F070FD11E023480079042804D1264985
:1040900068460DF0E9F808E0244968460DF0F9F8A3
:1040A0002048806E401C1F49886626E01F496846EC
:1040B0000DF0EFF821E01AE01EE013E01C4968461D
:1040C00010F068FA19E0114A1A49684610F0E8FB46
:1040D0000F48A438D0F8D400401C0D49A439C1F8C9
:1040E000D4000AE01449684610F054FA05E0134978
:1040F00068460FF011F900E000BF00BF05B000BD39
:104100000064004008000032D8B30020F0C800204E
:10411000C4B600209CC00020E0C80020A8B3002046
:104120003CC9002058B80020A0B3002030C90020AE
:1041300078B30020C8DD002080B3002068A70020ED
:1041400010B50121044800F0A5F918B10121024879
:1041500000F0C8F810BD00000064004000B585B054
:104160000221424800F096F900287CD002213F4805
:1041700000F0B8F86A4600213C4800F0AEFA40F280
:1041800006220098811A904245D014DC40F20322A6
:10419000A0EB020190422FD008DCB0F5817F4BD01C
:1041A000A0F20120D0B101285BD118E0012928D06C
:1041B000022956D12AE040F2FB12881A91424BD0D4
:1041C00004DC01292DD002294BD12FE0B0F5007F6E
:1041D00037D0A0F20120002843D138E000BF00987A
:1041E000401E2349087023480A46127800EBC2019A
:1041F000684609F0B7FC35E01F49684609F0B2FC93
:1042000030E01E49684609F0ADFC2BE01C496846C9
:1042100009F0A8FC26E01A490831684609F0A2FC1A
:1042200020E01849684609F09DFC1BE0154908315B
:10423000684609F097FC15E0134968460FF06CF8E2
:1042400010E01249684611F0CBFC0BE00BE00F497F
:10425000684611F0DFFC05E00C49684615F022FCC9
:1042600000E000BF00BF05B000BD000000680040D6
:10427000D9B30020E0C8002090B3002098B30020FC
:1042800020C9002010C9002060A7002078B70020B6
:1042900010B50121044800F0FDF818B101210248D1
:1042A00000F020F810BD00000068004000220C4B18
:1042B000994202D10023836111E0C1F3130201F09E
:1042C00000730BB1C2600AE001F080630BB10261C0
:1042D00005E001F000630BB1826000E042607047CE
:1042E0007000F030B1F5007F3AD00FDC202928D0E3
:1042F00006DC01291CD004291DD0082940D11DE06D
:10430000402921D0B1F5807F3AD126E0B1F5004FA8
:1043100031D006DCB1F5806F25D0B1F5006F2FD11B
:1043200024E0B1F5803F12D0B1F5003F28D111E073
:10433000154A826025E00822C26022E01022C26095
:104340001FE0082202611CE01022026119E008222D
:10435000426016E01022426013E00422426010E046
:10436000042242600DE0042242600AE000228261E1
:104370000422426005E0002282610422426000E0E3
:1043800000BF00BF704700000101010010B500210F
:10439000837A012202FA03F13D4A126842F00102D7
:1043A0003B4B1A603A4A1C3212688A43384B1C3322
:1043B0001A60027BCAB9364A0C3212688A43344BFF
:1043C0000C331A604288C38842EA0343304A4032C1
:1043D000847A42F834300288838842EA03432C4AC4
:1043E0004032847A02EBC4025360027B012A19D165
:1043F000274A0C3212680A43254B0C331A60428854
:10440000038842EA0343224A4032847A42F8343035
:10441000C288838842EA03431D4A4032847A02EB11
:10442000C4025360C27A3AB9194A121D12688A430B
:10443000174B1B1D1A6006E0154A121D12680A432D
:10444000134B1B1D1A60028932B9114A14321268CB
:104450008A430F4B14331A600289012A06D10C4A91
:10446000143212680A430A4B14331A60427B012A41
:1044700006D1074A1C3212680A43054B1C331A60E6
:10448000034A126822F00102014B1A6010BD0000BD
:104490000066004070B504460D460026606928405D
:1044A000002871D0B5F5807F5CD010DC082D35D0A8
:1044B00006DC012D20D0022D24D0042D72D127E05E
:1044C000102D31D0202D35D0402D6BD138E0B5F5F1
:1044D000004F60D009DCB5F5007F49D0B5F5806F9D
:1044E0004CD0B5F5006F5DD14FE0B5F5803F2DD0D4
:1044F000B5F5003F56D12FE0A0682D4900F06AFACB
:10450000064651E0E068032100F064FA06464BE0FD
:10451000E068082100F05EFA064645E0E0681021F8
:1045200000F058FA06463FE02069032100F052FAF5
:10453000064639E02069082100F04CFA064633E0CF
:104540002069102100F046FA06462DE06068082137
:1045500000F040FA064627E06068102100F03AFAC1
:10456000064621E0A069012100F034FA06461BE06E
:10457000A069022100F02EFA064615E0A069042188
:1045800000F028FA06460FE00FE0A069702100F065
:1045900021FA064608E06068042100F01BFA06468E
:1045A00002E0FFE7002600BF00E00026304670BDB5
:1045B000010101001AB143690B43436102E0436901
:1045C0008B434361704730B50246002000231468D6
:1045D00024F002041460146844F00104146000E044
:1045E0005B1C546804F001041CB94FF6FF74A3422D
:1045F000F6D1546804F001040CB900206CE08C7909
:10460000012C04D1146844F08004146003E01468A1
:1046100024F080041460CC79012C04D1146844F097
:104620004004146003E0146824F0400414600C7A21
:10463000012C04D1146844F02004146003E01468D1
:1046400024F0200414604C7A012C04D1146844F046
:104650001004146003E0146824F0100414608C7AD1
:10466000012C04D1146844F00804146003E01468B9
:1046700024F008041460CC7A012C04D1146844F0AE
:104680000404146003E0146824F0040414608C78BB
:10469000A407CD7844EA05640D7944EA05444D79D0
:1046A00044EA05540D886D1E2C43D461146824F02F
:1046B00001041460002300E05B1C546804F0010452
:1046C0001CB14FF6FF74A342F6D1546804F0010404
:1046D0000CB1002000E0012030BD10B500F5D8730A
:1046E00003EB01131B6803F004031372137A53B92D
:1046F00000F5D87303EB01131B6840F2FF7404EA62
:104700005353136009E000F5D87303EB01131B68E2
:104710006FF0604404EAD303536000F5D87303EBF1
:1047200001131B6803F00203537200F5D87303EB07
:1047300001135B6803F00F03937200F5D87303EB6A
:1047400001135B681B0AD37400F5D87303EB0113E4
:104750009B68D37200F5D87303EB01139B681C0AA6
:10476000147300F5D87303EB01139B681C0C54738E
:1047700000F5D87303EB01139B681B0E937300F5D0
:10478000D87303EB0113DB68D37300F5D87303EB25
:104790000113DB681C0A147400F5D87303EB0113D2
:1047A000DB681C0C547400F5D87303EB0113DB6851
:1047B0001B0E937421B9C36843F02003C36003E068
:1047C000036943F02003036110BD00000146054A60
:1047D000914201D1142003E0034A914200D14020CC
:1047E00070470000006400400068004010B50246B9
:1047F0000020936803F08063B3F1806F00D110E074
:10480000936803F00063B3F1006F01D1012008E069
:10481000936803F08053B3F1805F01D1022000E080
:104820000420042874D002F5C07303EB00131B6846
:1048300003F0010402F5C07303EB00131C600B7A54
:104840007BB94B7A0C8843EA445302F5C07404EBFD
:1048500000142468234302F5C07404EB00142360A1
:1048600010E00B7A4C6843EAC4034C7A234302F508
:10487000C07404EB00142468234302F5C07404EBF5
:10488000001423608B7A03F00F038B7202F5C07360
:1048900003EB00135B6823F00F0402F5C07303EB16
:1048A00000135C6002F5C07303EB00135B688C7A45
:1048B000234302F5C07404EB001463608B7B1C0679
:1048C0004B7B44EA03440B7B44EA0323CC7A234327
:1048D00002F5C07404EB0014A3608B7C1C064B7CB7
:1048E00044EA03440B7C44EA0323CC7B234302F5D4
:1048F000C07404EB0014E36002F5C07303EB001313
:104900001B6843F0010402F5C07303EB00131C6045
:1049100010BD000010B50246002321B1012907D0C7
:1049200002290FD109E090681D4C00EA04030BE056
:1049300090681C4C00EA040306E090681A4C00EAF8
:10494000040301E0002300BF00BF184C181BA34262
:1049500016D007DC83B16FF08060184470B1022874
:1049600018D111E0B0F5007F10D0114C204448B1AF
:10497000B0F5003F0ED10BE002230DE000230BE069
:10498000002309E0002307E0012305E0012303E001
:10499000012301E0002300BF00BFD8B210BD00001A
:1049A00003000004000300080000031000010008D9
:1049B0000001FFF70146054A914201D1092003E0B9
:1049C000034A914200D10920704700000064004072
:1049D000006800400246002002EA01030BB10120FA
:1049E00000E00020704770B500254FF4803404E0EB
:1049F000802002F021F900B103E0201EA4F101049F
:104A0000F6D100BF0CB9032070BD40F2FF5002F098
:104A1000E9F82846F8E7000070B5044605E01648B6
:104A2000056805F0450000B100E0F8E700BF04208C
:104A300002F002F920B1042002F0D4F8032070BD86
:104A4000012002F0F9F820B1012002F0CBF801209A
:104A5000F5E7094824380068A04201D01020EEE7AD
:104A600040F2FF5002F0BEF80348203800680821E9
:104A70000840C0B2E3E70000342C014070B50026C6
:104A80004FF4803505E01148046804F0450000B19A
:104A900003E0281EA5F10105F5D100BF15B104F012
:104AA000040028B10326042002F09CF8304670BDB3
:104AB000012002F0C1F818B10126012002F092F89D
:104AC00040F2FF5002F08EF83046F0E7342C0140FF
:104AD00010B505E00B48046804F0450000B100E0A3
:104AE000F8E700BF042002F0A7F820B1042002F08C
:104AF00079F8032010BD40F2FF5002F073F8002057
:104B0000F8E70000342C01402DE9F04105460E463F
:104B10004FF0000805E02048076807F0450000B1A5
:104B200000E0F8E700BF042002F086F828B1042076
:104B300002F058F80320BDE8F081012002F07CF873
:104B400020B1012002F04EF80120F4E71248243889
:104B50000068A84201D01020EDE740F2FF5002F0BB
:104B600041F80D482038046804F4604018B9200C5E
:104B700030804046DFE704F4005008B11320DAE744
:104B800004F4804008B11020D5E704F4004008B1D7
:104B90000F20D0E74046CEE7342C014070B5002608
:104BA0004FF4803505E00F48046804F0450000B17B
:104BB00003E0281EA5F10105F5D100BF15B104F0F1
:104BC000040028B10326042002F00CF8304670BD22
:104BD00004F0400018B10026402002F003F83046EF
:104BE000F5E70000342C01400148C07E704700000A
:104BF000CCBE002070B506460C4604F0800080282C
:104C000008D104F07F0000EB800106F58E7000EB08
:104C1000C10505E004EB840106F55D7000EBC105FC
:104C20000020A87004F07F002870C4F3C0106870E2
:104C30002946304605F093FB002070BD2DE9F04178
:104C400006460D4690461F4605F08000802808D194
:104C500005F07F0000EB800106F58E7000EBC104CB
:104C600007E005F07F0000EB800106F55D7000EBCA
:104C7000C10405F07F00207005F08000C00960705D
:104C8000C4F80880E770607808B12078E080022FCF
:104C900001D1002020712146304605F014FB002090
:104CA000BDE8F0812DE9F04105460E4617469846CD
:104CB00006F07F0000EB800105F55D7000EBC1049C
:104CC000E760C4F814800020A061607006F07F00E7
:104CD0002070E878012800D12761207820B921468A
:104CE000284605F014FA03E02146284605F091FB1A
:104CF0000020BDE8F08108B500220092009A61F31F
:104D00000A12009202691268009B1A4303691A6032
:104D100008BD70B506460C4604F08000802808D116
:104D200004F07F0000EB800106F58E7000EBC105FA
:104D300005E004EB840106F55D7000EBC105012080
:104D4000A87004F07F002870C4F3C0106870294672
:104D5000304605F02CFB002070BD2DE9F0410746E0
:104D60000D461646984605F07F0000EB800107F5DA
:104D70008E7000EBC1040120607005F07F00207090
:104D8000E66026610020A061C4F81480207820B974
:104D90002146384605F0BBF903E02146384605F0C8
:104DA00038FB0020BDE8F08130B587B00546594C8E
:104DB000284605F072F901A801F04AFD029CE86856
:104DC000C0680590059820F4705005900598E96832
:104DD000C860284605F046FC03280BD10020A870C7
:104DE0004FF40070A880059820F4705000F5105022
:104DF00005907EE00120A8704020A88046488442AB
:104E000009D34648844206D2059820F4705000F534
:104E1000605005906DE04148844209D34048844287
:104E200006D2059820F4705000F55050059060E0CF
:104E30003B48844209D33B48844206D2059820F47B
:104E4000705000F54050059053E03648844209D335
:104E50003548844206D2059820F4705000F5305051
:104E6000059046E03048844209D33048844206D257
:104E7000059820F4705000F52050059039E02B483B
:104E8000844209D32A48844206D2059820F47050FF
:104E900000F5105005902CE02548844209D32548A0
:104EA000844206D2059820F4705000F50050059019
:104EB0001FE02048844209D31F48844206D2059847
:104EC00020F4705000F5E050059012E01A4884423A
:104ED00009D31A48844206D2059820F4705000F590
:104EE000C050059005E0059820F4705000F5A050E2
:104EF00005900598E968C86000200690069820F49F
:104F0000005000F5005006900698E96848610120BD
:104F100007B030BD007A030AC0E1E4000024F400C9
:104F2000E0EC040100C31801002D310140A44C0144
:104F300000366E0140E2950180C3C90160600B023A
:104F4000F8B50546002400200090284605F0BFFB78
:104F5000064681E006F0010000287BD0E1B2284639
:104F600000F0A8FA0090009800F0010030B3012092
:104F700000FA04F72869406BB843296948630020A8
:104F80000090009820F00100401C009005F11800EE
:104F900050F8240000998160E1B23248006842680C
:104FA00028469047E878012808D13CB940F2111012
:104FB000405D042802D1284605F054F90098C0F35A
:104FC000C00060B100200090009820F00800083078
:104FD000009005F1180050F82400009981600098B5
:104FE000C0F3001060B100200090009820F0100085
:104FF0001030009005F1180050F8240000998160ED
:105000000098C0F3801060B100200090009820F05C
:1050100040004030009005F1180050F8240000993D
:1050200081600098C0F3400060B1002000900098BB
:1050300020F00200801C009005F1180050F82400B8
:10504000009981600098C0F3C01018B1214628462D
:1050500000F044FA641C7608002E7FF47BAF012038
:10506000F8BD00009CB400207CB50446002500205B
:105070000190204605F033FB06466FE006F0010084
:10508000002869D0E9B2204605F031FB0190019873
:1050900000F00100C8B300200190019820F0010049
:1050A000401C019004F1540050F8250001998160E2
:1050B000E078012817D104F1540050F82500006968
:1050C000009005EB850104F55D7000EBC100806880
:1050D0000099C1F31201411A05EB850204F55D70D8
:1050E00000EBC2008161E9B21E48006802682046F8
:1050F0009047E078012808D13DB940F21110005DD9
:10510000052802D1204605F0ADF80198C0F3400013
:1051100060B100200190019820F00200801C0190F5
:1051200004F1540050F82500019981600198C0F302
:10513000C00088B10B48006881682046884700207D
:105140000190019820F008000830019004F154000B
:1051500050F82500019981606D1C7608002E8DD1D4
:1051600001207CBD9CB400203EB50446A07A78B1F5
:10517000D4F80C0100680090009820F00200009024
:10518000009820F0010000900099D4F80C01016013
:1051900000200190019820F00100401C019020693E
:1051A000406801998843216948600948006881691D
:1051B0002046884700200290029820F0004000F12D
:1051C000004002900298E168486101203EBD000065
:1051D0009CB400207CB5044600200190019820F08A
:1051E000100010300190E068806901998843E168FF
:1051F0008861E068006A0090009800F00F0000EB02
:10520000800104F55D7000EBC1050098C0F34340D8
:1052100007282DD2DFE800F02C04051D1E2C1F00EE
:1052200027E00098C0F30A1090B10098C0F30A126A
:105230002046E96805F065FAE8680099C1F30A11AB
:105240000844E860A8690099C1F30A110844A861FC
:105250000FE00EE00DE0082204F2CC51204605F0EC
:1052600050FAA8690099C1F30A110844A86100E046
:1052700000BF00BFE068806901990843E168886168
:1052800001207CBD38B5044608480068C168204646
:10529000884700200090009820F008000830009017
:1052A0000098E1684861012038BD00009CB40020EE
:1052B0001FB50446002000904FF48970005D0090F7
:1052C000234800684169204688472069806801902A
:1052D00000200390039820F4006000F50060039024
:1052E0000398E1684861A07A70B3019800F001006A
:1052F00050B340F21510005D012825D19DF8000043
:10530000032821D100200290029820F00100401CC7
:105310000290D4F80C01006802990843D4F80C11EB
:105320000860029820F00200801C0290D4F80C0162
:10533000006802990843D4F80C1108600548006819
:1053400040F0060003490860012004B010BD0000D1
:105350009CB4002010ED00E030B587B0044600207A
:10536000029006900590049003900190029820F01E
:105370000100401C0290206940680299884321691D
:1053800048600021204605F043F900250BE0FF218D
:1053900004F1180050F82500816004F1540050F821
:1053A000250081606D1C6078A842F0D84FF0FF3175
:1053B0002069816106986FF30F00401C06900698E3
:1053C00080B200F58030069006992069C161059889
:1053D00020F0080008300590059820F00100401CDE
:1053E0000590059820F00200801C05900599206921
:1053F0004161049820F00100401C0490049820F0C2
:10540000080008300490049820F00200801C0490EA
:10541000049920690161206900680390039820F4D1
:10542000FE600390039920690160204604F01AFF92
:1054300000200190019820F4805000F580500190E8
:105440000198E1684861044800680169204688477E
:10545000012007B030BD00009CB4002038B50446E0
:105460000020009007480068C169204688470098DE
:1054700020F4801000F5801000900098E1684861E9
:10548000012038BD9CB4002038B5044600200090AF
:1054900007480068016A20468847009820F40010F9
:1054A00000F5001000900098E1684861012038BDC7
:1054B0009CB4002030B5024615692B6915696C6BE8
:1054C00024FA01F505F0010543EAC51302F11805B8
:1054D00055F82150AD6805EA030030BD2DE9F843C9
:1054E00006460F4600250020009007EB870106F5D1
:1054F0008E7000EBC104D4E90501451AA068A842EA
:1055000000D2A568E81C4FEA900806F1180050F890
:1055100027008069009029E0D4E90501451AA068B8
:10552000A84200D2A568E81C4FEA9008ABB2FAB2D4
:105530003046E16805F0F9F8E0682844E060A069C9
:105540002844A06106F1180050F8270080690090F7
:10555000D4E90501884209D12178012000FA01F936
:105560003069406B20EA090031694863009880B2D5
:10557000404506D9D4E90510884202D26069002866
:10558000CAD10120BDE8F88310B50A490A4800F0E5
:1055900019F968B10021084800F046F800224FF4DC
:1055A0000061064803F07EF90249034800F022F842
:1055B00010BD000000800028B860024000040040D8
:1055C0000246094B9A4201D2084801E006481038C9
:1055D00001F000531BB1064B0B40C36002E0044BCB
:1055E0000B4083607047000010640240006002407E
:1055F0007D0F7D0F0246094B9A4201D2084801E017
:105600000648103801F000531BB1064B0B40C36035
:1056100002E0044B0B4083607047000010640240BE
:10562000006002407D0F7D0F21B1026842F001024F
:10563000026003E0026822F001020260704700008D
:10564000016821F001010160002101604160816079
:10565000C1600161212141614A49884204D13D2153
:10566000484A103A91608CE046491831884205D189
:105670004FF47461434A103A916082E041493031FD
:10568000884205D14FF474113E4A103A916078E097
:105690003C494831884205D14FF07461394A103A8B
:1056A00091606EE037496031884204D13649354A0D
:1056B000103AD16065E033497831884204D13349EA
:1056C000304A103AD1605CE02E499031884204D1D2
:1056D0002F492C4A103AD16053E02A49A831884218
:1056E00005D14FF03D51274A103AD16049E0294990
:1056F000884204D13D21274A083A116041E02549FA
:105700001831884205D14FF47461224A083A116079
:1057100037E020493031884205D14FF474111D4AD9
:10572000083A11602DE01B494831884205D14FF0FD
:105730007461184A083A116023E0164960318842C2
:1057400004D11149134A121F11601AE0114978312E
:10575000884204D10D490F4A121F116011E00D4912
:105760009031884204D10A490A4A121F116008E0A8
:105770000849A831884204D14FF03D51054A121F13
:1057800011607047106002403D000020400F002073
:1057900000003D201064024021B1026842F0200266
:1057A000026003E0026822F02002026070470146B6
:1057B00000200A6802F001020AB1012000E0002086
:1057C0007047000070B50246002000240025124EEC
:1057D000B24201D2114B01E00F4B103B104E0E4074
:1057E00036B11E2606EAD124166806EA040502E050
:1057F000566906F0800501F000560EB15C6800E0C5
:105800001C68084E344004EA010616B10DB10120AF
:1058100000E0002070BD0000106402400060024003
:105820003C0F3C0F7D0F7D0F10B500220268134B1B
:105830001A40CC680B6823434C6923438C6923438B
:10584000CC6923430C6A23434C6A23438C6A234369
:105850004C6B23438C6B23431A430260426922F052
:105860000702D1E90B3423431A4342610B694360B9
:105870004B6883608B68C36010BD00003F801CF0E4
:10588000704700002DE9F04188B004460D461646E9
:105890001F46DDF838800194079506960C48029063
:1058A0000021ADF80C10ADF80E10ADF810100C2161
:1058B000ADF812100021ADF814104246394601A887
:1058C000FEF732FA01A8FEF7E1FA08B0BDE8F08170
:1058D00020A107002DE9F04188B004460D46174687
:1058E0001E46DDF838801C220A4901A8FAF716FF87
:1058F0000194069507974246314601A8FEF714FA2F
:1059000001A8FEF7F4FA01A8FEF7C0FA08B0BDE856
:10591000F081000010BE010830B589B000240025D8
:10592000002008907F480068FDF79AFF18217D4805
:105930000068FEF74FF80020009001907A4B2C226F
:1059400042F20F7102907948FEF758F8002077492B
:105950003431086004900590069007907448011F48
:105960000A1F131FCDE90032CDE902101B1F0C3AAC
:1059700014391C380EF04EFC6E49886480216B206F
:1059800000F01AF9642014F055FA03216B2000F09E
:1059900013F90A2014F04EFA1021372000F00CF908
:1059A0000A2014F047FA0121382000F005F90A20F6
:1059B00014F040FAC0216C2000F0FEF80A2014F028
:1059C00039FA0021192000F0F7F80A2014F032FA11
:1059D00018211B2000F0F0F80A2014F02BFA1821EF
:1059E0001C2000F0E9F80A2014F024FA1D2000F031
:1059F000A3F8044644F003040A2014F01BFA2146DD
:105A00001D2000F0D9F80A2014F014FA03211A20FE
:105A100000F0D2F80A2014F00DFA6A2000F08CF899
:105A200005460A2014F006FA45F010016A2000F03D
:105A3000C3F80A2014F0FEF96A2000F07DF805464C
:105A40000A2014F0F7F945F020016A2000F0B4F8BC
:105A50000A2014F0EFF901210B2000F015F91420B1
:105A600014F0E8F910210A2000F00EF90A2014F0D1
:105A7000E1F91F210A2000F007F90A2014F0DAF9F1
:105A800008AA0321102000F0B3F89DF82000803010
:105A90002849A1F840009DF821008030A1F842007B
:105AA0009DF822008030A1F844000A2014F0C2F9C9
:105AB00010210A2000F0E8F80A2014F0BBF95D215B
:105AC000242000F079F80A2014F0B4F98C21252064
:105AD00000F072F80A2014F0ADF90221262000F03F
:105AE0006BF80A2014F0A6F98821272000F064F84A
:105AF0000A2014F09FF916210A2000F0C5F80A20A8
:105B000014F098F90921342000F056F80A2014F016
:105B100091F98121672000F04FF8642014F08AF990
:105B200009B030BD54B30020E8C3010800080040AC
:105B300074B3002094C8002070B5064600240025E8
:105B4000002007490860214606480068FDF71EFF4F
:105B5000054601200449C1F89002284670BD0000A6
:105B60009002404254B30020000040422DE9F04131
:105B700004460D4616460027B84600200C4908602A
:105B800044F080010B480068FDF700FF07E0414644
:105B900008480068FDF7FAFE39467F1C7054AF4292
:105BA000F5D30120024908600020BDE8F081000023
:105BB0009002404254B3002070B504460D460020C8
:105BC00008490860214608480068FDF7DFFE2946BD
:105BD00005480068FDF7DAFE01200449C1F890028B
:105BE00070BD00009002404254B3002000004042CB
:105BF0002DE9FC4104460D46164600200190009018
:105C000000278C213120FFF7D7FF022014F012F972
:105C100034E09DF804002044C1B23220FFF7CCFFED
:105C2000022014F007F980213420FFF7C5FF02207D
:105C300014F000F90EE03620FFF77EFF00903846A2
:105C4000791C8FB2322802DD0220BDE8FC810220DF
:105C500014F0F0F89DF8000000F040000028EAD0B1
:105C60003520FFF769FF9DF804107054022014F0EE
:105C7000E1F89DF80400401CC0B201909DF80400BA
:105C8000A842C6DB0020E0E72DE9F04104460E46BD
:105C9000002700250C213120FFF78EFF022014F091
:105CA000C9F821463220FFF787FF022014F0C2F81E
:105CB00031463320FFF780FF022014F0BBF880212B
:105CC0003420FFF779FF022014F0B4F80EE03620FC
:105CD000FFF732FF05463846791C8FB2322802DDC5
:105CE0000220BDE8F081022014F0A4F805F0400085
:105CF0000028ECD005F0100008B10320F1E70020E7
:105D0000EFE70A784B7842EA0322C2F30A02A2F5CF
:105D1000806202804A78D2108B7842EA4312C2F342
:105D20000A02A2F5806242808A789211CB7842EA18
:105D300083020B7942EA8322C2F30A02A2F580624F
:105D400082800A7952104B7942EAC312C2F30A02E6
:105D5000A2F58062C2800A7C4B7C42EA0322C2F335
:105D60000A02A2F580620281B0F900200A2A06DA4E
:105D7000B0F9002012F10A0F01DD00220280B0F913
:105D800002200A2A06DAB0F9022012F10A0F01DD18
:105D900000224280B0F904200A2A06DAB0F9042071
:105DA00012F10A0F01DD00228280B0F906200A2AD2
:105DB00006DAB0F9062012F10A0F01DD0022C280D6
:105DC000B0F908200A2A06DAB0F9082012F10A0F01
:105DD00001DD002202814A791211920882724A7909
:105DE000C2F30112C2728A79CB7942EA032212B25B
:105DF00002830A7A4B7A42EA032213B243838A7AF5
:105E0000CB7A42EA032213B28383038BC3830B7BD7
:105E1000222213544B7B232213548A7BCB7B42EAEE
:105E20000322828470470000F0B587B004460D4617
:105E300016461F4600940020059006950D480190D7
:105E40000021ADF80810ADF80A104FF48061ADF8EC
:105E50000C100421ADF80E100021ADF810103A46D8
:105E600031466846FDF760FF6846FEF70FF807B059
:105E7000F0BD0000A08601002DE9F04188B0044685
:105E80000D4616461F46DDF83880019407950696A4
:105E90004FF4E13002900021ADF80C10ADF80E1077
:105EA000ADF810100C21ADF812100021ADF814104F
:105EB0004246394601A8FDF737FF002240F224414F
:105EC000094803F019F9012240F22551064803F070
:105ED00013F94FF001110548FDF72EFC012004498C
:105EE000086008B0BDE8F081007C0040A0C3010854
:105EF0008C82414210B5012000F064F828B10120E5
:105F000000F054F8012000F057F810BD10B54FF420
:105F1000004000F057F838B14FF4004000F046F868
:105F20004FF4004000F048F810BD10B5022000F01A
:105F300049F828B1022000F039F8022000F03CF8BE
:105F400010BD10B5042000F03DF828B1042000F089
:105F50002DF8042000F030F810BD10B5082000F036
:105F600031F838B1082000F021F8082000F024F8BA
:105F700000F006FD10BD10B5102000F023F828B188
:105F8000102000F013F8102000F016F810BD10B526
:105F90004FF4807000F016F838B14FF4807000F0C4
:105FA00005F84FF4807000F007F810BD0149086053
:105FB00070470000143C0140014908607047000030
:105FC000143C014001460020034A12680A400AB10D
:105FD000012000E000207047143C014001490860A6
:105FE000704700000C3C024030B10749096841F499
:105FF0008061054A116005E00349096821F4806168
:10600000014A116070470000003C024003480068EC
:1060100040F480500149086070470000003C024095
:1060200070B504460A460026092502B909E0012A8E
:1060300001D1160205E0022A01D1160201E04FF457
:10604000407600F09FF80546092D28D115480068D4
:1060500020F4407013490860084600683043086027
:106060000846006820F0F80008600846006844F020
:10607000020108430B4908600846006840F480307C
:10608000086000F07FF805460648006820F002002E
:10609000044908600846006820F0F80008602846B7
:1060A00070BD0000103C024009201349096801F44A
:1060B0008031B1F5803F01D101201CE00E49096813
:1060C00001F0100109B1062015E00B49096801F43F
:1060D000807109B102200EE00749096801F0EF0163
:1060E00009B1072007E00449096801F0020109B17C
:1060F000082000E0092070470C3C0240034800687B
:1061000040F000400149086070470000103C024028
:1061100030B502460C46092500F034F80546092D35
:1061200019D10E48006820F440700C4908600846F8
:10613000006840F4007008600846006840F0010004
:106140000860146000F01EF805460448006820F05E
:10615000010002490860284630BD0000103C0240A2
:106160000548006800F0004028B1044802490C3995
:106170000860034808607047103C024023016745EF
:10618000AB89EFCD08B509200090FFF78DFF009097
:1061900002E0FFF789FF00909DF800000128F8D089
:1061A0009DF8000008BD00002DE9FC4107460D46A2
:1061B0000026002400200090019008205B49086020
:1061C00010204860402088600020C8604FF4806044
:1061D0000861084600F07CFD1020FEF71DFC044617
:1061E00014B12046BDE8FC815148008800044F49A5
:1061F000086037204860402088600020C8604FF465
:1062000080600861084600F063FD3720FEF704FC5B
:1062100004460CB12046E5E74FF0FF3045490860E1
:1062200008204860302088600220C8600020086193
:1062300001204861084600F0E5FC00203B49086069
:1062400033204860402088600020C8604FF48060A0
:106250000861084600F03CFD3320FEF7DDFB0446F4
:106260000CB12046BEE70CE04FF4001000F0E4FC57
:1062700038B1314800684DF82600761C022E00D354
:1062800007E02D484C38006840F22A610840002899
:10629000EAD000BF082000F0CFFC20B1082000F0B9
:1062A000A1FC04209EE7022000F0C6FC20B10220E1
:1062B00000F098FC022095E7202000F0BDFC20B102
:1062C000202000F08FFC06208CE74FF4007000F0D7
:1062D000B3FC28B14FF4007000F084FC072081E784
:1062E00040F2FF5000F07EFC00980006009901F497
:1062F0007F4140EA0120009901F47F0140EA11202A
:10630000009940EA1160686001980006019901F463
:106310007F4140EA0120019901F47F0140EA112008
:10632000019940EA1160286020465BE768CA0020B6
:10633000BCB300207CCA0020802C0140F0B50A4686
:1063400000210023002400BF3DE0012505FA01F3F0
:10635000156805EA03049C4234D105684F00032602
:10636000BE40B543056015794E00B540066835431B
:1063700005601579012D02D01579022D16D1856899
:106380004F000326BE40B543856055794E00B540A9
:10639000866835438560456801268E40B543456073
:1063A000456896798E40B6B235434560C5684F0062
:1063B0000326BE40B543C560D5794E00B540C668DA
:1063C0003543C560491C1029BFD3F0BDF0B500238B
:1063D00000244D07ED0E02FA05F3CE1000F1200562
:1063E00055F826504E07F70E0F26BE40B543CF1086
:1063F00000F1200646F82750CE1000F1200555F890
:10640000265045EA0304CE1000F1200545F8264049
:10641000F0BD01464A68B2F5807F3BD012DC102AFD
:1064200030D008DC012A25D0022A25D0042A25D024
:10643000082A3FD124E0202A26D0402A26D0802ACC
:1064400038D125E0B2F5805F2CD009DCB2F5007FB1
:1064500022D0B2F5806F21D0B2F5006F2AD11FE0B3
:10646000B2F5005F20D0B2F5804F1FD0B2F5004FDB
:1064700020D11DE000201DE001201BE0022019E0DA
:10648000032017E0042015E0052013E0062011E0AA
:1064900007200FE008200DE009200BE00A2009E0AA
:1064A0000B2007E00C2005E00D2003E00E2001E0AA
:1064B0000F2000BF00BF704770B504460D46204650
:1064C000FFF7A7FF06462A4631462068FFF77EFF02
:1064D00070BD0000014600202C4A914203D2B1F168
:1064E000006F00D350E02A4A914204D2274A9142D9
:1064F00001D3082048E0274A914204D2244A91421D
:1065000001D3102040E0244A914204D2214A914212
:1065100001D3182038E0214A914204D21E4A914208
:1065200001D3202030E01E4A914204D21B4A9142FE
:1065300001D3282028E01B4A914204D2184A9142F4
:1065400001D3302020E0184A914204D2154A9142EA
:1065500001D3382018E0154A914204D2124A9142E0
:1065600001D3402010E0124A914204D20F4A9142D6
:1065700001D3482008E00F4A914204D20C4A9142CC
:1065800001D3502000E05820704700000040000870
:106590000080000800C00008000001080000020898
:1065A00000000408000006080000080800000A08AF
:1065B00000000C0800000E0830B5034613B94FF672
:1065C000FF7030BD09E013F8014B82EA0400C0B24D
:1065D000054D35F8100080EA2222081EA1F10101C4
:1065E000F1D11046EDE7000010BC010830B50346BC
:1065F00005E013F8010B80EA02040448025D081E5E
:10660000A1F10101F5D1104630BD000010BB010819
:106610000348006800F0010000B100BE00BFFEE7C3
:10662000F0ED00E01CB504460020019000902248E7
:1066300000880004214908600D20486040208860DF
:106640000020C8604FF480600861084600F040FBFD
:106650001B480068009002E019480068009000980C
:1066600000F045000028F7D0012000F0E5FA20B145
:10667000012000F0B7FA01201CBD042000F0DCFA74
:1066800020B1042000F0AEFA0320F5E70C482438CE
:1066900000680D2801D01020EEE740F2FF5000F016
:1066A000A1FA07482038006801900198C0F3432000
:1066B00020700020E0E70000BCB3002068CA002082
:1066C000342C014002680A440260D0E900239A4257
:1066D00008DB42680260F7EE000AC0ED020AB7EE7E
:1066E000000A09E0D0ED000AB8EEE01AD0ED010A88
:1066F000F8EEE00A81EE200A7047F0EE400A90EDD5
:10670000011AD0ED031A21EE211AD0ED001A01EE84
:10671000A01AD0ED021A90ED042A01EEC21AB0EED2
:10672000410AC0ED030A80ED040A704700BFFEE78E
:106730007047000070B5002100230F22C4781CB3FD
:10674000174C246804F4E064C4F5E064C4F3072142
:10675000C1F10404E3B20A4144789C40E1B2847878
:10676000144021430C07210E0E4C05786155047826
:1067700004F01F050124AC4005786D11AD0005F152
:10678000E025C5F8004109E0047804F01F05012464
:10679000AC40054D0678761145F8264070BD0000E6
:1067A0000CED00E000E400E080E100E0024901437C
:1067B000024A1160704700000000FA050CED00E08D
:1067C00010B5024803F034F910BD000094D6002043
:1067D00029B1064A12680243044B1A6004E0034AD6
:1067E00012688243014B1A60704700003038024043
:1067F00029B1064A12680243044B1A6004E0034AB6
:1068000012688243014B1A60704700004038024012
:1068100029B1064A12680243044B1A6004E0034A95
:1068200012688243014B1A607047000044380240EE
:1068300029B1064A12680243044B1A6004E0034A75
:1068400012688243014B1A607047000024380240EE
:10685000F0B5002100220024022500260223324F39
:106860003F6807F00C0121B1042905D0082937D170
:1068700005E02E4F076036E02D4F076033E02A4FCA
:106880003F1F3F68C7F38056274F3F1F3F6807F001
:106890003F036EB1264FB7FBF3F7DFF88CC0ACF1C6
:1068A000040CDCF800C0CCF3881C07FB0CF40CE0F3
:1068B0001E4FB7FBF3F7DFF870C0ACF1040CDCF847
:1068C00000C0CCF3881C07FB0CF4174F3F1F3F6838
:1068D000C7F301477F1C7D00B4FBF5F7076002E0BA
:1068E000124F076000BF00BF0F4F3F6807F0F00175
:1068F0000909104F7A5C0768D74047600A4F3F6824
:1069000007F4E051890A0B4F7A5C4768D7408760EB
:10691000054F3F6807F46041490B064F7A5C4768B2
:10692000D740C760F0BD0000083802400024F400E2
:1069300000127A00E0B3002041609FED030A80ED71
:10694000020A002202607047000000000146D1E9FF
:106950000002904205DB48680860B7EE000A81ED4E
:10696000020A91ED020ABCEEC00A10EE100AC0B293
:1069700070470021016070470160704741607047B7
:1069800010B586B018216846F9F7E1FE16246A466C
:1069900021463B20FFF7EAF89DF801009DF8001022
:1069A00040EA012000B2624908809DF803009DF88A
:1069B000021040EA012000B25D4948809DF80500C0
:1069C0009DF8041040EA012000B2594988809DF8E2
:1069D00007009DF8061040EA012000B254490887DC
:1069E0009DF809009DF8081040EA012000B25049C6
:1069F000C8809DF80B009DF80A1040EA012001B202
:106A00004B4801819DF80D009DF80C1040EA0120D3
:106A100001B247484181B0F9000000EE900AF8EE5B
:106A2000E00AB0EE600A4348FFF767FE404880ED99
:106A3000050AB0F9020000EE900AF8EEE00AB0EEA6
:106A4000600A3C481430FFF758FE394880ED060ACA
:106A5000B0F9040000EE900AF8EEE00AB0EE600A29
:106A600034482830FFF749FE314880ED070A0146D7
:106A7000B1F9060000210CF091FD2D4880ED080AC7
:106A80000146B1F9080001210CF088FD284880ED8D
:106A9000090A0146B1F90A0002210CF07FFD2448E1
:106AA00080ED0A0A9DF80F009DF8101040EA0120C1
:106AB00000B21F4988819DF811009DF8121040EA2C
:106AC000012001B21A48C1819DF813009DF81410ED
:106AD00040EA012001B21648018280891449B1F8C8
:106AE000401010FB01F0001200EE100AB8EEC00AD0
:106AF0000F4880ED0B0AC189B0F8420011FB00F08D
:106B0000001200EE100AB8EEC00A094880ED0C0A27
:106B1000018AB0F8440011FB00F0001200EE100AE8
:106B2000B8EEC00A024880ED0D0A06B010BD0000A4
:106B300094C8002014BC00207CB505460024002029
:106B40000090019000260DB1022600E000262248A8
:106B5000006800F0007008B10E207CBD1F49098854
:106B600088B26946FFF720FB04460CB12046F4E7E3
:106B7000019800F4802060B3184800880004184988
:106B8000086037204860402088600020C8604FF4CB
:106B900080600861084600F09BF83720FDF73CFF55
:106BA00004460CB12046D8E70D48066006200C4983
:106BB0004860402088600020C8604FF48060086111
:106BC000084600F085F80620FDF726FF044620461B
:106BD000C3E72520C1E70000142C0140BCB300200E
:106BE00068CA00200149086070470000382C014045
:106BF0000146034A106820F0FF0008431060704708
:106C0000042C014000210B4B02681A601B1D4268D6
:106C10001A601A1D116821F0F701D0E902231A4306
:106C200003691A4343691A431143024A0832116047
:106C300070470000242C014001460020034A1268DE
:106C40000A400AB1012000E000207047342C0140C6
:106C50000248006800F0030070470000002C01406B
:106C600010B500F08BFC10BD00210A4A116847F6F0
:106C7000FF629143027D83681A4343681A43C368E5
:106C80001A4303681A4303691A431143014A116006
:106C900070470000042C014000200B490860091DCA
:106CA0000860091D0860091D086007492431086053
:106CB000091D0860091D086004480349383108604F
:106CC0000020091D08607047002C0140FF07C0002C
:106CD0000021094B02681A601A1D11686FF30A013E
:106CE000D0E901231A43C3681A4303691A431143C5
:106CF000014A121D11607047082C014001490860CB
:106D000070470000002C014070B590B004460E465C
:106D1000154600BF1A48FEF74AFD0028FAD1184868
:106D2000FEF78EFC4FF0006001901648029003942D
:106D300004950020059006904FF480600790800035
:106D400008908000099000200A904FF440300B908A
:106D500004200C9003200D904FF400000E90801042
:106D60000F9001A90648FEF75FFD20210448FEF7B9
:106D700013FD01210248FEF757FC10B070BD000062
:106D800058640240802C014070B504460025164826
:106D90000078032802D12725284670BD12480078C4
:106DA00038B111480078012803D00F480078022834
:106DB00017D1B4F5805F02D127252846EDE7E0B270
:106DC000FFF7BAFE054665B90848006820F4C050D0
:106DD00006490860084600682043086008460068C5
:106DE00008602846D9E70000B8B30020042C014011
:106DF000F0B5014600200022BE4B1B7881F85630CA
:106E0000BD4B1B88A1F85430BC4B1B681A0E93096C
:106E10000B70C2F383034B7002F003038B70B74B0C
:106E20001B68C3F30742CA70B44B1B88C3F3072225
:106E30000A71B24B1A784A715B681A0E1301CB8043
:106E4000AE4B5B68C3F30742CB8843EA1213CB8097
:106E500002F00F030B72A94B9B88C3F30722D309DF
:106E60004B72C2F380138B72C2F34013CB72C2F326
:106E700000130B7300234B739E4B1B783BB19D4B50
:106E80001B78012B03D09B4B1B78032B4FD193070F
:106E90001B0D0B61994B1A790B6943EA82030B6155
:106EA000964B9B681A0E0B6943EA92130B61C2F36F
:106EB000C2030B7502F007034B75904B9B68C3F33D
:106EC000074253098B75C2F38203CB7593075B0F9F
:106ED0000B768A4B1B89C3F307220B7E43EAD2133E
:106EE0000B760B695B1C0024C1E912340B7E9B1CE2
:106EF000012404FA03F3DC17D1E91256A5FB037C45
:106F000006FB03C305FB0433C1E912730C7A0123AA
:106F1000A3400B650024D1E912650B6DA6FB037C31
:106F200005FB03C306FB0433C1E912732EE0714B6A
:106F30001B78022B2AD1714B1A7993069B0A0B619D
:106F40006E4B9B681A0E0B6943EA02230B616B4B75
:106F50009B68C3F307420B6913430B61674B1B89A3
:106F6000C3F307220B695B1C4FF40074A3FB0446B8
:106F70004FF480630025A4FB037C06FB03C304FBE2
:106F80000533C1E912734FF400730B65C2F380132C
:106F900001F8193F93065B0E4B70584B1A7A4B78E9
:106FA00043EAD2134B7002F07F038B70534BDB68C4
:106FB0001A0ED309CB70C2F341130B71C2F38203D3
:106FC0004B7193071B0F8B714C4BDB68C3F307426C
:106FD0008B7943EA92138B71C2F34013CB71002378
:106FE0000B7202F001034B72444B9B89C3F30722DF
:106FF000D3098B72C2F38013CB72C2F340130B73AD
:10700000C2F300134B73C2F381038B7302F00303CB
:10701000CB733A4B1A7B53080B7401234B74384BD8
:107020001B681A0ECA741939354B1B68C3F3074223
:107030001402CC85324B1B88C3F30722CB8D13433C
:10704000CB852F4B1A7814060C635B681A0E0B6BFA
:1070500043EA02440C632A4B5B68C3F307420B6BA1
:1070600043EA02240C63264B9B88C3F307220B6B75
:1070700013430B63224B1A7934235A54204B9B68D9
:107080001A0E35235A541E4B9B68C3F3074214064D
:107090008C631B4B1B89C3F307228B6B43EA0244AF
:1070A0008C63174B1A7A8B6B43EA02248C63144B64
:1070B000DB681A0E8B6B13438B63114BDB68C3F3D6
:1070C00007423C235B5C43EA12143C235C541307E5
:1070D0001C0DCC870A4B9B89C3F30722CB8F13432C
:1070E000CB87074B1A7B540840235C54012441236F
:1070F0005C54F0BDB8B30020BCB3002094CA00209B
:10710000A4CA00203EB50024002501214448FFF711
:107110005FFB0121C802FFF77BFB0121C802FFF7DB
:1071200087FB4FF4F850019002208DF808008DF88D
:10713000090000208DF80A0001208DF80B0001A93C
:107140003848FFF7FBF80420019001A93648FFF703
:10715000F5F80C2208213348FFF738F90C220921F1
:107160003048FFF733F90C220A212E48FFF72EF999
:107170000C220B212B48FFF729F90C221146294834
:10718000FFF724F90C2202212748FFF71FF90021FD
:107190004FF40060FFF74CFBFFF77EFD31208DF8C8
:1071A000000000208DF801008DF8020001208DF80C
:1071B00003006846FFF7BEFA00F0EEF8044614B983
:1071C00000F038F804461CB91848FFF711FE0446D1
:1071D00034B91649B1F85410080400F073FD0446A0
:1071E00024B94FF40060FFF7CFFD04461CB11048EE
:1071F0000078032812D10D4890F8560020B10B48B2
:1072000090F85600012801D1022500E0002528460B
:10721000FFF7EEFC002000F06DFD044620463EBD69
:107220000C00400000080240000C0240B8CA0020D8
:10723000B8B3002038B5002401200090FFF708FD06
:1072400010B92524204638BD4D480078042824D0A4
:1072500000204C49086002204860C020886000205F
:10726000C8604FF4806008610846FFF731FDFDF704
:1072700005FC04460CB12046E5E743480068434955
:1072800008604148001D006848603F4808300068B9
:1072900088603D480C300068C8603948007858B1B3
:1072A00037480078012807D035480078062803D0F1
:1072B00033480078022816D10020324908600320A4
:1072C0004860402088600020C8604FF480600861FA
:1072D0000846FFF7FDFC69460320FDF715FC044650
:1072E0000CB12046AFE726480078032816D1BDF838
:1072F00000000004234908600320486040208860A3
:107300000020C8604FF4806008610846FFF7E0FC89
:10731000FDF7B4FB04460CB1204694E7184800780A
:1073200004282AD0BDF8000019490860BDF8000003
:1073300000041449086009204860C02088600020CB
:10734000C8604FF4806008610846FFF7C1FCFDF794
:1073500095FB04460CB1204675E70B4800680D49C3
:1073600008600948001D0068486007480830006848
:10737000886005480C300068C860002063E70000A2
:10738000B8B3002068CA0020142C0140A4CA002011
:10739000BCB3002094CA00202DE9F0470027002448
:1073A00000260025A046A14676206E4908750020DB
:1073B000086048608860C86008610846FFF754FCB0
:1073C0000320FFF79BFC6848006840F48070664922
:1073D000086000BF12E000206449086048608860CF
:1073E000C8604FF4806008610846FFF771FCFDF744
:1073F000FAFA044604B903E0781CC7B24A2FEADB64
:1074000000BF14B12046BDE8F0874FF4D57057494E
:10741000086008204860402088600020C8604FF461
:10742000806008610846FFF753FCFDF7B7FB044690
:1074300024B901204E4908704FF0804900204B4983
:10744000086037204860402088600020C8604FF402
:10745000806008610846FFF73BFC3720FDF7DCFA47
:107460000446002C4CD135E000204049086037200C
:107470004860402088600020C8604FF48060086148
:107480000846FFF725FC3720FDF7C6FA04460CB185
:107490002046B8E7374849EA000034490860292007
:1074A0004860402088600020C8604FF48060086118
:1074B0000846FFF70DFCFDF70BFB04460CB1204618
:1074C000A1E7294810300668012080EAD67080F0D4
:1074D00001086D1CB8F1000F03D14FF6FF70854213
:1074E000C2D34FF6FF70854202D31B2420468AE7A1
:1074F00006F08040061E33D002201D4908702FE0A0
:107500001DE01D481949086001204860402088603E
:107510000020C8604FF4806008610846FFF7D8FB80
:10752000FDF7D6FA04460CB120466CE70E48103041
:107530000668012080EAD67080F001086D1CB8F161
:10754000000F03D14FF6FF708542DAD34FF6FF707C
:10755000854202D31B24204655E7032004490870C6
:10756000204650E750CA0020042C014068CA002081
:10757000B8B30020000010800080FF8010B54FF4E9
:107580008070FFF759FB78B34C480078012814D17C
:1075900000204B4908600C20486040208860002093
:1075A000C8604FF4806008610846FFF791FB0C202B
:1075B000FDF732FA4349087002E0002041490870A3
:1075C0004148006840F480703F490860081D006829
:1075D0004CF23A3188433C49091D086001203B497F
:1075E00008703848007810BDFFE70220FFF724FB41
:1075F00078B10220FFF7F6FA3348001D00684CF21C
:107600003A3188433049091D086002202D4908702D
:10761000E9E70820FFF710FB78B10820FFF7E2FA4E
:107620002948001D00684CF23A3188432649091D5B
:107630000860042023490870D5E72020FFF7FCFAF2
:1076400078B12020FFF7CEFA1F48001D00684CF2E9
:107650003A3188431C49091D086006201949087001
:10766000C1E71020FFF7E8FA78B11020FFF7BAFA67
:107670001548001D00684CF23A3188431249091D33
:10768000086005200F490870ADE74FF40070FFF760
:10769000D3FA80B14FF40070FFF7A4FA0A48001D36
:1076A00000684CF23A3188430749091D08600720F9
:1076B0000449087097E7002095E70000C1B3002057
:1076C00068CA0020C2B30020382C0140C3B3002098
:1076D0002DE9F84F8146174698460A9C4FF0000A5C
:1076E000D3464D464FF0FF36B9F1000F02D12620A8
:1076F000BDE8F88F00208649086086480078022897
:1077000005D10402780A40EAC8574FEA68280020E9
:10771000814988604860401E08600120486100205F
:10772000C86008610846FFF76DFA794818380068A4
:1077300000F0007008B10E20DAE7002C21DDB4F56E
:10774000006F1EDC601E2040D8B9204607F04AF8C2
:1077500000907248046010207049486040208860A2
:107760000020C8604FF4806008610846FFF7B0FA57
:107770001020FDF751F98246BAF1000F03D05046B0
:10778000B6E72620B4E70098000163498860084600
:1077900044604FF0FF300860012048610220C8605B
:1077A000002008610846FFF72DFA5C4807601120A9
:1077B0005A494860402088600020C8604FF48060CB
:1077C00008610846FFF784FA1120FDF725F9824683
:1077D000BAF1000F01D050468AE7514800780028DE
:1077E0005CD1F8F7EDFC18E04FF40040FFF724FA05
:1077F00078B14FF0000B06E045485430006845F87A
:107800002B000BF1010BBBF1080FF5D32035454ED2
:1078100003E00EB904206BE7761E3D48083000688F
:1078200040F22A6108400028DED00820FFF704FA61
:1078300020B10820FFF7D6F9042059E70220FFF70E
:10784000FBF920B10220FFF7CDF9022050E72020FC
:10785000FFF7F2F920B12020FFF7C4F9062047E72F
:107860004FF40070FFF7E8F928B14FF40070FFF70C
:10787000B9F907203CE704E0254854300068286047
:107880002D1D4FF40010FFF7D7F90028F4D1F8F7B9
:1078900099FC40F2FF50FFF7A5F936E02048007848
:1078A000012832D100202049087020490870204961
:1078B000087017481030006840F22A310843144914
:1078C000103108601248006840F008001049086054
:1078D000002221464846FFF717FA00E0761E1548B9
:1078E000006800F0006038B91148007820B90E48EF
:1078F000007808B9002EF1D10EB90420F8E60A4844
:10790000007810B1084890F800A05046F0E600005A
:107910002C2C0140B8B300207CCA002068CA00208B
:10792000C0B30020FFFF7F00C2B30020C1B300201E
:10793000C3B30020006402402DE9FE4F83460C468D
:10794000914600200290002625462C46700240EA0F
:10795000D5566D020BF00300F0B14FF0000A18E0AD
:107960004FF4007000904FEA4A20471946EBE0734D
:107970003A461648FFF7ACFE02904FF400721349E6
:107980005846F8F7CBFE0BF5007B0AF1010000F03A
:10799000FF0ACA45E4DB16E0B9F1010F09D14FF443
:1079A00000702A46334600905846FFF791FE029039
:1079B00009E04FF400702A463346CDE900095846E5
:1079C00000F006F802900298BDE8FE8F10CB002070
:1079D0002DE9FF5F17469846DDE90E464FF0000996
:1079E000CA464FF0FF35AC49009808600020AB490B
:1079F0000860AB480078022805D10402780A40EA02
:107A0000C8574FEA68280020A64988604860401E91
:107A10000860012048610020C86008610846FFF73F
:107A2000F1F89E481838006800F0007018B10E2078
:107A300004B0BDE8F09F002C21DDB4F5006F1EDC22
:107A4000601E2040D8B9204606F0CCFE83469648FA
:107A50000460102094494860402088600020C8607D
:107A60004FF4806008610846FFF732F91020FCF7F8
:107A7000D3FF8146B9F1000F03D04846D8E726204E
:107A8000D6E7012E71D906FB04F0B0F1007F01D3D7
:107A90002620CDE74FEA0B108249886006FB04F0F0
:107AA00048604FF0FF300860012048610220C86044
:107AB000002008610846FFF7A5F87B480760122000
:107AC00079494860402088600020C8604FF4806099
:107AD00008610846FFF7FCF81220FCF79DFF81467D
:107AE000B9F1000F01D04846A2E77048007800289D
:107AF0007ED1F8F765FB1EE04FF40040FFF79CF8DD
:107B0000A8B14FF0000A08E06448543000686249A8
:107B1000096841F82A000AF1010ABAF1080FF3D303
:107B20005D48006820305C490860614D03E00DB994
:107B300004207DE76D1E59480830006840F22A3164
:107B400008400028D8D00820FFF776F820B1082098
:107B5000FFF748F804206BE70220FFF76DF828B123
:107B60000220FFF73FF8022062E792E02020FFF7B3
:107B700063F820B12020FFF735F8062058E74FF4CE
:107B80000070FFF759F828B14FF40070FFF72AF89A
:107B900007204DE70AE04148543000683E49096833
:107BA00008603D480068001D3B4908604FF4001024
:107BB000FFF742F80028EED14FF48070FFF73CF851
:107BC00020B33748007838B135480078012803D011
:107BD00033480078022819D10020334908600C206E
:107BE0004860402088600020C8604FF4806000E05A
:107BF00013E008610846FFF76BF80C20FCF70CFF58
:107C00008146B9F1000F01D0484611E7F8F7DAFADA
:107C100040F2FF50FEF7E6FF3BE0244800780128E1
:107C200037D1002023490870012023490870002023
:107C30002249087019481030006840F22A31084380
:107C40001649103108601548006840F008001349D3
:107C5000086006FB04F100220098FFF755F800E0E9
:107C60006D1E1748006800F0006008B9002DF7D1BC
:107C70000DB90420DCE600BF1048007818B90D48A3
:107C800000780028F8D00B48007810B1094890F827
:107C900000904846CCE60000C4B300202C2C0140E4
:107CA000B8B300207CCA002068CA0020C0B30020FE
:107CB000FFFF7F00C2B30020C1B30020C3B3002088
:107CC0000064024010B504460948046007200849D2
:107CD0004860402088600020C8604FF480600861E0
:107CE0000846FEF7F5FF0720FCF796FE10BD0000E2
:107CF00068CA002001460020012900D011B9024BBA
:107D0000197000E026207047C0B300202DE9FF5F06
:107D100086B017469846149D0026002005900490D2
:107D2000002481460390824602900195DDF818B048
:107D3000DDF818B0BBF1000F03D126200AB0BDE872
:107D4000F09F0020C9490860C94988604860401E0A
:107D50000860012048610020C86008610846FEF7FD
:107D600051FFC2481838006800F0007008B10E20BA
:107D7000E4E7C0480078022805D10502780A40EA05
:107D8000C8574FEA6828002D1FDDB5F5006F1CDCD1
:107D9000681E2840C8B9284606F024FD0590B6485C
:107DA00005601020B4494860402088600020C86009
:107DB0004FF4806008610846FEF78AFF1020FCF748
:107DC0002BFE06461EB13046B8E72620B6E7AB4884
:107DD00000880004A84908600D20486040208860A1
:107DE0000020C8604FF4806008610846FEF770FF0D
:107DF0000D20FCF711FE06460EB130469EE79B486B
:107E00001838006803904FF0FF341CE0641E9B4854
:107E100000880004984908600D2048604020886070
:107E20000020C8604FF4806008610846FEF750FFEC
:107E30000D20FCF7F1FD06460EB130467EE78B487B
:107E4000183800680390039800F4807008B9002C7B
:107E5000DCD10CB9292071E78748076018208649D2
:107E60004860402088600020C8604FF4806008614E
:107E70000846FEF72DFF1820FCF7CEFD06460EB192
:107E800030465BE700207E4908700598000178497C
:107E90008860084645604FF0FF3008600120486167
:107EA0000020C86008610846FEF7ACFE4FF0FF34C2
:107EB0007448007800287ED1F8F782F945E04FF445
:107EC0008040FEF7B9FED8B30198A0EB0900202846
:107ED00022D20198A0EB090000F0030020B901981C
:107EE000A0EB0900800804E00198A0EB09008008DD
:107EF000401C02904FF0000A0AE05C495431DBF864
:107F0000000008600AF1010A0BF1040B09F10409F1
:107F100002988245F1D310E04FF0000A06E05BF8CA
:107F20002A005249543108600AF1010ABAF1080FD7
:107F3000F5D30BF1200B09F120096FF0404404E068
:107F4000FFE70CB90420F9E6641E484808300068D1
:107F500040F21A6108400028B1D00820FEF76CFEFC
:107F600020B10820FEF73EFE0420E7E60220FEF7DF
:107F700063FE20B10220FEF735FE0220DEE610206F
:107F8000FEF75AFE20B11020FEF72CFE0520D5E6A4
:107F90004FF40070FEF750FE30B14FF40070FEF762
:107FA00021FE0720CAE606E0F8F70CF940F2FF5080
:107FB000FEF718FE41E03348007801283DD100204B
:107FC000314908702E490870304908702748103030
:107FD000006840F21A3108432449103108604022F9
:107FE00029460698FEF790FE2048006840F00800F9
:107FF0001E49086000E0641E2548006800F000602B
:1080000008B9002CF7D11CB9FFF77CF8042095E6DD
:108010004FF0FF3400E0641E1C48007820B91A4875
:10802000007808B9002CF6D10CB9042086E6164871
:10803000007810B11448007880E640F2FF50FEF757
:10804000D1FD04A8FEF7EEFA064603E004A8FEF709
:10805000E9FA06463EB99DF810000728F6D09DF8CB
:1080600010000628F2D0304668E600002C2C0140B3
:108070007CCA0020B8B3002068CA0020BCB300202E
:10808000C1B30020C0B30020C2B30020C3B300209E
:10809000006402402DE9FE4F81460C4692460020C6
:1080A0000290002625462C46700240EAD5566D0205
:1080B00009F00300F0B14FF0000B18E04FF400722C
:1080C00049461948F8F72AFB4FF4007000904FEA30
:1080D0004B20471946EBE0733A461348FFF716FE6C
:1080E000029009F500790BF1010000F0FF0BD34578
:1080F000E4DB16E0BAF1010F09D14FF400702A4613
:10810000334600904846FFF701FE029009E04FF425
:1081100000702A463346CDE9000A484600F006F8CA
:1081200002900298BDE8FE8F10CB00202DE9FF5F82
:1081300084B0DDE91247002600200390029000255C
:1081400080468146019007FB04FBDDF810A0DDF8B6
:1081500010A0BAF1000F03D1262008B0BDE8F09FAF
:108160000020DC490860DC4988604860401E0860E7
:10817000012048610020C86008610846FEF742FD02
:10818000D4481838006800F0007008B10E20E4E709
:10819000D2480078022808D10402DDE90601400A2D
:1081A00040EAC1504912CDE90601002C1FDDB4F5AB
:1081B000006F1CDC601E2040C8B9204606F012FB90
:1081C0000390C74804601020C5494860402088607B
:1081D0000020C8604FF4806008610846FEF778FD13
:1081E0001020FCF719FC06461EB13046B5E72620E4
:1081F000B3E7012F6FD907FB04F0B0F1007F01D383
:108200002620AAE7B548007838B1B448007801289C
:1082100003D0B248007802282DD1B248008800046B
:10822000AF49086037204860402088600020C8605F
:108230004FF4806008610846FEF74AFD3720FCF7DE
:10824000EBFB06460EB1304687E7A54807601720CE
:10825000A3494860402088600020C8604FF48060D7
:1082600008610846FEF734FD1720FCF7D5FB0646EB
:108270000EB1304671E79A490698086019204860A7
:10828000402088600020C8604FF480600861084684
:10829000FEF71EFD1920FCF7BFFB06460EB1304667
:1082A0005BE7039800018C49886007FB04F0486095
:1082B0004FF0FF300860012048610020C86008616D
:1082C0000846FEF79FFC88480078002874D1451EB8
:1082D000F7F776FF42E0E4E04FF48040FEF7ACFCB5
:1082E000B8B3ABEB080020281FD2ABEB080000F0BE
:1082F000030018B9ABEB0800800803E0ABEB080003
:108300008008401C01904FF000090AE07149543187
:10831000DAF80000086009F101090AF1040A08F11D
:10832000040801988145F1D310E04FF0000906E000
:108330005AF8290067495431086009F10109B9F177
:10834000080FF5D30AF1200A08F120086FF0404524
:1083500004E0FFE70DB90420FFE66D1E5D4808301C
:10836000006840F21A3108400028B5D00820FEF716
:1083700063FC20B10820FEF735FC0420EDE6022066
:10838000FEF75AFC20B10220FEF72CFC0220E4E6A6
:108390001020FEF751FC20B11020FEF723FC052031
:1083A000DBE64FF40070FEF747FC30B14FF400708D
:1083B000FEF718FC0720D0E62CE04FF48070FEF7A3
:1083C0003BFC00B34548007838B1444800780128A8
:1083D00003D042480078022815D1002040490860A7
:1083E0000C204860402088600020C8604FF4806006
:1083F00008610846FEF76CFC0C20FCF70DFB0646F6
:108400000EB13046A9E6F7F7DDFE40F2FF50FEF769
:10841000E9FB46E034480078012842D10020334986
:10842000087001203249087000203249087029483C
:108430001030006840F21A310843264910310860B4
:1084400007FB04F140220498FEF75EFC2148006817
:1084500040F008001F4908604FF0FF3500E06D1E36
:108460002548006800F0006008B9002DF7D11DB95B
:10847000FEF748FE042070E64FF0FF3500E06D1E69
:108480001C48007820B91948007808B9002DF6D1A9
:108490000DB9042061E61548007810B11348007842
:1084A0005BE640F2FF50FEF79DFB02A8FEF7BAF82C
:1084B000064603E002A8FEF7B5F806463EB99DF869
:1084C00008000728F6D09DF808000628F2D03046AC
:1084D00043E600002C2C01407CCA0020B8B30020E9
:1084E00068CA0020BCB30020C0B30020C2B3002083
:1084F000C1B30020C3B300200064024021B1028850
:1085000042F04002028004E002884FF6BF731A4036
:108510000280704710B50022028802F441520B8895
:108520004C8823438C882343CC8823430C892343E2
:108530004C8923438C892343CC8923431A430280EB
:10854000838B4FF2FF74234083830B8A038210BD19
:1085500001460F4A914201D1052017E00D4A914290
:1085600001D1052012E00C4A914201D106200DE014
:108570000A4A914201D1052008E0094A914201D1FD
:10858000052003E0074A914200D105207047000012
:108590000030014000380040003C00400034014001
:1085A00000500140005401400CB5002001900090A3
:1085B0003448006840F480303249086000BF3148D8
:1085C000006800F4003000900198401C0190009871
:1085D00018B90198B0F5A04FF1D12A48006800F40D
:1085E000003010B10120009001E0002000900098C0
:1085F000012846D123484030006840F0805021498E
:10860000403108602048006840F440401E4908603E
:108610001C48083000681B4908310860084600689B
:1086200040F4004008600846006840F4A05008602C
:108630001648091F0860081F006840F08070091F75
:10864000086000BF0F48006800F000700028F9D0F3
:1086500040F205600E4908600A480830006820F0C2
:1086600003000849083108600846006840F002002D
:10867000086000BF03480830006800F00C000828BC
:10868000F8D10CBD0038024000700040085A400785
:10869000003C024010B500BF012080F31188BFF3F9
:1086A0004F8FBFF36F8F00BF12F016FF18B14FF05E
:1086B00080500449086000BF002080F3118800BF8B
:1086C00010BD000004ED00E010B51548006840F44E
:1086D0007000134908601348006840F00100114918
:1086E000086000200F49083108600E4800680E49F4
:1086F00008400C4908600D48091D0860081F006803
:1087000020F48020091F0860002006490C31086011
:10871000FFF74AFF4FF0006001498039086010BD43
:1087200088ED00E000380240FFFFF6FE1030002424
:108730007047704710B50121064800F0BCF838B109
:108740000121044800F090F80121024800F089F866
:1087500010BD00000000014010B50121880700F0A5
:10876000AAF838B10121880700F07EF801218807B6
:1087700000F077F810BD000010B50121064800F0A8
:108780009AF838B10121044800F06EF8012102483E
:1087900000F067F810BD00000004004010B5012192
:1087A000064800F088F838B10121044800F05CF870
:1087B0000121024800F055F810BD000000080040FB
:1087C00010B50121084800F076F860B10121064893
:1087D00000F04AF80121044800F043F803484068DB
:1087E000401C0249486010BD000C004060B70020EA
:1087F00010B50121084800F05EF860B1012106487B
:1088000000F032F80121044800F02BF8034800681A
:10881000401C0249086010BD0010004088A70020DD
:1088200010B50121064800F046F838B1012104488E
:1088300000F01AF80121024800F013F810BD000002
:108840000014004070477047704721B1028842F021
:108850008002028004E002884FF67F731A40028093
:108860007047CA4302827047CA430282704721B1EF
:10887000028842F00102028004E002884FF6FE7393
:108880001A400280704731B1B0F8442042F40042EF
:10889000A0F8442005E0B0F84420C2F30E02A0F88E
:1088A000442070471AB183890B43838102E0838996
:1088B0008B438381704730B502460020002300249B
:1088C000158A05EA0103958905EA010413B10CB183
:1088D000012000E0002030BD1AB183890B43838161
:1088E00002E083898B4383817047000070B50024C8
:1088F00000220023058C4FF6FE7635400584028C5D
:108900008388048B4FF68F752C40B51E2C400D8844
:108910002C43751E2A408D892A434D882A43104DC9
:10892000A84202D00F4DA84213D14FF6F7752A4046
:10893000CD892A434FF6FB752A408D882A434FF68E
:10894000FF652B404FF6FF552B400D8A2B434D8A78
:108950002B43838004838D684563028470BD0000CF
:1089600000000140000401400A460021018B4FF63F
:10897000F7731940114301837047000070B500245C
:1089800000220023058C4FF6EF7635400584028CDB
:108990008388048B48F6FF752C404FF6FF452C402A
:1089A0000D884FF6FF7606EA05252C434FF6DF7556
:1089B0002A408D8906EA05152A434D8806EA0515E1
:1089C0002A43154DA84202D0144DA8421DD14FF69E
:1089D0007F752A40CD894FF6FF7606EA05152A43B2
:1089E0004FF6BF752A408D8806EA05152A434FF6D3
:1089F000FF352B404FF2FF752B400D8A06EA8505A7
:108A00002B434D8A06EA85052B43838004838D68BA
:108A10008563028470BD0000000001400004014035
:108A20000A460021018B4FF2FF7319404FF6FF7386
:108A300003EA0223194301837047000070B5002444
:108A400000220023058C4FF6FF6635400584028C1A
:108A50008388848B4FF68F752C404FF6FC752C4025
:108A60000D882C434FF6FF552A408D894FF6FF762F
:108A700006EA05252A434D8806EA05252A43154DB1
:108A8000A84202D0144DA8421DD14FF2FF752A40D2
:108A9000CD894FF6FF7606EA05252A434FF6FF35C6
:108AA0002A408D8806EA05252A434EF6FF752B409D
:108AB0004DF6FF752B400D8A06EA05152B434D8AAE
:108AC00006EA05152B43838084838D68C563028481
:108AD00070BD000000000140000401400A46002172
:108AE000818B4FF6F7731940114381837047000063
:108AF00070B5002200230024058C4EF6FF76354029
:108B00000584038C8488828B48F6FF752A404FF6D3
:108B1000FF452A400D884FF6FF7606EA05252A43D1
:108B20004DF6FF752B408D8906EA05352B434D88A0
:108B300006EA05352B430A4DA84202D0094DA8424A
:108B400008D14BF6FF752C400D8A4FF6FF7606EAEA
:108B500085152C43848082838D680564038470BDF1
:108B600000000140000401400A460021818B4FF2C1
:108B7000FF7319404FF6FF7303EA02231943818301
:108B80007047000001461E4A914201D1012035E0A4
:108B9000B1F1804F01D1012030E01A4A914201D158
:108BA00002202BE0184A914201D1022026E0174A08
:108BB000914201D1022021E0154A914201D10320C6
:108BC0001CE0144A914201D1032017E0124A91425D
:108BD00001D1032012E0114A914201D103200DE09E
:108BE0000F4A914201D1092008E00E4A914201D179
:108BF000092003E00C4A914200D10920704700008F
:108C0000000001400004004000080040000C00404B
:108C10000004014000400140004401400048014080
:108C200000180040001C0040002000400022028884
:108C3000184B98420ED0184B98420BD0B0F1804F91
:108C400008D0164B984205D0154B984202D0154BD0
:108C5000984204D14FF68F731A404B881A43124B37
:108C6000984207D0114B984204D04FF6FF431A4068
:108C70000B891A4302804B68C3620B880385054B3E
:108C8000984202D0044B984201D18B7A038601238B
:108C9000838270470000014000040140000400404E
:108CA00000080040000C004000100040001400408C
:108CB0000448808D00EE100AB8EE400A024880EDAC
:108CC0002A0A7047E0BA002060BF002010B540F2C9
:108CD0002441144800F0E6F9012821D11148048804
:108CE000001D048800211048FCF79EFC0F490E4827
:108CF000FCF766FC00BF0C48FCF759FD0028FAD1D0
:108D000009484038406CC0F5007084B24FF40070E0
:108D100005494039486401210348FCF785FC00BF40
:108D200010BD0000004C00404060024000003010C8
:108D300010B540F22441134800F0B4F9012820D1C5
:108D400010480488848800210F48FCF76DFC0F4907
:108D50000D48FCF735FC00BF0B48FCF728FD002848
:108D6000FAD1094810384069C0F5007084B24FF458
:108D7000007005491039486101210348FCF754FC93
:108D800000BF10BD005000401060024030000010D5
:108D900070B540F22441194800F084F901282CD123
:108DA00016480588001D058800211548FCF73CFC85
:108DB0004FF0E0511248FCF703FC00BF1048FCF7ED
:108DC000F6FC0028FAD10E485838C06DC0F5007086
:108DD00085B24FF400700A495839C8650121084826
:108DE000FCF722FC4DB1002405E00649085DF9F7C7
:108DF0003BFD601C84B2AC42F7DB70BD00780040E4
:108E000058600240ACE9002010B540F225511048EE
:108E100000F048F9D0B10E48001D0088C1B20D48DD
:108E200002780078401C0B4B18700B488154184690
:108E30000078102805D1002019460870064812F065
:108E40008DFD0648C06D401C0449C86510BD00007A
:108E5000007C0040DAB30020ACEB002058B80020C2
:108E600010B540F22441194800F01CF901282BD11B
:108E700016480488848800211548FCF7D5FB14485F
:108E8000001D0068C0F5807084B212491048FCF7DC
:108E900097FB00BF0E48FCF78AFC0028FAD14FF47C
:108EA00080700B49091D086001210948FCF7BCFBD3
:108EB000122C09D10120084981F884000846D0F815
:108EC0008800401CC1F8880010BD0000001001405F
:108ED0004064024000003010CCBE002010B540F2CB
:108EE0002441234800F0DEF801283FD120480488BF
:108EF000001D048800211F48FCF796FB1E491D48F1
:108F0000FCF75EFB00BF1B48FCF751FC0028FAD1C0
:108F10001848001D0068C0F5007084B24FF400705E
:108F200014498839C1F88C0001211248FCF77CFBF8
:108F3000FF2C1BDC00200AE010490A5C104949782C
:108F40000144CBB20E49891CCA54411CC8B2A0428C
:108F5000F2DB0B4949782144094A51700949D1F89B
:108F6000CC10491C074AC2F8CC1000BF10BD00004D
:108F70000044004088600240000C0020ACDF00206C
:108F800090C70020E0BA002010B540F224411848F4
:108F900000F088F8012829D115480488001D0488AC
:108FA00000211448FCF740FB13491248FCF708FB6A
:108FB00000BF1048FCF7FBFB0028FAD10D48283809
:108FC000C06AC0F5007084B24FF4007009492839B6
:108FD000C86201210748FCF727FB3CB107480EF0A7
:108FE00067FE0748806B401C0549886310BD000080
:108FF0000048004028600240000C0010ACE1002056
:109000002CC0002010B540F22441144800F04AF86A
:10901000012821D111480488001D0488002110482E
:10902000FCF702FB0F490E48FCF7CAFA00BF0C48D8
:10903000FCF7BDFB0028FAD10948001D0068C0F507
:10904000007084B24FF400700549091D08600121C9
:109050000348FCF7E9FA00BF10BD0000001401400E
:10906000286402400000302001F40072B2F5007F55
:1090700000D100BFCA430280704721B1828942F407
:109080000052828104E082894DF6FF731A4082818A
:1090900070471AB1838A0B43838202E0838A8B4331
:1090A0008382704770B5024600240023002500200B
:1090B00040F66A16B14200D100BFC1F3421501F07B
:1090C0001F03012606FA03F3012D02D196893340CE
:1090D00006E0022D02D1168A334001E0968A334021
:1090E0000C12012606FA04F41688344013B10CB1B0
:1090F000012000E0002070BDF0B5034600240026EA
:109100000025002040F66A17B94200D100BF18467A
:10911000C1F3421401F01F06012707FA06F5012CDE
:1091200001D10C3004E0022C01D1103000E01430E9
:109130001AB107682F43076002E00768AF43076072
:10914000F0BD00002DE9FF4705460E460024A1466C
:1091500000BFA046B08900B100BF2C8A24F440545F
:10916000F08804432C82AC8941F20C608443B088BF
:1091700031890843718908430443AC81AC8A24F4E3
:109180004074B0890443AC826846FDF761FB204817
:10919000854202D01F48854202D1DDF80C9001E0E3
:1091A000DDF80890A88900F4004040B109EBC9003F
:1091B00000EB091031684900B0FBF1F707E009EB5B
:1091C000C90000EB091031688900B0FBF1F7642099
:1091D000B7FBF0F004012009642101FB1078A88995
:1091E00000F4004040B1322000EBC800B0FBF1F0C9
:1091F00000F00700044308E0322000EB081064216F
:10920000B0FBF1F000F00F0004432C81BDE8FF87B4
:1092100000100140001401400146144A914201D15E
:10922000134821E0134A914201D113481CE0134A2C
:10923000914201D1124817E0124A914201D11248DD
:1092400012E0124A914201D111480DE0114A9142B7
:1092500001D1114808E0114A914201D1104803E0C0
:10926000104A914200D110487047000000100140A0
:10927000ACDE002000440040ACDF0020004800408D
:10928000ACE10020004C0040ACE300200050004066
:10929000ACE5002000140140ACE70020007800405D
:1092A000ACE90020007C0040ACEB00200146144AF1
:1092B000914201D1134821E0134A914201D1134850
:1092C0001CE0134A914201D1124817E0124A914220
:1092D00001D1124812E0124A914201D111480DE029
:1092E000114A914201D1114808E0114A914201D13D
:1092F000104803E0104A914200D110487047000026
:1093000000100140ACEC002000440040ACED002017
:1093100000480040ACEF0020004C0040ACF10020C1
:1093200000500040ACF3002000140140ACF50020D8
:1093300000780040ACF70020007C0040ACF9002031
:109340000246802927D1294B9A4201D128484BE077
:10935000284B9A4201D1284846E0284B9A4201D135
:10936000274841E0274B9A4201D127483CE0274B50
:109370009A4201D1264837E0264B9A4201D126482D
:1093800032E0264B9A4201D125482DE0254B9A42E6
:109390002AD1254828E0402926D1144B9A4201D1F0
:1093A000224821E0134B9A4201D121481CE0134B83
:1093B0009A4201D11F4817E0124B9A4201D11E4830
:1093C00012E0124B9A4201D11C480DE0114B9A4217
:1093D00001D11B4808E0114B9A4201D1194803E022
:1093E000104B9A4200D1184870470000001001400D
:1093F000E0C1010800440040E8BF01080048004007
:1094000020BF0108004C004068BF01080050004028
:1094100030C0010800140140B8C1010800780040C4
:10942000A0BE0108007C004070BE0108C8C0010851
:10943000B0BF010898BE0108E0BE010868BE01087F
:1094400088C0010828BF0108F0BF01080146144A7E
:10945000914201D1801521E0124A914201D1481573
:109460001CE0114A914201D1481517E00F4A914280
:1094700001D1481512E00E4A914201D148150DE084
:109480000C4A914201D1481508E00B4A914201D1A2
:10949000481503E0094A914200D188157047000041
:1094A000001001400044004000480040004C0040D3
:1094B000005000400014014000780040007C004053
:1094C0000146144A914201D1252021E0124A9142DD
:1094D00001D126201CE0114A914201D1272017E03A
:1094E0000F4A914201D1342012E00E4A914201D13B
:1094F00035200DE00C4A914201D1472008E00B4A8B
:10950000914201D1522003E0094A914200D15320F7
:109510007047000000100140004400400048004037
:10952000004C004000500040001401400078004012
:10953000007C00400146144A914201D1072021E0FD
:10954000124A914201D107201CE0114A914201D1F7
:10955000072017E00F4A914201D1082012E00E4A7D
:10956000914201D108200DE00C4A914201D108201E
:1095700008E00B4A914201D1082003E0094A9142D8
:1095800000D1082070470000001001400044004056
:1095900000480040004C00400050004000140140D2
:1095A00000780040007C004070B504460D46D4F8B9
:1095B000E4052946426820469047002070BD70B5FA
:1095C00004460D464FF48970005D022802D003283E
:1095D00012D100E000BF688801280CD100214FF4AF
:1095E0008C700151D4F8E4052946826820469047E2
:1095F000204600F05EF804E02946204600F021F8FD
:1096000000BF00BF70BD2DE9F04106460C4615466F
:1096100000272B46224600213046FBF743FB384605
:10962000BDE8F0812DE9F04106460C4615460027BD
:109630002B46224600213046FBF78FFB3846BDE81B
:10964000F08170B504460D4680212046FBF761FB92
:1096500000212046FBF75DFB204600F003FE70BDB5
:1096600070B504460025052140F211100155002374
:109670001A4619462046FBF715FB204600F0F2FD7E
:10968000284670BD2DE9F04104460E4615460027D8
:10969000C4F83C51C4F83851022140F21110015570
:1096A0002B46324600212046FBF757FB3846BDE8E3
:1096B000F08170B504460025042140F211100155D7
:1096C00000231A4619462046FBF747FB204600F0C8
:1096D000C9FD284670BD70B505460E46002E5DD109
:1096E00005F58E7440F21110405D022849D1A16841
:1096F000E069884217D9A168E069401AE061E8781A
:10970000012803D1D4E902100844E060A08B82B2A2
:109710002846E168FFF786FF00231A4619462846C7
:10972000FBF7C0FA2DE0A168206AB0FBF1F201FB63
:109730001200A8B9A168206A884211D3D4E90801AF
:1097400088420DD2002211462846FFF76BFF002009
:10975000606200231A4619462846FBF7A3FA10E078
:10976000D5F8E405C06848B14FF48970405D03281E
:1097700004D1D5F8E405C168284688472846FFF794
:109780006FFF4FF48B70405D012816D1284600F022
:109790000BFA00214FF48B7041550EE0D5F8E4052B
:1097A000406950B14FF48970405D032805D1D5F868
:1097B000E4053146426928469047002070BD70B5E7
:1097C00005460E46A6BB05F55D7440F21110405DDE
:1097D00003283DD1A168E069884217D9A168E069F2
:1097E000401AE061E878012803D1D4E90210084466
:1097F000E060A368E069984201D2E06900E0A068F7
:1098000082B22846E168FFF7FEFE21E0D5F8E405C4
:10981000006948B14FF48970405D032804D1D5F840
:10982000E4050169284688472846FFF742FF0FE014
:10983000FFE7D5F8E405806950B14FF48970405DC9
:10984000032805D1D5F8E4053146826928469047BA
:10985000002070BD70B504460D46E888012804D08C
:1098600029462046FFF7EDFE1AE04FF48970005DAF
:10987000022802D003280DD105E001220949204623
:10988000FFF700FF0BE0012204F588712046FFF787
:10989000F9FE04E029462046FFF7D3FE00BF00BFD3
:1098A00070BD0000A4B40020F8B504460E46F08850
:1098B000009070880012082862D2DFE800F061048E
:1098C0000C186161575CA078D4F8EC150A686946F9
:1098D0009047054659E0A078D4F8E4158A6A6946AD
:1098E0009047054602216970C4F8F0554DE0B07804
:1098F000062834D2DFE800F0030B131B232BA078DB
:10990000D4F8EC154A686946904705462CE0A078E3
:10991000D4F8EC158A6869469047054624E0A0789B
:10992000D4F8EC15CA686946904705461CE0A07853
:10993000D4F8EC150A6969469047054614E0A0780A
:10994000D4F8EC154A696946904705460CE0A078C2
:10995000D4F8EC158A6969469047054604E031461B
:109960002046FFF76EFEF8BD00BF0EE031462046F0
:10997000FFF767FEF7E731462046FFF762FEF2E7A2
:1099800031462046FFF75DFEEDE700BFBDF8000061
:1099900088B1F08878B1F088BDF80010884202DD07
:1099A000BDF8000000E0F0880090BDF800202946D6
:1099B0002046FFF767FE00BFD5E7000070B50446FC
:1099C0000D464FF48970005D022802D0032813D1A0
:1099D00000E000BF01200C4908604FF48C70005972
:1099E00020B10846006840F00200086002220649E3
:1099F0002046FFF747FE04E029462046FFF721FEF8
:109A000000BF00BF70BD0000A8B4002010B5044620
:109A1000D4F8E405016A20468847002010BD10B53F
:109A20000446D4F8E405416A20468847002010BD6A
:109A30007CB505460024284600F036FE002865D097
:109A4000284600F03CFE0190019808B900207CBD3A
:109A50000198C0F3C04018B12846FBF705FB04434A
:109A60000198C0F3804018B12846FBF769FA044317
:109A70000198C0F3400050B100200090009820F001
:109A80000200801C00900098E968486100BF0198BE
:109A9000C00F18B12846FBF767FB04430198C0F3D9
:109AA000C02018B12846FBF703FC04430198C0F31B
:109AB000C00018B12846FBF7E5FB04430198C0F34A
:109AC000001018B12846FBF785FB04430198C0F34A
:109AD000003018B12846FBF73FFC04430198C0F35F
:109AE000403018B12846FBF75FF904430198C0F3F2
:109AF000005018B12846FBF7B1FC04430198C0F3AD
:109B0000405018B12846FBF7BFFC044320469EE7AF
:109B100090F8CC250A7090F8CD254A7090F8CE3593
:109B200090F8CF2503EB02224A8090F8D03590F8C8
:109B3000D12503EB02228A8090F8D23590F8D32504
:109B400003EB0222CA80CB884FF4A072135001238A
:109B500040F211121354704710B5044600234022FE
:109B600019462046FBF76AF8002340228021204650
:109B7000FBF764F801214FF489700155A078D4F8FF
:109B8000E82551688847002010BD10B50446D4F878
:109B9000E8150869804740F21310015D401E015529
:109BA00003210155002010BD0146034802680869E1
:109BB00042600020704700006CB4002010B50446DD
:109BC000D4F8E405C06920B1D4F8E405C1692046A1
:109BD0008847002010BD70B504460D46A88818BB04
:109BE000E88808BBA87800F07F064FF48970005D14
:109BF000032804D129462046FFF723FD18E04FF43F
:109C00008A70065531462046FBF775F82046FFF767
:109C100050FD26B102214FF48970015508E0012161
:109C20004FF48970015503E029462046FFF709FDEE
:109C300070BD70B504460D46D4F8E40529460268A7
:109C400020469047D4F8E81588688047002070BD0A
:109C500070B504460D46A87830490870084600786B
:109C6000012804DD29462046FFF7EBFC55E04FF4C0
:109C70008970005D022802D0032848D117E02748E8
:109C8000007880B12548007884F8100103214FF452
:109C900089700155214801782046FFF7CAFF204608
:109CA000FFF707FD02E02046FFF703FD34E01B4805
:109CB000007880B902214FF4897001551748007867
:109CC00084F81001154801782046FFF76DFC204606
:109CD000FFF7EFFC1AE094F8100110490978884268
:109CE00011D094F810112046FFF75EFC0B48007865
:109CF00084F81001094801782046FFF79AFF2046B2
:109D0000FFF7D7FC02E02046FFF7D3FC04E029462A
:109D10002046FFF796FC00BF00BF70BDACB400202A
:109D2000F8B504460D460026688801280DD10121AA
:109D30004FF48C700151D4F8E4052946826820461E
:109D400090472046FFF7B5FC3FE0688802283CD1E9
:109D50002879D0BB206940680090A8880612062E9A
:109D600022D2DFE806F02103090F151B009820F02E
:109D70007000103000901DE0009820F0700020303E
:109D8000009017E0009820F070003030009011E053
:109D9000009820F07000403000900BE0009820F018
:109DA00070005030009005E0009820F070001030F6
:109DB000009000BF00BF05480099016001214FF4E9
:109DC0008B7001552046FFF774FCF8BD6CB4002081
:109DD0001CB5044669462046FFF79AFE9DF8000030
:109DE00000F01F0020B1012807D002280FD109E0A0
:109DF0006946204600F016F811E06946204600F05A
:109E000007F90CE06946204600F046F807E09DF8A7
:109E1000000000F080012046FAF77BFF00BF00BF82
:109E200000201CBD70B505460C46002660780A2847
:109E300029D2DFE800F01923281E280A0528140F6C
:109E400021462846FFF730FD22E021462846FFF74D
:109E5000C2FE1DE021462846FFF7FAFE18E0214623
:109E60002846FFF7F7FC13E021462846FFF7A6FD3A
:109E70000EE021462846FFF753FF09E02146284619
:109E8000FFF79DFB04E021462846FFF7DAFB00BF01
:109E900000BF304670BD00002DE9F04105460E467A
:109EA00000273479307800F06000202808D1D5F8F8
:109EB000E40531468268284690473846BDE8F0817F
:109EC0007078002857D001282BD0032875D14FF483
:109ED0008970405D022802D003281BD107E02CB115
:109EE000802C03D021462846FAF713FF17E070882C
:109EF00030B92CB1802C03D021462846FAF709FF4F
:109F0000D5F8E40531468268284690472846FFF791
:109F1000D0FB04E031462846FFF793FB00BF00BFAB
:109F200070E04FF48970405D022802D003281BD1F5
:109F300007E02CB1802C03D021462846FAF7E9FE31
:109F400017E0708878B95CB1802C09D0214628468A
:109F5000FAF750FED5F8E405314682682846904766
:109F60002846FFF7A6FB04E031462846FFF769FBC9
:109F700000BF00BF46E04FF48970405D022802D068
:109F8000032837D107E02CB1802C03D02146284686
:109F9000FAF7BFFE33E004F08000802812D104F00D
:109FA0007F0000EB800105F58E7000EBC10080782A
:109FB00020B101201549086016E022E00020134975
:109FC000086011E004F0800070B904EB840105F52D
:109FD0005D7000EBC100807818B101200B4908606A
:109FE00002E0002009490860022208492846FFF7DC
:109FF00049FB04E031462846FFF723FB00BF00BFC2
:10A0000000E000BF00BF384658E70000A0B40020C1
:10A0100070B504460D4600264FF48970005D032894
:10A0200014D1287901280CDCD4F8E405294682688B
:10A0300020469047E88840B93EB92046FFF739FBF3
:10A0400003E029462046FFF7FCFA04E029462046B3
:10A05000FFF7F7FA00BF00BF304670BD10B50446E9
:10A060004FF48970015D401C01550421401E0155CB
:10A07000D4F8E815C8688047002010BD10B500224C
:10A08000C0EB0013DB000724B3FBF4F100BF531C4B
:10A090001A468B4200D910BDF9E70EB501460020E3
:10A0A000002200920A69926802928A6912680192FB
:10A0B000029AC2F3410232B1012A05D0022A09D024
:10A0C000032A0DD101E000BF00BF019A6FF30A021D
:10A0D00001920AE0019A6FF30A02D21C019204E095
:10A0E000019A6FF30A02019200BF00BF019B8A69C7
:10A0F0001360009A22F4807202F5807200920A695D
:10A100005268009B9A431A430B695A600EBDFCB516
:10A110000246002000240025019500954D78012D70
:10A1200052D193691D6801951D6900954D6955B916
:10A13000009D25F07F050095009D25F4002505F57F
:10A140000025009516E08E684D69B54207D98D68E7
:10A150004D610E7A009D66F30605009504E00E7DC4
:10A16000009D66F306050095009D25F4002505F584
:10A1700000250095009D1D61D578012D06D10F7831
:10A1800002F1180555F827500E696E61019D25F002
:10A19000806505F180650195019D25F0004505F17B
:10A1A00000450195019D1D60D578002D59D14D695F
:10A1B000002D56D00E780125B5402C4315696D6BE6
:10A1C0002543166975634CE00E7802F1540555F885
:10A1D00026502D6801950E7802F1540555F8265049
:10A1E0002D6900954D695DB90E7A009D66F30605EF
:10A1F0000095009D25F4002505F5002500950CE04F
:10A200008D684D610E7A009D66F306050095009DF0
:10A2100025F4002505F5002500950F7802F1540579
:10A2200055F82750009E2E61D578012D06D10F7864
:10A2300002F1540555F827500E696E61019D25F015
:10A24000806505F180650195019D25F0004505F1CA
:10A25000004501950F7802F1540555F82750019EED
:10A260002E60FCBD0CB500210191019921F0C04187
:10A2700001F1C0410191019921F4002101F5002172
:10A280000191019921F07F0118310191019A416DED
:10A290000A61C178012915D10021009100F2CC5149
:10A2A000426D5161416D09680091009921F00041B2
:10A2B00001F1004100914FF080210091009A416D21
:10A2C0000A6000BF0CBD3CB502460020002401948A
:10A2D00000944C78012C0CD10D7802F1180454F83C
:10A2E00025300D780124AC40009D64F30F050095E6
:10A2F0000BE00D7802F1540454F825300D78012458
:10A30000AC40009D64F31F4500951C680194019CBE
:10A31000C4F3C034E4B90D89019C65F30A040194C7
:10A32000CD78019C65F3934401948D79019C65F38C
:10A3300099540194019C24F0805404F180540194B8
:10A34000019C24F4004404F500440194019C1C6029
:10A350001469E469009D2C431569EC613CBD38B576
:10A3600003460020002400944C78012C05D10D7880
:10A3700003F1180454F8252004E00D7803F1540487
:10A3800054F8252014680094009C24F400140094D0
:10A39000CC78032C02D0CC78022C05D1009C24F080
:10A3A000805404F180540094009C146038BD38B58A
:10A3B00003460A460020002400945478012C18D14A
:10A3C000157803F1180454F825100C680094009CCB
:10A3D000E40F2CB1009C24F0804404F180440094EC
:10A3E000009C24F4001404F500140094009C0C60FC
:10A3F0000EE0157803F1540454F825100C6800940D
:10A40000009C24F4001404F500140094009C0C60DB
:10A4100038BDFEB505460C460026002700200290F8
:10A420000190607801287ED1217805F1180050F85C
:10A43000210000680290217805F1180050F82100F1
:10A4400000690190606948B901986FF312000190AA
:10A450000121019861F3DC40019017E061690198E6
:10A4600061F3120001906069401EA1680844B0FBCE
:10A47000F1F1019861F3DC400190E078012805D109
:10A48000019820F0C04000F100500190227805F1C1
:10A49000180050F8220001990161E878012807D1DD
:10A4A000227805F1180050F82200216941610DE081
:10A4B000E07801280AD0606940B12178012000FAD3
:10A4C00001F72869406B384329694863E07801281F
:10A4D00013D12869806800900098C0F3002030B93B
:10A4E000029820F0005000F10050029005E0029820
:10A4F00020F0805000F180500290029820F080609F
:10A5000000F180600290029820F0004000F10040CD
:10A510000290227805F1180050F82200029901609B
:10A52000E078012800E008E070D1A08A83B22278A8
:10A530002846E16800F0F9F868E0217805F1540058
:10A5400050F8210000680290217805F1540050F87D
:10A55000210000690190606950B9A168019861F318
:10A56000120001900121019861F3DC40019017E095
:10A57000A068401E61690844A168B0FBF1F1019830
:10A5800061F3DC4001900198C0F3C940A1684843E1
:10A59000019960F3120101910198C0F3120060610A
:10A5A000227805F1540050F8220001990161E87801
:10A5B000012806D1227805F1540050F822002169C3
:10A5C0004161E07801280ED1607930B1029820F025
:10A5D000005000F10050029005E0029820F08050F9
:10A5E00000F180500290029820F0806000F18060BD
:10A5F0000290029820F0004000F100400290227882
:10A6000005F1540050F82200029901603046FEBD69
:10A61000F8B504460D46002600270020009000985B
:10A6200020F0200020300090009865F38A10009000
:10A630000098E168086100BFE06800690090781C3C
:10A6400007460749884200D904E00098C0F340104B
:10A650000028F1D100BF0320FFF710FD3046F8BD00
:10A66000400D030008B5014600200A699268009277
:10A67000009AC2F3410232B1012A06D0022A07D061
:10A68000032A07D102E0032006E000BF022003E016
:10A69000012001E0022000BF00BF08BD0146C868DC
:10A6A000406900F00100704700B502461046FFF710
:10A6B000F5FF012801D0012000BD0020FCE7014684
:10A6C0000020CA685069CA68926910407047014604
:10A6D000086982690869C069024090B27047014602
:10A6E000086982690869C0690240100C7047024617
:10A6F00002F1540353F82130986813695B691840DC
:10A700007047F0B503460024D01CC71700EB9777BD
:10A71000BD10D3F8D06000BF03E030680860091DA9
:10A72000641CAC42F9D30846F0BD2DE9F041044663
:10A730000026E078B0B900270020DD1C4FEAE5785C
:10A7400005EB98784FEAA80704F1D00555F822C028
:10A7500000BF04E00D68CCF80050091D401CB84251
:10A76000F8D300BF3046BDE8F08100BFFEE700002F
:10A7700070B505460C4600260DB1022C01D800200C
:10A7800070BDA11E094802882846FBF715FF064642
:10A79000F1B2A01E285C814206D1601E285CB0EB9D
:10A7A000162F01D10120EBE70020E9E73AB30020A2
:10A7B00070B505460C4600260DB1022C01D80020CC
:10A7C00070BD611EFF222846FBF710FF0646601E83
:10A7D000285CB04201D10120F2E70020F0E7704789
:10A7E0000FB4054B10B503A9044A029801F09AF979
:10A7F00010BC5DF814FB00004D010108DCB3002023
:10A800000FB4084B10B504A902AA039801F08AF905
:10A81000044602A9002001F01CFD204610BC5DF892
:10A8200014FB000053C2000803B4019841000098D3
:10A8300050EAC12018BF04204A0D18BF40F00100A3
:10A8400040F2FF72B2EB515F08BF40F002000128F6
:10A8500008BF052002B070474100080218BF04205D
:10A860000A0E18BF40F001004FF07F4232EA0101AA
:10A8700008BF40F00200012808BF05207047000013
:10A8800070B59B482DED020B2DED068B079D25F035
:10A890000044A04218DC9748844202DC0AD10698A2
:10A8A00040B19DED060BBDEC068B02B0BDE87040DB
:10A8B00000F07EBF002DCCBF9FED8F0B9FED900B66
:10A8C000BDEC068B02B070BD8F48A04215DD8F48ED
:10A8D000A042D8BF4FF0FF3458DD9DED060B51EC80
:10A8E000100BFFF7A1FF042808BF00F07DFF9DEDCE
:10A8F000060BBDEC068B02B070BD9DED060B51EC56
:10A90000100B05F0C1F8CDE9060181489FED828B5F
:10A91000A0423CDD8248A0421FDD00249FED82ABB7
:10A920009DED060B53EC1A2B51EC100BF6F770F95A
:10A930009DED060B41EC190B53EC1A2B51EC100B4F
:10A94000F6F70DFA53EC182BF6F703FA53EC192B24
:10A95000F6F777FACDE9060149E09DED060B0124F3
:10A9600053EC182B51EC100BF6F752F99DED060B3A
:10A9700041EC190B53EC182B51EC100BF6F7E9F9DD
:10A9800053EC192BF6F75DFACDE906012FE0684884
:10A99000A0421FDD02249FED689B9DED060B53EC4A
:10A9A000192B51EC100BF6F7DAF953EC182BF6F7DC
:10A9B0002FF99DED060B41EC180B53EC192B51ECC4
:10A9C000100BF6F7C6F953EC182BF6F73AFACDE967
:10A9D00006010CE09DED060B032453EC102B9FEDBC
:10A9E000580B51EC100BF6F72CFACDE906019DED52
:10A9F000060B53EC102B51EC100BF6F7B0F941ECB1
:10AA0000180B53EC182BF6F7AAF941EC190B4E482A
:10AA10000621B0EE490AF0EE690A784400F0B4FD70
:10AA200053EC182B51EC100BF6F799F941EC180B7D
:10AA30004648B0EE490AF0EE690A0521784400F074
:10AA4000A3FD53EC192B51EC100BF6F788F941ECF0
:10AA5000100B51EC180B53EC102B002C0EDAF6F700
:10AA6000D7F89DED061B53EC112BF6F778F99DED09
:10AA7000061B53EC112BF6F76FF935E0F6F7C8F823
:10AA80009DED061B53EC112BF6F769F941EC100B09
:10AA90002F48784400EBC40090ED001B51EC100BE4
:10AAA00053EC112BF6F755F99DED061B53EC112BCA
:10AAB000F6F74FF941EC100B2648784400EBC40040
:10AAC00090ED001B51EC100B53EC112BF6F744F9F1
:10AAD00041EC100B002DA2BFBDEC068B02B070BD87
:10AAE00051EC100B81F0004141EC100B01E700002C
:10AAF000000010440000F07F182D4454FB21F93F62
:10AB0000182D4454FB21F9BF0000DC3F0000203E1B
:10AB10000000F33F00000000000000000000F03FD4
:10AB20000000E63F000000000000000000000040C0
:10AB30000080034000000000000000000000F83F1B
:10AB4000000000000000F0BFDA25010090250100A0
:10AB50001A250100D224010010B52F499FED2C1BAE
:10AB60002DED020B84B0059820F000408842D8BF3C
:10AB70009DED040B2DDD2949884209D1049840B987
:10AB80004FF0010000F00EFF00F01EFE06B010BDF9
:10AB900005DB9DED040B00F00BFE06B010BD684612
:10ABA0009DED040B00F01CFA10F0030004BF9DEDB6
:10ABB000021B9DED000B0CD001280ED09DED021B59
:10ABC0009DED000B022817D0012000F059FD06B0C2
:10ABD00010BD00F021FC06B010BD9DED021B9DEDE7
:10ABE000000B012000F04CFD51EC100B81F00041F6
:10ABF00006B041EC100B10BD00F00EFC51EC100B38
:10AC000081F0004106B041EC100B10BD00000000C7
:10AC10000000000000000000FB21E93F0000F07F81
:10AC200010EE101A08B5444A6846B2EB410F28D915
:10AC30004FF0E640B0EB410F94BF00204FF0FF30E3
:10AC400000900098002861DB60EE000A10F0010F10
:10AC500045D010F0020FDFED391A9FED391A00EEE2
:10AC6000E11ADFED381A40EE811A21EEA01AF0EE5B
:10AC7000400A40EE010A08BFF1EE600AB0EE600A39
:10AC800008BD314B21F0004293423CD911F0004FF6
:10AC9000DFED2E0A20EE201ADFED2D0A19BF31EE6E
:10ACA000601A71EE200A31EE201A71EE600ABDEED4
:10ACB000E01A11EE100A9FED271A00F0030000EED3
:10ACC000C10A9FED251A009000EEC10A9FED231ADC
:10ACD00000EEC10A9FED221A00EEC10AB1E79FED16
:10ACE000211A9FED210A10F0020F00EE810A9FED5C
:10ACF0001F1A00EE801AB7EE000A00EE810A18BF94
:10AD0000B1EE400A08BD00F093FD9AE710EE100A7C
:10AD10004000B0F17F4F3CBFB7EE000A08BD07D13D
:10AD20004FF0010000F03EFEBDE8084000F070BDAD
:10AD3000BDE8084000F068BDB61F927E336D4C3907
:10AD4000DA82083CA0AA2ABE490E494683F9223F6E
:10AD50000000004B0000C93F00A0FD390020A233D5
:10AD60001A61342CB93AB2BACA9F2A3DDDFFFFBE40
:10AD70002DED020B019820F0004001909DED000B9D
:10AD800002B070470000000010B52F499FED2C1B4A
:10AD90002DED020B84B0059820F000408842DCBF06
:10ADA00000209DED040B32DD2849884209D104982A
:10ADB00040B94FF0010000F0F5FD00F005FD06B0D0
:10ADC00010BD05DB9DED040B00F0F2FC06B010BDDC
:10ADD00068469DED040B00F003F910F0030011D05C
:10ADE000012818D09DED021B9DED000B02281AD002
:10ADF00000F012FB51EC100B81F0004106B041EC69
:10AE0000100B10BD9DED021B9DED000B012000F00D
:10AE100037FC06B010BD9DED021B9DED000B00F050
:10AE2000FBFA06B010BD012000F02AFC51EC100B1B
:10AE300081F0004106B041EC100B10BD0000000095
:10AE40000000000000000000FB21E93F0000F07F4F
:10AE500000B510EE101A2DED028B81B0524A6846F3
:10AE6000B2EB410F2ED94FF0E640B0EB410F94BF4B
:10AE700000204FF0FF3000900098B0EE408A00288C
:10AE80006ADB10F0010F4BD068EE080A9FED471AFD
:10AE90009FED470A00EE810A9FED461A10F0020F5F
:10AEA00000EE801AB7EE000A00EE810A02BF01B080
:10AEB000BDEC028B00BD00BF01B0B1EE400ABDEC9D
:10AEC000028B00BD3C4B21F00042934241D911F06E
:10AED000004FDFED3A0A20EE201ADFED390A19BFE4
:10AEE00031EE601A71EE200A31EE201A71EE600A1E
:10AEF000BDEEE01A11EE100A9FED321A00F00300C9
:10AF000000EEC10A9FED301A009000EEC10A9FEDDD
:10AF10002F1A00EEC10A9FED2E1A00EEC10AABE710
:10AF200028EE080A9FED2B1ADFED2B0A10F0020F16
:10AF300040EE410A9FED291A00EE201A61EE000A48
:10AF4000B0EE480A08EE200AB6D101B0BDEC028B83
:10AF500000BD00F06DFC8FE718EE100A4000B0F164
:10AF60007F4F0DD218EE100AFFF776FC042808BFB9
:10AF700000F056FCB0EE480A01B0BDEC028B00BDFB
:10AF800009D1012000F00EFD01B0BDEC028B5DF88F
:10AF900004EB00F03DBC01B0B0EE480ABDEC028B02
:10AFA0005DF804EB00F030BCB61F927EB93AB2BA3D
:10AFB000CA9F2A3DDDFFFFBE490E494683F9223F65
:10AFC0000000004B0000C93F00A0FD390020A23363
:10AFD0001A61342C336D4C39DA82083CA0AA2ABE9F
:10AFE0002DE9F14F04462DED020B2DED088B8AB0B3
:10AFF0009FEDE70B80ED020B139EE74826F000451E
:10B0000085420ADC9DED120B002084ED000B0AB096
:10B01000BDEC088B03B0BDE8F08FE0489FEDE0ABDE
:10B020009FEDE1BBA84247DDE14F9FEDE39B9FED24
:10B03000E48B9DED120B53EC1A2B51EC100B002EF0
:10B040001CDDF5F786FE41EC100BBD4208D053EC39
:10B050001B2B51EC100BF5F77CFEC4E900010BE053
:10B0600053EC192B51EC100BF5F773FE53EC182B26
:10B07000F5F76FFEC4E900010120C8E7F5F7C8FD48
:10B0800041EC100BBD4208D053EC1B2B51EC100BC4
:10B09000F5F7BEFDC4E900010BE053EC192B51ECB0
:10B0A000100BF5F7B5FD53EC182BF5F7B1FDC4E91E
:10B0B00000014FF0FF30AAE7C348A84279DB9DEDBD
:10B0C000120B51EC100B04F0DFFC41EC180B9FED60
:10B0D000C00B53EC102BF5F742FE9FEDBF1B53EC5A
:10B0E000112BF5F795FDF6F711FC0746F5F718FF5C
:10B0F00041EC190B53EC1A2BF5F731FE53EC182BDE
:10B10000F5F72AFE41EC180B53EC1B2B51EC190BF5
:10B11000F5F725FEDFF8C8A241EC100B4FEA1558F1
:10B120000125FA4453EC102B51EC180BF5F711FEE6
:10B13000032DC4E900013DD0C1F30A5005EB4511D0
:10B14000A8EB00001139814234DA0AEB051BB0EE9E
:10B1500048AA9BED000BF0EE68AA53EC102B51ECC3
:10B16000190BF5F7FCFD41EC1B0B51EC1A0B53ECE2
:10B170001B2BF5F7EEFD41EC180B51EC1A0B53ECC1
:10B18000182BF5F7E6FD53EC1B2BF5F7E2FD9BEDD5
:10B19000020B41EC1A0B53EC102B51EC190BF5F789
:10B1A000DEFD53EC1A2BF5F7D4FD41EC100B6D1CB2
:10B1B000B8E70EE0002EA8BF3846BFF628AF94EDE2
:10B1C000000B51EC100B81F00041C4E90001784202
:10B1D0001DE7C6F3130040F4801EC6F30A50A0F228
:10B1E000F530471100F01F05C5F12000DDF848B02B
:10B1F00008900020069007900520EC467949002D24
:10B2000007EB0002794408BF51F8221009D051F829
:10B21000223001EB8201AB404A68089922FA01F121
:10B220001943A1FB0E26A1FB0B131A449A4234BF0B
:10B230000123002303EB06080CEB8003D3E901A6EE
:10B240000E448E4234BF0121002192448A4411B140
:10B25000924502D903E0924501D2012100E000218C
:10B26000C3E901A641444CF82010011EA0F10100E1
:10B27000C4DC029800F10050850F0298DDE90367F5
:10B280008000DDF81480F5F74BFE41EC1A0B3046D8
:10B29000F5F757FE9FED541B53EC112BF5F75FFDAF
:10B2A00041EC1B0B3846F5F74CFE9FED511B53EC60
:10B2B000112BF5F754FD41EC180B4046F5F741FE14
:10B2C0009FED4D1B53EC112BF5F749FD41EC190B8C
:10B2D00051EC180B53EC192BF5F79AFC53EC1B2B84
:10B2E000F5F796FC53EC1A2BF5F792FCCDE9080123
:10B2F000002008909DED080B53EC1A2B51EC100B1D
:10B30000F5F727FD53EC1B2BF5F723FD53EC182B1A
:10B31000F5F71FFD53EC192BF5F71EFD9FED381BBC
:10B3200053EC112BF5F71BFD9FED370B41EC180B80
:10B3300053EC102B9DED080B51EC100BF5F70FFDA6
:10B3400053EC182BF5F764FC9FED310B41EC180B17
:10B3500053EC102B9DED080B51EC100BF5F7FFFC97
:10B3600053EC182BF5F754FC41EC100B139810F02C
:10B37000004F06D06D4251EC100B81F0004141ECC2
:10B38000100B284684ED000B41E600000000000091
:10B390000000000000000000FB21E93F7CD90240D2
:10B3A00000004054FB21F93F3163621A61B4D03D83
:10B3B000FB21F93F000000000000601A61B4D03D9D
:10B3C0007370032E8A19A33BFB2139410000000052
:10B3D00083C8C96D305FE43F000000000000E03F1B
:10B3E000321F0100801E0100000000000000103E1E
:10B3F000000000000000103C000000000000103AB7
:10B40000182D4454FB21F93D3326A611460B113C5F
:10B4100000000054FB21F93D10B52DED040B2DED7E
:10B42000088B82B0B0EE419AF0EE619A0B9820F052
:10B4300000449FED4BABB4F1795F11DA9DED0A0B3F
:10B4400051EC100BF6F762FA002801BFB0EE4A0A81
:10B45000F0EE6A0A02B0BDEC088B04BF04B010BD68
:10B460009DED0A0B53EC102B51EC100BF5F777FC0C
:10B4700041EC180B3C480621B0EE480AF0EE680A91
:10B48000784400F081F853EC182B51EC100BF5F7D1
:10B4900066FC9DED0A0B41EC1B0B53EC192B51EC98
:10B4A000100BF5F75CFC41EC190B53EC1B2B51EC2A
:10B4B000180BF5F754FC53EC192BF5F74AFC9FEDEC
:10B4C0002C0B41EC190B53EC102B51EC180BF5F72E
:10B4D00046FC41EC100B2848844210DA53EC192B3F
:10B4E00051EC100BF5F735FC53EC1A2BF5F734FC47
:10B4F00041EC100B02B0BDEC088B04B010BD1F482E
:10B50000A042BCBF9FED1E1B8DED001B06DBA4F50A
:10B5100000100190002000909DED001B51EC100BDD
:10B5200053EC112BF5F715FC9DED000B41EC180BBE
:10B5300053EC102B51EC1A0BF5F70BFC41EC1A0BEA
:10B5400053EC192B51EC180BF5F703FC53EC1A2BA9
:10B55000F5F702FC41EC100BCCE700000000000006
:10B56000000000000000F03FA41B010000000000EC
:10B57000000000000000E03F3333D33F0000E93F0C
:10B58000000000000000D23F70B504462DED028B94
:10B590004D1E00EBC500B0EE408AF0EE608A90EDE3
:10B5A000000B35F0060017D053EC182B51EC100BA4
:10B5B000F5F7D5FB41EC100B6D1E04EBC50090EDCB
:10B5C000001B51EC100B53EC112BF5F721FB41EC58
:10B5D000100B35F00600E7D1022D36D0042D1CD01B
:10B5E000062D1CBFBDEC028B70BD53EC182B51EC2B
:10B5F000100BF5F7B4FB94ED0A1B53EC112BF5F788
:10B6000007FB53EC182BF5F7AAFB94ED081B53EC42
:10B61000112BF5F7FDFA41EC100B53EC182B51EC04
:10B62000100BF5F79CFB94ED061B53EC112BF5F773
:10B63000EFFA53EC182BF5F792FB94ED040B53EC57
:10B64000102BF5F7E5FA41EC100B53EC182B51ECED
:10B65000100BF5F784FB94ED021B53EC112BF5F75F
:10B66000D7FA53EC182BF5F77AFB94ED001B53EC4B
:10B67000112BF5F7CDFABDEC028B41EC100B70BD30
:10B6800031B504462DED040B2DED0A8BB0EE41BA19
:10B69000F0EE61BA0B989DED0A0B20F00040B0F17E
:10B6A000795F0DDA51EC100BFFF7BEF8042808BFE4
:10B6B00000F09AF89DED0A0BBDEC0A8B05B030BD89
:10B6C00053EC102B51EC100BF5F749FB41EC180B28
:10B6D0009DED0A0B53EC182B51EC100BF5F73FFBCB
:10B6E00041EC190B2C48B0EE480AF0EE680A05212F
:10B6F0007844FFF749FF9FED2ACBB0EE40AAF0EE69
:10B7000060AA9CB353EC1C2B51EC190BF5F727FBEB
:10B7100041EC1C0B53EC1A2B51EC190BF5F71FFBEA
:10B720009FED210B41EC190B53EC102B51EC1B0B33
:10B73000F5F715FB53EC192BF5F70BFB53EC182B16
:10B74000F5F70DFB53EC1B2BF5F703FB53EC1C2B10
:10B75000F5F7FFFA9DED0A1B53EC112BF5F7FCFAF8
:10B76000BDEC0A8B05B041EC100B30BDFFE753EC8C
:10B770001A2B51EC180BF5F7F2FA53EC1C2BF5F7DA
:10B7800047FA53EC192BF5F7EAFA9DED0A1B53EC37
:10B79000112BF5F73DFAE3E74C1A01000000000019
:10B7A000495555555555C5BF000000000000E03F04
:10B7B00010B553EC102B51EC100BF5F729FA41ECB6
:10B7C000100B10BD000000009FED050B10B553ECF1
:10B7D000102B51EC100BF5F734FB41EC100B10BDA6
:10B7E00000000000000000009FED050B10B553ECB9
:10B7F000102B51EC100BF5F7B2FA41EC100B10BD09
:10B80000000000000000001030EE000A7047000049
:10B81000DFED020A80EEA00A704700000000000081
:10B820009FED020A20EE000A7047000000000010A1
:10B830002DE9F0014FF07F42B2EB410F9FBF4FF077
:10B84000FF310160BDE8F00170474FF0004242EA6D
:10B850000123C1F3C752783A551112F01F0C434C23
:10B86000CCF120067C44C1F3C752A2F178024FEA22
:10B87000621204EB820254F8254008BFD2E9015657
:10B8800012D0556804FA0CF425FA06F73C43976881
:10B8900005FA0CF527FA06F8D26807FA0CFCF24014
:10B8A00045EA08054CEA0206A4FB034CA5FB03523B
:10B8B000A6FB03631D449D4234BF012600261319D5
:10B8C000334416B1934202D903E0934201D20122DC
:10B8D00000E00022624402F1200C9206DC0C42EAF5
:10B8E000443200EE102A5B03DFED210AF8EEC01AA5
:10B8F00000EE103A4FEA9C1C11F0004FB8EE400ADF
:10B90000C0F800C020EE201A00EE105ADFED190A30
:10B91000B8EE400A20EE200A71EE810A70EE800A2D
:10B9200010EE902A02F500626FF30B0200EE902AEF
:10B9300070EEE11A31EEC11ADFED101A30EE411A45
:10B940009FED0D0A20EE800A01EE210A9FED0C1AF0
:10B9500000EE810A04BFBDE8F0017047CCF18051D0
:10B960000160BDE8F001B1EE400A7047B81801006F
:10B97000000000360000802C22AAFD29DB0FC92F11
:10B980000000C92F02E008C8121F08C1002AFAD11E
:10B9900070477047002001E001C1121F002AFBD14F
:10B9A000704700000149086070470000CCB40020D7
:10B9B0002DE9FF5FDDE90220010DDDF838B002431B
:10B9C00018D044F61050A1F2FF3141430D140F98E6
:10B9D000012820D0A5EB0B00401C5FEA000A4FF0C5
:10B9E0000004474EDFF81C91A046504616D5CAF118
:10B9F000000728E00F98012443A2012808D0002165
:10BA000000980F9BC0E90021C0E90243BDE8FF9FF9
:10BA10006FEA0B01F4E7CBF10000DEE7074612E026
:10BA2000F80707D02246334640464946F5F797F9CE
:10BA3000804689462246334610461946F5F78FF967
:10BA400004460E467F10002FEAD1DDE90201BAF16B
:10BA5000000F42464B4602DAF5F781F901E0F5F7AF
:10BA6000F0F904460E460022284BF5F7A3FA03D856
:10BA70004FF0FF30014607E00022254B20463146BB
:10BA8000F5F7C6F8F5F76EFD102409E0002C0ADB87
:10BA90000A220023F5F7D8FA019B30321A55641EAA
:10BAA00050EA0102F2D1641C019AC4F1110314445A
:10BAB0000F9A012A03D0012208430DD10AE008435E
:10BAC00004D000204FF0110B0F9080E7A3EB0B0583
:10BAD0006D1E0DE05B4504DD4FF0000205F1010530
:10BAE00004E003DA4FF00002A5F10105002AECD0D2
:10BAF00000980F99C0E90231C0E9004586E70000CF
:10BB0000000024400000F03F300000000000F0433F
:10BB10000000E03F30380A2801D2012070470020A1
:10BB2000704700002DE9FF4F95B09B4689460646B9
:10BB300000250FE2252877D100242746F84A012165
:10BB4000059400E0044316F8013F203B01FA03F09E
:10BB50001042F7D130782A2811D06FF02F033078B7
:10BB6000A0F13002092A16D8059A44F0020402EB2B
:10BB7000820203EB42021044761C0590EFE759F86D
:10BB8000042B0592002A03DA504244F40054059035
:10BB900044F00204761C30782E2816D116F8010FD6
:10BBA00044F004042A280DD06FF02F023078A0F161
:10BBB0003003092B09D807EB870302EB4303C718AF
:10BBC000761CF3E759F8047B761C30786C280FD08C
:10BBD00006DC4C2817D068280DD06A2814D104E060
:10BBE000742810D07A280FD10DE044F400140AE034
:10BBF00044F4801401E044F440147278824202D18B
:10BC000004F58014761C761C307866280BD013DC83
:10BC1000582877D009DC002875D04528F6D046286A
:10BC2000F4D047281AD19DE118E0632835D0642864
:10BC300079D0652812D195E1702873D008DC672887
:10BC4000F1D069286FD06E280DD06F2806D1B5E0ED
:10BC500073282CD0752875D0782874D05A46179937
:10BC600090476D1C75E1C4F30250022809D00328E7
:10BC70000DD0D9F8001004280DD00D6009F1040989
:10BC800067E1D9F80010EA17C1E90052F6E7D9F8E0
:10BC900000100D80F2E70D70F0E719F8041B8DF825
:10BCA000001000208DF80100EA46012003E059F859
:10BCB00004AB4FF0FF3061074FF0000102D40DE0FC
:10BCC00008F101018846B9420FDA8045F8DB1AF81D
:10BCD00008100029F4D108E008F1010188468142EA
:10BCE000FADB1AF808100029F6D105985B46A0EB9C
:10BCF000080721463846179A00F094FA284400EBCA
:10BD0000080507E04DE029E10DE01AF8010B5A465D
:10BD100017999047B8F10108F7D25B46214638469B
:10BD2000179A13E142E00A220092C4F302524FF044
:10BD3000000A022A08D059F804CB032A4FEAEC7112
:10BD40000AD00DE029E02AE009F1070121F00702FD
:10BD5000F2E802C1914609E00FFA8CFC4FEAEC715F
:10BD6000042A03D14FFA8CFC4FEAEC71002907DA60
:10BD70000A460021DCF1000C61EB02012D2202E0F9
:10BD8000220504D52B228DF80420012203E0E207CE
:10BD900001D02022F7E7904659E00A2102E0102264
:10BDA0000DE010214FF0000A00910BE010224FF03F
:10BDB000000A44F004040827009203E008224FF030
:10BDC000000A0092C4F30252022A05D059F804CBAB
:10BDD0000021032A08D009E009F1070121F0070238
:10BDE000F2E802C1914605E01FFA8CFC042A01D159
:10BDF0000CF0FF0C4FF00008220728D5702806D061
:10BE0000009B83F0100353EA0A0305D00EE04022A2
:10BE10008DF80420012208E05CEA010206D03022FD
:10BE20008DF804208DF8050002229046009B83F0D7
:10BE3000080353EA0A030AD15CEA010201D162074E
:10BE400005D530228DF804204FF001087F1E5828B8
:10BE500004D034A003900EA802900DE036A0F9E7BC
:10BE600053466046009AF5F7EFF884460398825CE3
:10BE70000298401E029002705CEA0100F0D1029824
:10BE800006A9081A00F1200A600702D524F48034BC
:10BE900000E00127574502DDA7EB0A0000E0002083
:10BEA00000EB0A01009005984144401A0590E00318
:10BEB00006D45B462146179A059800F0B3F905446D
:10BEC000002706E001A85A46C05D179990476D1CEF
:10BED0007F1C4745F6DBE0030CD55B462146179AED
:10BEE000059800F09FF9054404E030205A46179960
:10BEF00090476D1C0099481E00900029F5DC08E071
:10BF0000029802995A460078491C02911799904765
:10BF10006D1CBAF10001AAF1010AF1DC65E1000033
:10BF2000092801003031323334353637383961620F
:10BF300063646566000000003031323334353637D3
:10BF400038394142434445460000000000F058F9AA
:10BF50000544761C307800287FF4ECAD19B02846F3
:10BF6000BDE8F08F620700D4062709F1070222F02E
:10BF7000070CFCE80223E14603F000485FEA080CE6
:10BF800002D00FF2702C0DE05FEA045C02D50FF2D4
:10BF9000682C07E05FEAC47C02D00FF2602C01E05D
:10BFA000AFF2700C4FF0FF3823F00043CDF850C0D3
:10BFB00065280CD006DC452809D046281DD0472826
:10BFC0003DD13DE0662818D067287ED138E00021B9
:10BFD000112F01DB112000E0781CCDE9000106A93A
:10BFE0000EA8FFF7E5FCDDE90F010E9A0391002191
:10BFF000009207F1010A04914DE04FF000400097D4
:10C00000CDE9011006A90EA8FFF7D2FCDDE90F0269
:10C0100003920E9B11990022DDF80CA0009304926C
:10C0200011B9791C00EB010AB7EB0A0004D4C0F186
:10C03000FF3007F1010A0490AAEB0700019044E0E9
:10C04000012F00DA01270021112F01DD112000E06E
:10C050003846CDE9000106A90EA8FFF7A9FCDDE9E5
:10C060000F010E9A0391002104910092BA46210714
:10C070000CD40399514500DA8A46BAF1010F05DD67
:10C08000009AAAF10101515C302908D0B84202DAC5
:10C0900010F1040F06DA0121CDE9011015E0AAF133
:10C0A0000101E9E7002805DC049901440491AAEBA9
:10C0B000000102E0411C514500DD8A460499401A06
:10C0C000401C01904FF000400290200704D40198DA
:10C0D000504501DBCDF8048000208DF84F00029818
:10C0E0000DF14F07B0F1004F25D02B200E90029894
:10C0F0004FF0020800280CDA404202902D200E90EA
:10C1000007E00A210298F4F789FF3031029007F81E
:10C11000011DB8F10001A8F10108F2DC0298002825
:10C12000EFD1791E0E980870307800F0200040F0B2
:10C13000450007F8020D12A8C01B00F1070814986B
:10C14000007800B1012000EB0A01019801EBE071D9
:10C1500005984144401A401E0590E00306D45B4612
:10C160002146179A059800F05DF805441498007868
:10C1700018B15A46179990476D1CE00324D55B46C9
:10C180002146179A059800F04DF805441CE00498E4
:10C19000002807DBDDE90301884203DD0098405CED
:10C1A000179901E0179930205A469047049805F1F5
:10C1B0000105401C04900198401E019004D12E20DE
:10C1C0005A46179990476D1CBAF10001AAF1010A6D
:10C1D000DDDC05E017F8010B5A46179990476D1CF6
:10C1E000B8F10001A8F10108F4DC5B462146179A7A
:10C1F0000598ABE62D0000002B0000002000000099
:10C200002DE9F041044600251E461746880404D453
:10C2100005E039462020B0476D1C641EF9D528463C
:10C22000BDE8F0812DE9F041044600251E46904608
:10C23000C80301D5302700E02027880404D505E095
:10C2400041463846B0476D1C641EF9D52846BDE806
:10C25000F0810A68531C0B601070704700B59BB0EA
:10C2600001214448FAF7B4FA01210802FAF7D0FA9A
:10C270000020009040480190404802900020039028
:10C2800028200490002005904FF480600690400024
:10C2900007900890C010099040020A9000200B906F
:10C2A00001200C9000200D900E9069463448F9F75B
:10C2B000BBFA01213248F9F7B7F903208DF868007D
:10C2C0000F20199000208DF86B0019A92D48FAF75E
:10C2D00035F8002015904FF480401790800016909C
:10C2E0004FF47060189015A8F5F77AFB00200F90B6
:10C2F00001208DF840008DF841000020119013902E
:10C3000004208DF850000FA91B484C38F5F796FB18
:10C31000062301220A2118484C38F5F7B9FB0623F9
:10C3200002220B2114484C38F5F7B2FB06230322F6
:10C330000C2111484C38F5F7ABFB062304220D21E4
:10C340000D484C38F5F7A4FB01210B484C38F5F7A4
:10C350006AFB012108484C38F5F75AFB01210648D1
:10C360004C38F5F732FB04484C38F5F7EDFB1BB0C1
:10C3700000BD0000040040004C200140FCC400202F
:10C38000106402400008024010B504460020124923
:10C3900008604FF44070FAF709FA0EF0D3FC0E492A
:10C3A000086001F0A5FD01F05FFC02F06FF909F0F3
:10C3B000D7FB06F07DFB09F097FD02F019FC0BF0AE
:10C3C0005DFC0DF07DFF05F09FFB0CF0BBFA00203B
:10C3D0000DF0C8FD10BD0000A8A3002070B50446F4
:10C3E0000D46002604FB05F0A0B104FB05F006F0A5
:10C3F0005DFF06460848006804FB05000649086022
:10C400000846006805490968884203D9024800685F
:10C4100002490860304670BDB0B40020B4B40020BA
:10C4200010B502460B4602FB03F0C01C8108094808
:10C4300000680844B0F5205F04D806480068084446
:10C44000044C20600448034C246800EB8400A0EBFB
:10C45000810010BDB8B400201803002070B5044658
:10C460000E46154644B1204603F07EFE03480068A0
:10C4700006FB15000149086070BD0000B0B4002043
:10C4800010B504460020E0716071E07120729FEDEC
:10C490000C0A84ED040A207620706070A070E070B1
:10C4A00004F0E8FD002001F025F900200AF08AFFE1
:10C4B000002002F0A1FB002108460EF05DF810BD3F
:10C4C0000000000010B511480079062818D2DFE8F6
:10C4D00000F01703070B0F130D480E4908600FE01B
:10C4E0000D480C4908600BE00C480A49086007E059
:10C4F0000B480849086003E00A480649086000BF85
:10C5000000BF04480068FFF7BBFF10BD9CC00020BF
:10C51000F0B40020E4A3002030B50020D0B4002007
:10C5200010B5002050B5002010B506F063FBC0B177
:10C530000E480079062813D2DFE800F0120306093E
:10C540000C0F05F03DFB0BE00CF004FF08E000F0E1
:10C5500011F805E009F01AFF02E00DF0BDFA00BF86
:10C5600003E003480068FFF78BFF10BD9CC000206C
:10C57000E4A3002010B500F02FF81648C07918B3D6
:10C580001448007E10B900F0C1FB21E01148007E84
:10C5900001281AD10F48C079012808D0022809D0F3
:10C5A00003280AD004280BD100F020FB0CE000F097
:10C5B00055F909E000F09CF806E000F09BF803E074
:10C5C0000448FFF75DFF00BF02E00248FFF758FF95
:10C5D00010BD0000D0B400203D48407A002870D043
:10C5E0003C48007840B33C4890ED140ADFED3B0A2C
:10C5F000B4EEE00AF1EE10FA08D290ED140ADFED85
:10C60000380A30EE200A80ED140A3DE0324890ED01
:10C61000140ADFED320AB4EEE00AF1EE10FA33DD6F
:10C6200090ED140ADFED2E0A30EE600A80ED140A58
:10C6300000202849087027E0274890ED140ADFED14
:10C64000290AB4EEE00AF1EE10FA08DD90ED140AC2
:10C65000DFED230A30EE600A80ED140A14E01E4874
:10C6600090ED140ADFED1F0AB4EEE00AF1EE10FAC5
:10C670000AD290ED140ADFED1A0A30EE200A80ED9E
:10C68000140A012013490870114890ED030AF1EED5
:10C69000080AB4EEE00AF1EE10FA07DD9FED120A87
:10C6A0000D4880ED140A002009494872084890EDB1
:10C6B000030ADFED0E0A30EE200A80ED030A05E0E2
:10C6C000FFE79FED090A044880ED140A7047000057
:10C6D000D0B40020AEA3002020B6002000003442D9
:10C6E000CDCCCC3E000034C2000000006F12033BF2
:10C6F0007047000010B55248407910B1632050498E
:10C7000008729FED500A504880ED1B0A9FED4D0ABC
:10C7100080ED1E0A4D48B0F90410B0F90600084437
:10C7200000EE100AB8EEC00AF6EE000A20EE200A6B
:10C73000454880ED1F0A4648008800EE100AB8EE12
:10C74000400A414880ED1C0A4048B0F90410B0F995
:10C750000600081A00EE100AB8EEC00A3A4880ED4A
:10C76000200A9FED380A80ED1D0A3548007A03281B
:10C7700020D004DC012807D0022852D112E004287E
:10C7800020D063284DD134E0012000F0B3FF012018
:10C7900004F04EFC04F0AEFE2948007A401C284903
:10C7A000087242E004F088FD2548007A401C2449C4
:10C7B00008723AE004F0A2FF2148007A401C2049A8
:10C7C000087232E0002004E0002220493A310A5485
:10C7D000401C0828F8DB00211C4880F83F109FED22
:10C7E000190A174880ED040A007A401C144908729F
:10C7F0001BE0022012490876002000F07BFF022097
:10C8000014490870104908770020124981F8850002
:10C810009FED0C0A0C4880ED140A002002F0ECF9A0
:10C8200003E003200649087600BF00BF044890EDEE
:10C83000040ADFED090A30EE200A80ED040A10BD7B
:10C84000D0B400200000000020B6002078B70020FF
:10C85000B0A3002058B800206F12033B10B5C748A2
:10C86000407910B16320C5490872C448007A012894
:10C8700001D1C3494870C148007A05286FD008DC4F
:10C8800001280FD002282CD003283AD0042867D1E1
:10C8900048E006287ED007287DD008287CD0632871
:10C8A000F5D142E19FEDB70AB54880ED190A9FED39
:10C8B000B50A80ED1A0A90ED130ADFEDB30AB4EE63
:10C8C000E00AF1EE10FA0BD290ED130ADFEDAF0A99
:10C8D000B4EEE00AF1EE10FA02DD0220A749087278
:10C8E00041E10021A64880F835100320A3490872D1
:10C8F0000220A3494870A1490876002000F0FAFE02
:10C9000031E19F48407802280BD101219C4880F8F2
:10C9100035109FED9F0A994880ED040A042097493D
:10C92000087220E1954890ED040ADFED9A0AB4EE12
:10C93000E00AF1EE10FA14DD90ED040AF0EE000AC0
:10C94000B4EEE00AF1EE10FA0BD29FED930A8C4898
:10C9500080ED190A9FED900A80ED1A0A20E020E090
:10C96000FDE0864890ED040AF0EE000AB4EEE00A1D
:10C97000F1EE10FA14DD90ED040AF0EE080AB4EEC0
:10C98000E00AF1EE10FA0BD205207C4908729FED07
:10C99000800A02E088E0AEE0BDE0084680ED040ACF
:10C9A000E1E0774890ED130ADFED7C0AB4EEE00A8F
:10C9B000F1EE10FA08D290ED130AF3EE0E0AB4EE7F
:10C9C000E00AF1EE10FA12DC6D4890ED140ADFED8A
:10C9D000730AB4EEE00AF1EE10FA64D290ED140A94
:10C9E000F3EE0E0AB4EEE00AF1EE10FA5BDD012080
:10C9F000634988700846807E30B10846C07E18B111
:10CA000000206749087012E05D48807E30B15C48C4
:10CA1000C07E18B901206249087008E05848807E3D
:10CA200028B95748C07E10B902205D4908705C489B
:10CA3000007828B99FED5B0A514880ED310A32E059
:10CA400057480078012812D14D4890ED310ADFEDAA
:10CA5000560AB4EEE00AF1EE10FA24DD90ED310A48
:10CA6000DFED520A30EE600A80ED310A1BE04C48DF
:10CA70000078022817D1424890ED310ADFED4C0AC8
:10CA8000B4EEE00AF1EE10FA0DDD90ED310ADFEDC3
:10CA9000470A30EE600A80ED310A002040490870F4
:10CAA0000620364908725EE03548807E80B93448F9
:10CAB000C07E01280CD19FED360A314880ED310A45
:10CAC0009FED330A80ED320A07202C49087211E0ED
:10CAD0002B4890ED310ADFED370AB4EEE00AF1EEB3
:10CAE00010FA07DD90ED310AF2EE040A30EE600A2A
:10CAF00080ED310A37E09FED300A214880ED190AB8
:10CB00009FED2D0A80ED1A0A002180F835100820CB
:10CB10001A49087227E00021194880F83510174893
:10CB2000007A401C154908721DE00220134908765E
:10CB3000002000F0DFFD022020490870204908771E
:10CB400000201E4981F885009FED110A1C4880EDE8
:10CB5000140A00200A49487002F04EF803E003204E
:10CB60000649087600BF00BF044890ED040ADFEDD7
:10CB7000150A30EE200A80ED040A10BDD0B4002062
:10CB800078B700200000E5430000EA430000E043DE
:10CB900000000000CDCCCC3F0000344200009642A3
:10CBA000ACA3002000007A44000048440000484242
:10CBB000000016440000C8430000904258B800200E
:10CBC00020B600206F12033BC27A0A70027B4A70C3
:10CBD000427B8A70827BCA70C27B0A71037C4B7174
:10CBE000437C8B71837CCB717047000010B5374854
:10CBF000407910B1632035490872354890F8280013
:10CC0000C0F3801010B10120304908722F48007A1B
:10CC1000042822D006DC012809D0022811D00328DC
:10CC200045D114E005281ED0632840D125E000211D
:10CC3000284880F834102548007A401C234908729F
:10CC400039E02248007A401C2049087233E01F482E
:10CC5000007A401C1D4908722DE01C48007A401CD7
:10CC60001A49087227E001211A4880F83410174841
:10CC7000007A401C154908721DE00220134908760D
:10CC8000002000F037FD022013490870134908778F
:10CC90000020114981F885009FED110A0F4880EDB1
:10CCA000140A00200B49487001F0A6FF03E003209E
:10CCB0000649087600BF00BF044890ED040ADFED86
:10CCC000090A30EE200A80ED040A10BDD0B400201D
:10CCD000CCBE002078B7002058B8002020B6002035
:10CCE000000000006F12033BC27A0A70027B4A7098
:10CCF000427B8A70827BCA70C27B0A71037C4B7153
:10CD0000437C8B71837CCB71704700000120034909
:10CD100008760846007A401C08727047D0B400209C
:10CD200070B52DED0A8BB0EE40CA04460D46B0EE4C
:10CD3000608AB0EE419AF0EE619AB0EE4C0AF3F7D9
:10CD4000F1FAF0EE40CAB0EE4C0AF3F7AFFAB0EEEB
:10CD500040AA8CEE8A0AF0EE40AA29EEA90AB0EEAB
:10CD600040BA28EE080AF0EE40BA2AEE0A0AF0EEBF
:10CD7000408A9FED100A6BEE800A2BEE281A80EE97
:10CD8000810A1AEE880A30EE490A84ED000A88EE1C
:10CD9000280ADFED090A2BEEA01AC1EE0B0A60EE9D
:10CDA000AA0A80EEA81A30EE010A85ED000ABDEC51
:10CDB0000A8B70BDF1E39C40F1E31C410EB50020ED
:10CDC000084ACDE900200346B422322102900648E9
:10CDD000F6F714FE0721002000F008F808F0CEFF57
:10CDE0000EBD0000F0C3010800080040002801DA71
:10CDF000002204E0322801DD322200E00246084B26
:10CE00001A600A2901DA0A2206E0B1F5004F02DDB4
:10CE10004FF4004200E00A46014B103B1A80704775
:10CE20003808004010B504461B480088A8B904B96A
:10CE300010BD601E00EB401101EB8010174901EBA3
:10CE40004000174908600846006807F057FE12487E
:10CE50000088401C104908801CE00F4A1288521EAE
:10CE6000104B33F812100C4A1288521E603333F8FC
:10CE70001200FFF7BBFF08480088401C06490880E5
:10CE800007480068B0F8C0000988884202DA00202C
:10CE90000149088000BFCBE728B3002064A8002028
:10CEA0002CB300202CC6002010B54FF0011106480D
:10CEB000F6F742FC01210548F6F73EFC0121044843
:10CEC000F6F73AFC10BD0000B0C20108D0C201085C
:10CED000E8C3010810B51A4890F8250048B1184871
:10CEE000B0F8480032301649A1F84800002081F817
:10CEF0002500134890F8C40060B1114890F84D0027
:10CF0000B0B101200E4981F870000EF0DFFA0C4933
:10CF1000C8660DE00A4890F8400048B9084890F803
:10CF2000700028B10020064981F84D0081F870009A
:10CF3000034890F8C400024981F8400010BD000089
:10CF400060BF002070B504214FF4F070FFF746FA7F
:10CF50001C490860002410E09FED1B0A194810309E
:10CF600000EB840080ED000A9FED180A15481C3084
:10CF700000EB840080ED000A641C032CECDB002431
:10CF800013E000250EE09FED120A0E48006804EB46
:10CF9000840105EB810101EB410100EB810080ED93
:10CFA000000A6D1C142DEEDB641C082CE9DB9FEDE0
:10CFB000080A044880ED010A9FED060A80ED170A71
:10CFC00070BD000070B500209AF979449AF979C4CF
:10CFD0000000C842000000001648007D00F0040078
:10CFE00038B3154890ED0C0ABDEEC00A10EE100AD9
:10CFF00000B212490881104890ED0D0ABDEEC00A3A
:10D0000010EE100A01B20D4841810B4890ED0E0A56
:10D01000BDEEC00A10EE100A01B208488181064830
:10D0200090ED0F0ABDEEC00A10EE100A01B20348DF
:10D03000C18170479CC0002020B60020D0B50020E0
:10D040001B48007D00F0100088B3194800790228C1
:10D0500002D003282AD100E028E0164890ED330AD8
:10D06000BDEEC00A10EE100A00B213490884114840
:10D0700090ED340ABDEEC00A10EE100A01B20E485F
:10D0800041840C4890ED170ABDEEC00A10EE100A5C
:10D0900001B209488184074890ED180ABDEEC00A24
:10D0A00010EE100A01B20448C18400BF00BF7047EF
:10D0B0009CC0002078B70020D0B500201848007D23
:10D0C00000F00200F8B11648007901280DD014488C
:10D0D0000079022809D0134890ED110ABDEEC00A6C
:10D0E00010EE100A00B2104908820D48007901289C
:10D0F0000AD10C4890ED120ABDEEC00A10EE100ADB
:10D1000000B20949488009E0064890ED120ABDEED8
:10D11000C00A10EE100A01B20348418270470000B5
:10D120009CC0002058B80020D0B5002008B50020D1
:10D130000423084A08490090084801F061FF0020D4
:10D140000323074A07490090074801F091FF08F0C0
:10D1500091FF08BD90C3010888C301080064004026
:10D16000F0C20108E8C2010800680040054800213B
:10D170008160C1608161C16101614161016241629F
:10D1800070470000D0B50020504890ED9D0ABCEEDD
:10D19000C00A10EE100AC0B230B1012805D0022832
:10D1A0002CD0032800D152E08EE0494890ED0E0AC1
:10D1B000BDEEC00A10EE100A00B24649088244488B
:10D1C00090ED0F0ABDEEC00A10EE100A01B2414800
:10D1D00041823F4890ED050ABDEEC00A10EE100AEC
:10D1E00001B23C4881823C4890ED020ABDEEC00A83
:10D1F00010EE100A01B23748C18265E0344890ED64
:10D200000E0ABDEEC00A10EE100A00B231490883C2
:10D210002F4890ED0F0ABDEEC00A10EE100A01B2C1
:10D220002C4841832A4890ED250ABDEEC00A10EE35
:10D23000100A01B227488183254890ED080ABDEE07
:10D24000C00A10EE100A01B22248C1833CE0204817
:10D2500090ED050ABDEEC00A10EE100A01B21D489D
:10D2600081821D4890ED020ABDEEC00A10EE100A40
:10D2700001B21848C182164890ED0E0ABDEEC00AF0
:10D2800010EE100A00B213490883114890ED0F0AFE
:10D29000BDEEC00A10EE100A01B20E4841830C48E0
:10D2A00090ED250ABDEEC00A10EE100A01B2094841
:10D2B0008183074890ED080ABDEEC00A10EE100AFF
:10D2C00001B20448C18300BF00BF704700000020C6
:10D2D00060BF0020D0B5002090C0002005E00449C8
:10D2E0000A5C04490A54411CC8B20828F7DB70479D
:10D2F000C8B3002010B6002010B5FFF76DFEFFF791
:10D30000DDFEFFF741FFFFF79BFE00F0A3F8FFF7FC
:10D31000E5FF46480078022801D1FFF727FF0EF00D
:10D32000A9FB43480079012806D1424A40F2FF2177
:10D33000414808F091FD06E03E4A103240F2FF11EC
:10D340003D4808F089FD3B4A08324FF400713A48E5
:10D3500008F082FD394890ED9C0ADFED390AB4EE01
:10D36000600AF1EE10FA06D0324A203240F2FF1184
:10D37000344808F071FD34480078401C00F001008A
:10D38000E0B92B480079012806D12A4A103240F230
:10D39000FF11294808F060FD284890ED9C0ADFED58
:10D3A000280AB4EE600AF1EE10FA0DD0214A1832C4
:10D3B0004FF40071234808F04FFD05E0234A40F286
:10D3C0000141204807F0A0F81F480068C01C052153
:10D3D000B0FBF1F201FB120010BB184890ED9C0A63
:10D3E000DFED1B0AB4EE600AF1EE10FA07D1114A24
:10D3F00038324FF48171104805F0F6FF10E00F4805
:10D4000090ED9C0ADFED0E0AB4EE600AF1EE10FA20
:10D4100006D1084A383240F201110A4805F0E4FF0B
:10D4200009480068401C0849086010BDACA60020EF
:10D430009CC00020D0B50020006400400000002007
:10D440000000814300680040ECA3002090A700206A
:10D45000008080430020124981F8280000211048F4
:10D4600080F8291080F82A10012180F82B1080F80C
:10D470002C1080F82D10002180F82E1080F82F102D
:10D480000A2180F83010C82180F83110192180F865
:10D4900032104FF47A7181864CF25031C186704758
:10D4A000D0B5002010B588B000205449087702207C
:10D4B000487707F07DF804F059FE002004900590AD
:10D4C00006904F490A1F0790101F031FCDE9003037
:10D4D000CDE902211B1F103A1839143806F09AFEC4
:10D4E0004649C1F8E800002436E000200490059089
:10D4F0000690079042482038011F0A1F131FCDE9EC
:10D500000032CDE902101B1F0C3A14391C3806F00A
:10D5100081FE3A49EC3141F824003A48007D00F0A0
:10D520002000B8B100200490059006903449603185
:10D530000A1F0790101F031FCDE90030CDE902211B
:10D540001B1F103A1839143806F064FE2B49FC31C1
:10D5500041F82400601CC4B2042CC6DB00200490F7
:10D5600005900690264920310A1F0790101F031FBF
:10D57000CDE90030CDE902211B1F103A18391438CB
:10D5800006F048FE1D49C1F8E00000200490059017
:10D59000069007901A484030021F111F0B1FCDE95B
:10D5A0000031CDE902201B1F103A10391C3806F05B
:10D5B00031FE1249C1F8E400B7EE000A084680EDDA
:10D5C0000B0A012088779FED100A084680ED080AB3
:10D5D0009FED0D0A80ED090A9FED0B0A80ED0A0A06
:10D5E000002048768876C8760548E83890EDA20A8B
:10D5F000084680ED1A0A08B010BD000020B60020D1
:10D60000E80000209CC0002000000000214B1B7897
:10D61000032B30D1204BD3EDA10A00EE101AB8EE47
:10D62000C01A81EE200AD3ED090A20EE200A1B4B16
:10D6300083ED1A0A184BD3EDA10A00EE100AB8EEDA
:10D64000C01A81EE200AD3ED090A20EE200A134BFE
:10D6500083ED1B0A104BD3EDA10A00EE102AB8EEA1
:10D66000C01A81EE200AD3ED090A20EE200A0B4BE6
:10D6700083ED1C0A0CE09FED0A0A084B83ED1A0AA1
:10D680009FED070A83ED1B0A9FED050A83ED1C0A37
:10D6900070470000ACA6002000000020CCBE002097
:10D6A0000000000010B50949D1F8E00006F0E0FEE6
:10D6B000002407E00549EC3151F8240006F0D8FEBB
:10D6C000601CC4B2042CF5DB10BD000020B60020A5
:10D6D0009FED060A064880ED010A9FED040A80EDE1
:10D6E000000A9FED020A80ED020A70470000000068
:10D6F00020B6002018B10121094A11760FE000215F
:10D70000074A11769FED070A114681ED030A9FED46
:10D71000050A81ED040A9FED030A81ED050A7047B1
:10D7200020B600200000000010B52DED028BFE4851
:10D7300090F8AC0008B104F0C5F9FC49FC4807F0CA
:10D74000EFF8FC4890ED010AF0EE080AB4EE600A2A
:10D75000F1EE10FA03D0F849F84808F069FA002011
:10D760000FE0F74901EBC001B1F9021000EE101A09
:10D77000B8EEC00AF34901EB800181ED000A411CBB
:10D78000C8B20428EDDB02F055FDEE48843880ED88
:10D79000480B90ED4A2BB0EE420AF0EE620A90ED93
:10D7A000482BB0EE421AF0EE621A53EC102B51ECFB
:10D7B000110BF3F7CEFA41EC180BF3F713FCE14928
:10D7C0008439C1F81C01084690ED480B80ED4A0BE6
:10D7D000DD480078052829D2DFE800F02104250380
:10D7E000220000BFD7488438007F042802D102F00D
:10D7F000B7FB13E0D3488438007F032802D109F037
:10D8000045FB0BE0CF488438007F022804D0CD4888
:10D810008438007F012801D1FFF75AFF07E000BFDD
:10D82000FFF756FF03E0FFF73DFF00E000BF00BF3A
:10D83000C4488438007E002868D0C2498439D1EDBC
:10D84000471AB0EE611AD1ED1E1AF0EE610AD1ED61
:10D850001B1AB0EE610AD1F8E80006F003FDB948E2
:10D86000843880ED030A0146D1ED471AB0EE611A03
:10D87000D1ED1F1AF0EE610AD1ED1C1AB0EE610A6B
:10D88000D1F8E80006F0EEFCB1EE400AAD4884386D
:10D8900080ED040A0146D1ED471AB0EE611AD1EDD0
:10D8A000201AF0EE610AD1ED1D1AB0EE610AD1F82E
:10D8B000E80006F0D7FCA348843880ED050A90ED17
:10D8C0000B2A9C48D0ED092A22EE222AF0EE421AB9
:10D8D0009C48843890ED052AD0ED0A2A32EE222A9F
:10D8E000B0EE421A90ED042AD0ED092A32EE222A37
:10D8F000F0EE420A90ED032AD0ED082A32EE222AF9
:10D90000B0EE420A943005F0A3FE8EE08D488438D4
:10D9100090ED0B2A8748D0ED092A22EE222AF0EE5C
:10D92000421A8848843890ED022AD0ED0A2A72EE15
:10D93000222A90F91E0002EE100AB8EEC22A22EE48
:10D94000822AB0EE421A7F48843890ED012AD0ED49
:10D95000092A72EE222A90F91E0002EE100AB8EE91
:10D96000C22A22EE822AF0EE420A7648843890EDEE
:10D97000002AD0ED082A72EE222A90F91E0002EE4B
:10D98000100AB8EEC22A22EE822AB0EE420A6D4890
:10D99000103005F05DFE6B48843890F91E0000EEF3
:10D9A000100AB8EEC00AFFEE000AB4EE600AF1EE0B
:10D9B00010FA3AD16348843890ED0B2A5D48D0EDD7
:10D9C000092A22EE222AF0EE421A5E48843890EDAF
:10D9D000022AD0ED0A2A32EE222AB0EE421A90ED47
:10D9E000012AD0ED092A72EE222A90F91E0002EED9
:10D9F000100AB8EEC22A22EE822AF0EE420A5148FC
:10DA0000843890ED002AD0ED082A72EE222A90F98F
:10DA10001E0002EE100AB8EEC22A22EE822AB0EEF2
:10DA2000420A4848103005F013FE002422E0454920
:10DA30008439D1ED471AB0EE611A843101EB8401CB
:10DA4000D1ED001AF0EE610A3E49103101EB84017C
:10DA5000D1ED001AB0EE610A3A49683151F824005C
:10DA600006F000FC3748443800EB840080ED000AE3
:10DA7000601CC4B2042CDADB3448007D00F02000C6
:10DA800048B306F04DFE002422E02E498439D1ED42
:10DA9000471AB0EE611A254901EB8401D1ED001A55
:10DAA000F0EE610A2749443901EB8401D1ED001AF7
:10DAB000B0EE610A2349783151F8240006F0D2FB18
:10DAC0002048543800EB840080ED000A601CC4B28A
:10DAD000042CDADB11E000200DE01A49443901EB97
:10DAE000800191ED000A1749543901EB800181ED65
:10DAF000000A411CC8B20428EFDB13480078022852
:10DB00002BD1104884380021016341638163C163D4
:10DB10009FED0F0A80ED140A01200A4984398877A5
:10DB2000084690ED1A0A15E028B90020D4DD00203F
:10DB3000C8DD002000000020A8DC002088DC0020D8
:10DB4000F0C80020A4B60020ACA600209CC0002095
:10DB500000000000024880EDA20ABDEC028B10BD5F
:10DB600000000020027BC37A42EA032212B20A803C
:10DB7000837B427B43EA022212B24A80037CC27B4F
:10DB800043EA022212B28A80427C8A717047000006
:10DB900070B504460D4600202071401EE062294603
:10DBA000204606F0A5F908B1032070BD94F82E12A6
:10DBB00094F82F0241EA00204AF65521884201D00C
:10DBC0000220F2E794F86900010694F8680041EA3F
:10DBD000004194F8670041EA002094F86610084379
:10DBE00020F07F400D49884201D10020DDE794F804
:10DBF0008500010694F8840041EA004194F883000E
:10DC000041EA002094F88210084320F07F40034945
:10DC1000884201D10020C8E70120C6E746415400F0
:10DC2000024600E0521C107810B110788842F9D1F9
:10DC30001078704770B503460D46586A021D680A91
:10DC40001E68B678B0FBF6F400BF02CA09B900201E
:10DC500070BD8C4200D202E0641A121DF5E700BFCD
:10DC600010682044F4E700001FB51548F5F766FF7B
:10DC7000144802905920ADF804000020ADF80600C9
:10DC8000ADF80C0001A90E48FAF7D0FF01221146A9
:10DC90000B48FAF721FE01210948FAF7E8FD322086
:10DCA0008DF8000002208DF8010000208DF80200A0
:10DCB00001208DF803006846F8F73CFD1FBD000009
:10DCC000000C00403F420F000246891E5069801E32
:10DCD000884201D8002070479378906A01FB0300C6
:10DCE000F9E7000070B500240025AD222146641C30
:10DCF000244842542C222146641C425400222146CE
:10DD0000641C4254204802782146641C1D48425439
:10DD100000222146641C42542146641C42540122C4
:10DD20002146641C42542146621CD4B20246881823
:10DD300005F068FD00BF08E01448425D2046611C04
:10DD4000CCB210490A54681CC5B2022DF4DB03F0B2
:10DD50009BFD2146621CD4B20A4A881805F06AFD70
:10DD600005210848F5F7DEFB0D210648F5F7C2FB53
:10DD700005480078401C044908700D210148F5F75A
:10DD8000A1FF70BDACEF0020B0A70020E4C40020CC
:10DD900010B5074880684FF47A71B0FBF1F201FBCF
:10DDA000120018B9002101200CF0E6FB10BD0000A4
:10DDB00050B7002070B502F0CFF8064600241BE0F3
:10DDC000002516E00E4A52F8251004EB840206EBFB
:10DDD00082001022F2F7DBFC50B904EB840006EB62
:10DDE000800090ED040A074800EB850080ED000AF2
:10DDF0006D1CAF2DE6DB641CAF2CE1DB70BD0000B9
:10DE0000F0A30020000000202DE9F0474FF00008AB
:10DE10001421AF20FEF7E2FA0446002C60D026461B
:10DE2000002700BF384600F0E6FB07467FB100BF81
:10DE3000306818B130683968884205D11C223946EB
:10DE40003046F2F76BFC01E01C36F1E700BF002F13
:10DE5000E8D102F081F8814640F26B3102F040F8DF
:10DE600000F0FF080020F8F7BFF8F8F7CFF801201E
:10DE7000F8F7BAF8B8F1000F2CD0264603E0304688
:10DE80001C3600F0C4FB30680028F8D1002515E0EE
:10DE9000154A52F8251005EB850204EB820010228A
:10DEA000F2F73CFC114800EB850090ED000A05EB11
:10DEB000850004EB800080ED040A6D1CAF2DE7DBCC
:10DEC00002F04AF8814640F26B32214601F0DDFF54
:10DED00000F0FF081422AF212046FEF7BFFA00BF72
:10DEE0004046BDE8F0870000F0A3002000000020BD
:10DEF00010B52DED028BFFF75DFF0BF0DBF904464B
:10DF00008CB9294890ED010AB5EEC00AF1EE10FA7D
:10DF100009DD014691ED010ABCEEC00A10EE101AAF
:10DF2000C8B206F053F902F017F8006908EE100ABB
:10DF300018EE100A20F00041C1F1FF41C90F19B1DC
:10DF40009FED1A0AB0EE408A9FED190AB4EEC08A1E
:10DF5000F1EE10FA10D2144890ED000ADFED140A29
:10DF6000B4EEE00AF1EE10FA06D200F025F8012036
:10DF7000104981F8290009E00B4890ED000AB4EE41
:10DF8000C80AF1EE10FA01D8FFF714FF064890ED29
:10DF9000000AB4EEC80AF1EE10FA01DDFFF734FF13
:10DFA000BDEC028B10BD000000000020000000004E
:10DFB00000000043BC0200209FEDFE0AFE4880EDF9
:10DFC000000A9FEDFE0A80ED010AB3EE0E0A80ED15
:10DFD000020A9FEDFB0A80ED030A9FEDFA0A80ED2D
:10DFE000040A9FEDF90A80ED050A9FEDF80A80ED1D
:10DFF000060A9FEDF70A80ED070A9FEDF60A80ED0D
:10E00000080A9FEDF40A80ED090AB2EE040A80EDD9
:10E010000A0A9FEDF10A80ED0B0A9FEDF00A80EDF0
:10E020000C0A9FEDEF0A80ED0D0AB7EE000A80EDB5
:10E030000E0AB2EE000A80ED0F0A9FEDEA0A80EDAB
:10E04000100AB2EE000A80ED110A9FEDE70A80ED9A
:10E05000120A9FEDE60A80ED130A9FEDE50A80EDB6
:10E06000140A9FEDE40A80ED150AB5EE000A80ED72
:10E07000160A9FEDE10A80ED170A9FEDE00A80ED98
:10E08000180A9FEDDF0A80ED190A9FEDDB0A80ED8B
:10E090001A0AB5EE000A80ED1B0A9FEDD00A80ED4A
:10E0A0001C0AB6EE000A80ED1D0AB7EE000A80EDEC
:10E0B0001E0AB2EE000A80ED1F0A9FEDC90A80ED2C
:10E0C000200AB2EE000A80ED210A9FEDCE0A80ED13
:10E0D000220A9FEDCD0A80ED230A9FEDCC0A80ED48
:10E0E000240A9FEDCB0A80ED250AB5EE000A80EDEB
:10E0F000260A9FEDC80A80ED270A9FEDC00A80ED31
:10E10000280A9FEDBF0A80ED290A9FEDC20A80ED23
:10E110002A0AB2EE0F0A80ED2B0A9FEDBF0A80EDAE
:10E120002C0A9FEDBE0A80ED2D0AB7EE000A80EDA5
:10E130002E0A9FEDB10A80ED2F0A9FEDB90A80EDFE
:10E14000300A9FEDAD0A80ED310A9FEDAB0A80EDFC
:10E15000320A9FED9A0A80ED330A9FED980A80ED0E
:10E16000340A9FED960A80ED350AB7EE000A80ED7D
:10E17000360A9FED920A80ED370A9FED900A80EDF6
:10E18000380A9FED8E0A80ED390A9FED8C0A80EDEA
:10E190003A0A9FEDA40A80ED3B0A9FED880A80EDC4
:10E1A0003C0A9FEDA10A80ED3D0AB7EE000A80ED22
:10E1B0003E0A9FED910A80ED3F0A9FED990A80ED9E
:10E1C000400A9FED8D0A80ED410A9FED8B0A80ED9C
:10E1D000420A9FED960A80ED430A9FED780A80ED92
:10E1E000440A9FED760A80ED450AB7EE000A80EDFD
:10E1F000460A9FED810A80ED470A9FED890A80ED6E
:10E20000480A9FED7D0A80ED490A9FED7B0A80ED6B
:10E210004A0A9FED870A80ED4B0A9FED700A80ED58
:10E220004C0AB0EE000A80ED4D0AB7EE000A80ED10
:10E230004E0A9FED800A80ED4F0A9FED790A80ED2E
:10E24000500A9FED7C0A80ED510A9FED7A0A80ED1D
:10E25000520A9FED790A80ED530A9FED580A80ED2E
:10E26000540AB6EE000A80ED550AB7EE000A80EDBA
:10E27000560A9FED6B0A80ED570A9FED630A80ED09
:10E28000580A9FED670A80ED590A9FED650A80EDF7
:10E290005A0AB0EE0E0A80ED5B0AB6EE000A80ED77
:10E2A0005C0A9FED460A80ED5D0AB7EE000A80ED3C
:10E2B0005E0A9FED620A80ED5F0A9FED540A80EDD1
:10E2C000600A9FED5E0A80ED610A9FED5C0A80EDB9
:10E2D000620A9FED3A0A80ED630A9FED380A80EDED
:10E2E000640A9FED360A80ED650AB7EE000A80EDFC
:10E2F000660A9FED320A80ED670A9FED300A80EDD5
:10E30000680A9FED2E0A80ED690A9FED2C0A80EDC8
:10E310006A0A9FED2A0A80ED6B0A9FED280A80EDBC
:10E320006C0A9FED260A80ED6D0AB7EE000A80EDBB
:10E330006E0A9FED220A80ED6F0A9FED200A80EDA4
:10E34000700A9FED1E0A80ED710A9FED1C0A80ED98
:10E35000720A9FED1A0A80ED730A9FED180A80ED8C
:10E36000740A9FED160A80ED750AB7EE000A80ED7B
:10E37000760A9FED120A80ED770A9FED100A80ED74
:10E38000780A9FED0E0A80ED790A9FED0C0A80ED68
:10E390007A0A9FED0A0A80ED7B0A9FED080A80ED5C
:10E3A0007C0A9FED060A80ED7D0AB7EE000A80ED3B
:10E3B0007E0A45E00000004300000020000000004D
:10E3C00000008C44008093440AD7233B52499D3A75
:10E3D000F4FD543C00401C466666E63E0AD7A33C6A
:10E3E0009A99993ECDCC4C3E333303410080D444BE
:10E3F000008018440000074300409C450000FA4498
:10E4000000803B45CDCC04410000FA430000484366
:10E410000000FA420020CB45666616406666A640BC
:10E4200000007A44D7A3B03E6666964000000C44D4
:10E43000CDCC4C3F00008046CDCC6C4000009643D4
:10E440001FED220A80ED7F0A1FED240A80ED800A6D
:10E450001FED260A80ED810A1FED280A80ED820A51
:10E46000B2EE080A80ED830A1FED2C0A80ED840AC3
:10E470001FED2E0A80ED850AB7EE000A80ED860AB0
:10E480001FED2C0A80ED870A1FED240A80ED880A13
:10E490001FED300A80ED890A1FED320A80ED8A0AED
:10E4A0009FED480A80ED8B0A9FED470A80ED8C0AAC
:10E4B000B1EE040A80ED8D0A1FED2D0A80ED8E0A63
:10E4C0009FED420A80ED8F0A1FED340A80ED900A1D
:10E4D000B3EE040A80ED910A1FED2B0A80ED920A3B
:10E4E000B7EE080A80ED930A9FED390A80ED8F0A96
:10E4F0001FED3A0A80ED950AB1EE040A80ED960A06
:10E500009FED340A80ED970A9FED330A80ED980A5B
:10E510009FED320A80ED990AB2EE040A80ED9A0A64
:10E520001FED540A80ED9B0A9FED2D0A80ED9C0A99
:10E530001FED5E0A80ED9D0AB7EE000A80ED9E0A8F
:10E540001FED490A80ED9F0A1FED530A80EDA00AD6
:10E550001FED530A80EDA10A1FED680A80EDA20AA3
:10E560001FED6A0A80EDA30ABBEE0E0A80EDA40A35
:10E57000B3EE0E0A80EDA50A1FED700A80EDA60A23
:10E580001FED720A80EDA70A1FED740A80EDA80A3C
:10E590001FED760A80EDA90A1FED780A80EDAA0A20
:10E5A0001FED7A0A80EDAB0A1FED7C0A80EDAC0A04
:10E5B0001FED7E0A80EDAD0A1FED800A80EDAE0AE8
:10E5C000704700008096184B6F12033B00409C4739
:10E5D00052499D396666A63F9A99993F8FC2F53C8C
:10E5E000008080434FF0016000BF1C380168491C67
:10E5F0000029FAD17047014609B94FF001611C3971
:10E600000868401C08B1084670470020FCE770B558
:10E610000446FFF7E7FF05460722214601F035FCD7
:10E6200070BD000010B50E49022000F023F80D491E
:10E63000042000F01FF80C49012000F01BF80B49E2
:10E64000082000F017F80A494FF4007000F012F8A3
:10E65000FDF704FE0BF086FF05F032FF10BD000051
:10E66000F9090108A5D400082DD100082D70010872
:10E670001D91010870B504460D460348808A20406C
:10E6800000B1A84770BD00009CC000201CB5074821
:10E69000072100234FF40072CDE9001004A10648C1
:10E6A0000CF0D4FE054988631CBD000050B7002063
:10E6B000434F4E54524F4C00C1E60008BC020020AC
:10E6C00008B50CF003FF00906DE0022168460BF0E6
:10E6D000DFFB354890F87C0008B107F053FA334867
:10E6E000007A00F0010028B9314890F8D80008B14C
:10E6F00004F09AF82F4890F8220000F0200000B1B2
:10E7000051E02C48006C00B94DE02B48807902287C
:10E7100003D02A48807902280BD1FFF783FF00201D
:10E720002549887125498871FDF7CCFE01201F49D4
:10E7300008712148007980B31C48007968B301F062
:10E7400029FE01F005FF1E4890F8440008B1FFF7CC
:10E75000C9FA1C490220FFF78DFF1B490420FFF76F
:10E7600089FF1A490820FFF785FF1048007A00F05A
:10E77000010060B916494FF40070FFF77BFF1548A0
:10E7800000781549087015480078144948701449F4
:10E790000120FFF76FFFFDF7C7FE04488068401CAB
:10E7A0000249886000BF90E7CCBE002050B700202F
:10E7B000E0BA0020BC0200209CC00020BCBB0020AE
:10E7C0002CC000209110010829D70008F973010816
:10E7D00065910108ACA60020ADA6002058B8002025
:10E7E000F9D200080146002002E04910421CD0B2D4
:10E7F0000129FAD170472DE9F04704468946B9F15D
:10E80000000F06D1E76817B16069B84215D8012733
:10E8100013E04946204601F0C1FF0646022E02D20F
:10E820000120BDE8F087701C08B93046F9E760693F
:10E83000B04201D93046F4E74F463D4600BF6D1C5B
:10E840006069A84204D80225BD4201D90020E8E74A
:10E850002946204601F0A2FF064606B909E0701CD1
:10E8600008B1012E01D13046DBE7BD42E7D10020DF
:10E87000D7E700BF6FF070422946204606F028FE19
:10E880008046B8F1000F08D1B9F1000F05D02A4633
:10E890004946204606F01CFE8046B8F1000F0BD119
:10E8A000E5602069401C78B12069401E20616079D4
:10E8B00040F00100607107E0B8F1010F02D14FF0A4
:10E8C000FF3000E0012005462846AAE72DE9F35F66
:10E8D0000198D0F8009001E009F1010999F80000D1
:10E8E0002F28F9D099F800005C28F5D000988669A7
:10E8F0000B222021304604F07BFF00252F46AB463B
:10E900004FF0080A00BF58460BF1010B19F8004000
:10E91000202C03DD2F2C01D05C2C00D153E02E2CB9
:10E9200001D057450DD3BAF1080F01D12E2C02D0DA
:10E930000620BDE8FC9F08274FF00B0AA806050E2D
:10E94000E1E7802C01DB45F00305812C20DBFE2C68
:10E950001EDC58460BF1010B19F80080B8F1400F8E
:10E9600002DBB8F17E0F05DDB8F1800F06DBB8F1F0
:10E97000FE0F03DCAAF10100B84201D80620D8E757
:10E9800038467F1C345438467F1C06F8008019E056
:10E99000214620A0FFF744F908B10620C9E7412C21
:10E9A00004DB5A2C02DC45F0020508E0612C06DB92
:10E9B0007A2C04DC45F00105A4F12000C4B23846ED
:10E9C0007F1C34549FE700BF09EB0B0101980160E5
:10E9D000202C01DC042000E0002004460FB90620B2
:10E9E000A7E73078E52801D105203070BAF1080F8B
:10E9F00001D1A806050E05F00300012801D144F05D
:10EA0000100405F00C00042801D144F00804F4724D
:10EA100000208EE7222A2B2C3A3B3C3D3E3F5B5D9B
:10EA20007C7F000010B560480079062870D2DFE8CE
:10EA300000F0B0031D4D7E97B7EE000A5B4880EDF5
:10EA40009D0A9FED5B0A80EDA00A9FED5A0A80EDBA
:10EA5000A40A9FED590A80EDA50AB7EE000A80EDE1
:10EA60009E0A40F2EF705049888293E0B0EE080AA7
:10EA70004E4880ED9D0A9FED4E0A80EDA00ABAEE49
:10EA80000E0A80EDA40AB3EE0E0A80EDA50AB7EED9
:10EA9000000A80ED9E0A90ED9C0ADFED480AB4EE74
:10EAA000600AF1EE10FA03D1FF203F4988820CE0A2
:10EAB0003E4890ED9C0ADFED420AB4EE600AF1EEAA
:10EAC00010FA02D113203849888263E09FED3D0A95
:10EAD000364880ED9D0A9FED3B0A80EDA00ABBEE13
:10EAE0000E0A80EDA40AB3EE0E0A80EDA50ABFEE71
:10EAF000000A80ED9E0A90ED9C0ADFED300AB4EE2C
:10EB0000600AF1EE10FA04D1D720274988820DE07F
:10EB10003FE0264890ED9C0ADFED290AB4EE600A3A
:10EB2000F1EE10FA02D111201F49888232E0B7EECF
:10EB3000000A1E4880ED9D0A9FED220A80EDA00A82
:10EB40009FED200A80EDA40A9FED1B0A80EDA50A27
:10EB5000BFEE000A80ED9E0ACF201349888219E09B
:10EB6000B7EE000A114880ED9D0A9FED160A80ED70
:10EB7000A00A9FED150A80EDA40A9FED120A80ED10
:10EB8000A50ABFEE000A80ED9E0A4B200649888246
:10EB900000E000BF00BF0449087905F017FB022020
:10EBA0000149887110BD00009CC0002000000020B9
:10EBB00000803B4500000CC20000204200808043E2
:10EBC0000000814300000000000048C210B5F2F7C9
:10EBD000C1FF10BD09E005200BF02CF9FFF7F6FF8F
:10EBE00002488068401C01498860F4E74CC400205A
:10EBF00010B50CF07DF810BD10B5044654B90648A8
:10EC00000079032801D107F0B7F8B7EE000A0348EE
:10EC100080ED0B0A10BD00009CC0002020B6002033
:10EC20002DE9F04104460E460021204600F0F9F897
:10EC30000546EDB9002700BF2169206805F058F9A5
:10EC4000054605B113E060690078E52802D06069E7
:10EC5000007820B9781C0746B04201D107E00027B0
:10EC60000121204600F038F80546002DE4D000BF11
:10EC7000042D00D107252846BDE8F0812DE9F0419B
:10EC800004460021204600F0CCF8054615B1284680
:10EC9000BDE8F08100BF2169206805F029F905462B
:10ECA00005B116E0666937780FB9042511E0F07AEE
:10ECB00000F0080030B90B223046A16904F078FD5D
:10ECC00000B906E00021204600F006F80546002DB8
:10ECD000E1D000BF2846DBE72DE9F0410446884635
:10ECE000E088461CB0B208B1206910B90420BDE824
:10ECF000F08106F00F0000286CD12069401C2061D3
:10ED0000E06828B920680089B04263D80420EEE7A3
:10ED100020688078401E00EA161000285AD1E16869
:10ED2000206801F03BFD0546012D01D80220DEE7F9
:10ED3000681C08B90120DAE720684069A84243D876
:10ED4000B8F1000F01D10420D1E7E1682068FFF796
:10ED500052FD05460DB90720C9E7012D01D102205A
:10ED6000C5E7681C08B90120C1E720680AF07CFAF1
:10ED700008B10120BBE7216801F130004FF40072B7
:10ED8000002104F035FD29462068FEF79DFF21682B
:10ED9000C86200270EE001202168087120680AF08F
:10EDA00063FA08B10120A2E72068C06A401C21680C
:10EDB000C8627F1C20688078B842ECD82068C06A9E
:10EDC000C01B2168C86200BFE56029462068FEF7C5
:10EDD0007BFF2061E6802068303006F00F0100EBF9
:10EDE00041106061002082E770B504460121204691
:10EDF000FFF716FF054695B92169206805F078F8F8
:10EE0000054665B920220021606904F0F1FC0B225F
:10EE1000D4E9050104F0DFFC0120216808712846CF
:10EE200070BD2DE9F04104460E46E680A568012D2F
:10EE300003D020684069A84202D80220BDE8F081D2
:10EE40002DB920680078032801D12068456A45B9AA
:10EE500020680089B04201D80220EFE72068476AA5
:10EE60001EE0206880784FEA001812E029462068EA
:10EE700001F094FC0546681C08B90120DEE7022D6C
:10EE800003D320684069A84201D80220D6E7A6EB48
:10EE900008064645EAD229462068FEF715FF0746D0
:10EEA000E5600FB90220C9E707EB16102061206862
:10EEB000303006F00F0100EB411060610020BDE72B
:10EEC00070B5044600251CB9F8F71CF9054601E0A9
:10EED000012500BF00BF0DB1012070BD0020FCE77F
:10EEE0002DE9F04706468946154646BBB9F1000FA5
:10EEF00009D0B9F1010F13D0B9F1020F05D0B9F162
:10EF0000030F19D106E0002418E04FF400702860C8
:10EF1000002413E00C48B0F85000288000240DE0D5
:10EF200009484FF400720023D0E912713846F1F716
:10EF3000B1FB2860002401E0042400BF00E00124AC
:10EF40002046BDE8F0870000B8CA00202DE9F04156
:10EF500005460E4617461C464FF0000814B904201B
:10EF6000BDE8F08195B9E2B239463046F8F7E4FCE5
:10EF7000804607E0F8F7C6F8E2B239463046F8F7BF
:10EF8000DBFC8046B8F1000FF4D102E04FF001083D
:10EF900000BF00BFB8F1000F01D10020E0E7012061
:10EFA000DEE70146002070472DE9F04105460E4698
:10EFB00017461C464FF0000814B90420BDE8F08144
:10EFC00095B9E2B239463046F9F764F8804607E071
:10EFD000F8F798F8E2B239463046F9F75BF8804620
:10EFE000B8F1000FF4D102E04FF0010800BF00BFFC
:10EFF000B8F1000F01D10020E0E70120DEE70000BA
:10F000002DE9FF4104460D4616461F46DDF82880CF
:10F0100012480460456086601148844206D10E2281
:10F0200010490E480C30F1F779FB08E00E48844295
:10F0300005D10E220D4909480C30F1F76FFB002075
:10F04000032108230422CDE90278CDE9001001460E
:10F050000248F4F779FABDE8FF81000008CA0020F1
:10F06000006400402CBE0108006800403ABE010860
:10F070002DE9FF4104460D4616461F46DDF828805F
:10F0800012480460456086601148844206D10E2211
:10F0900010490E480C30F1F741FB08E00E4884425D
:10F0A00005D10E220D4909480C30F1F737FB00203D
:10F0B000032108230422CDE90278CDE9001001469E
:10F0C0000248F4F741FABDE8FF81000024CA00209D
:10F0D000006400402CBE0108006800403ABE0108F0
:10F0E0002DE9F04387B004460D4616461F46DDE97C
:10F0F0000E8900940695059601970021ADF8081039
:10F10000ADF80A10ADF80C100C21ADF80E1000216E
:10F11000ADF810104A4641466846F4F705FE6846C9
:10F12000F4F7B4FE6846F4F7E2FE07B0BDE8F083FA
:10F1300070B50546284600F05AFB044644B92846F7
:10F140000BF0A2F804460CB900202860204670BDE0
:10F150002046FCE72DE9FC470746884691460024F7
:10F160003E4613E06B46012201A9484600F067FACB
:10F170000098012800D00DE09DF8045000BF06F86B
:10F18000015B641C0A2D00D104E000BFA8F101005E
:10F19000A042E7DC00BF0020307014B13846BDE863
:10F1A000FC870020FBE72DE9FE4F04460D46204674
:10F1B0000BF06AF80290029810B10298BDE8FE8F39
:10F1C000E07908B1E079F9E7606A002871D0681C3D
:10F1D00000283BD1D4F8248058F804AB4FF0020942
:10F1E00026693EB300BF00964FF0000B09F10209FB
:10F1F00000BF01960BF1010B3146206801F0CEFAF9
:10F200000646012E02D80220E071D7E7701C10B923
:10F210000120E071D2E70198401C8642E9D0D14537
:10F2200004D848F804BB009848F8040B20684069EB
:10F23000B042D8D8606AC0F80090D14503D8002009
:10F24000C8F8000047E01120029044E0E068A842BE
:10F2500000D2E568A560002D3DD0691E2046FEF76E
:10F26000E9FC606161692068FEF72EFD074617B969
:10F270000220E071A2E720688078401E691E00EA43
:10F28000512007442089C0F3080020B3A069B84288
:10F2900021D0A07900F0400080B121684878012396
:10F2A00004F12801A269FFF77FFE18B10120E07187
:10F2B00084E711E0A07920F04000A071216848782F
:10F2C00001233A4604F12801FFF740FE10B1012066
:10F2D000E07173E7A761ABE0E068A84204D2A079CF
:10F2E00000F0020000B9E568D4F808904FF000087B
:10F2F000C4F80880002D67D0206880784702B9F1F3
:10F30000000F11D0681EB0FBF7F1A9F10100B0FBAE
:10F31000F7F0814208D3A9F10100791E8843A0606B
:10F32000A0682D1A666912E026697EB9002120685E
:10F33000FFF761FA0646012E02D10220E0713DE797
:10F34000701C10B90120E07138E726616661C6B310
:10F3500023E0A07900F0020038B131462068FFF7C1
:10F360004AFA064636B93D4619E03146206801F0B2
:10F3700015FA0646701C10B90120E0711EE7012E37
:10F3800003D920684069B04202D80220E07115E735
:10F390006661A0683844A060ED1BBD42D9D800BFAB
:10F3A000A0682844A060C5F3080050B13146206829
:10F3B000FEF78AFC8046B8F1000F03D10220E0710D
:10F3C000FCE601E008EB55282089C0F3080020B3D3
:10F3D000A069404521D0A07900F0400078B12168B3
:10F3E0004878012304F12801A269FFF7DDFD10B17F
:10F3F0000120E071E2E6A07920F04000A0712168D0
:10F4000048780123424604F12801FFF79FFD10B11F
:10F410000120E071D2E6C4F81880D4E902018842E4
:10F4200005D9A068E060A07940F02000A07100BF7D
:10F430000298C3E6F7B582B016460398019001A87A
:10F4400001F022FA0546002D02DA0B2005B0F0BDCE
:10F450000E4850F825400CB100202070029810B1E1
:10F460000020029908700949029841F82500029885
:10F4700008B1012E01D00020E8E7002203A902A86C
:10F4800000F026FB07463846E0E70000B8EC012014
:10F490002DE9F7438AB0054616461DB909200DB07F
:10F4A000BDE8F0830020286006F01F0626F0010268
:10F4B0000BA903A800F00CFB0746002F7ED1CDF866
:10F4C00024D003A80B9900F0F9FD0746089C0FB95A
:10F4D00004B9062706F01C00002851D04FB1042FB4
:10F4E00003D103A8FFF780FC074646F00806089CF6
:10F4F00009E0E07A00F0110008B1072703E006F008
:10F50000040000B10827002F39D106F008000028B8
:10F5100035D001F0B7F9804684F80E804FEA182103
:10F52000E1734FEA184121744FEA186161740020B9
:10F53000E072207700216177A177E1772146039877
:10F5400003F05CFD81460021204609F02BF90120E3
:10F5500003990871B9F1000F11D00398D0F82C80ED
:10F560004946039806F0D2FB074647B9A9F10100C6
:10F570000399C8604146039804F0BAFC07460EE0C0
:10F580006FB9E07A00F0100008B1042707E006F038
:10F59000020020B1E07A00F0010000B1072747B96E
:10F5A00006F0080008B146F020060398C06AE8613A
:10F5B0002C621FB9AE710020E87100E018E021460E
:10F5C000039803F01BFD2861E07F0106A07F41EA5C
:10F5D0000041607F41EA0020217F0843E86000206D
:10F5E000A860A8616862039828602868C088A8801D
:10F5F000384654E730B595B004460D4602950020D4
:10F600000390049004E014F8011B02A805F0FBFF2E
:10F6100020780028F7D1039800280DDB01AB05A95D
:10F62000DDE9020200F03BF930B901990398884204
:10F6300002D1049815B030BD4FF0FF30FAE72DE944
:10F64000FF4F83B0044615469A46DDF810B00020FF
:10F65000CAF8000020460AF017FE0290029818B17E
:10F66000029807B0BDE8F08FE07908B1E079F8E7DB
:10F67000A07900F0010008B90720F2E7D4E90210F0
:10F68000401A00900098854200D9009DAAE0208988
:10F69000C0F30800002876D120688078401EA16859
:10F6A00000EA512000F0FF09B9F1000F1FD1A06856
:10F6B00010B9206901900CE0606A28B12046A16869
:10F6C000FEF7B8FA019004E06169206801F066F87D
:10F6D00001900198022802D20220E071C1E701984E
:10F6E000401C10B90120E071BBE7019860616169BD
:10F6F0002068FEF7E9FA064616B90220E071B0E785
:10F700004E444FEA5528B8F1000F29D009EB080004
:10F7100021688978884203D920688078A0EB09089D
:10F7200021684878434632465946FFF70FFC10B12E
:10F730000120E07195E7A07900F0400068B1A06970
:10F74000801B404509D2A169891B0BEB41204FF476
:10F75000007204F1280104F03EF84FEA482737E030
:10F76000A069B04220D0A07900F0400080B12168AB
:10F770004878012304F12801A269FFF715FC18B1AC
:10F780000120E0716DE710E0A07920F04000A07149
:10F79000216848780123324604F12801FFF7D6FB9F
:10F7A00010B10120E0715CE7A6612089C0F3080078
:10F7B000C0F50077AF4200D92F462089C0F3080278
:10F7C00004F1280011183A46584604F004F800BF26
:10F7D000BB44A0683844A060DAF800003844CAF896
:10F7E0000000ED1B002D7FF452AF002039E72DE91A
:10F7F000F041044620460AF047FD0746002F4CD151
:10F80000A07900F02000002847D0A07900F0400047
:10F8100078B121684878012304F12801A269FFF733
:10F82000C3FB10B10120BDE8F081A07920F04000B9
:10F83000A071E169206804F05BFB0746002F2CD122
:10F84000256AE87A40F02000E872207B2877A089BA
:10F85000010A6977E068010CA977E068010EE97791
:10F860002846216908F09EFF01F00CF80646AE75A7
:10F87000310AE975310C2976310E69760020A874B9
:10F880000021E974A07920F02000A07101202168F6
:10F890000871206809F084FC07463846C3E72DE963
:10F8A000FF4F83B0044615469B4604980190002004
:10F8B000CBF8000020460AF0E7FC0290029818B14D
:10F8C000029807B0BDE8F08FE07908B1E079F8E779
:10F8D000A07900F0020008B90720F2E7A0682844E8
:10F8E000A168884200D20025BEE02089C0F308004C
:10F8F00000287DD120688078401EA16800EA512050
:10F9000000F0FF0ABAF1000F26D1A06838B92769C4
:10F9100097B900212068FEF76EFF07460CE0606A89
:10F9200028B12046A168FEF785F9074604E0616921
:10F930002068FEF760FF074607B998E0012F02D163
:10F940000220E071BDE7781C10B90120E071B8E732
:10F950006761206900B92761A07900F0400078B1A3
:10F9600021684878012304F12801A269FFF71CFBF4
:10F9700010B10120E071A4E7A07920F04000A0714F
:10F9800061692068FEF7A0F9064616B90220E07109
:10F9900097E756444FEA5529B9F1000F2CD00AEBEE
:10F9A000090021688978884203D920688078A0EB13
:10F9B0000A09216848784B4632460199FFF7F4FA64
:10F9C00010B10120E0717CE7A069801B48450ED290
:10F9D000A069801B019A02EB40214FF4007204F1F0
:10F9E000280003F0F8FEA07920F04000A07100E0AC
:10F9F00016E04FEA49282AE0A069B0420FD0D4E9C6
:10FA0000020188420BD2216848780123324604F172
:10FA10002801FFF79BFA10B10120E07151E7A661C0
:10FA20002089C0F30800C0F50078A84500D9A84691
:10FA30002189C1F3080204F12801501842460199B6
:10FA400003F0C9FEA07940F04000A07100BF01980A
:10FA500040440190A0684044A060DBF800004044AE
:10FA6000CBF80000A5EB0805002D7FF43EAF00BFEA
:10FA7000D4E90201884201D9A068E060A07940F091
:10FA80002000A07100201CE782B0CDE9000121F028
:10FA9000004001909DED000B02B051EC100B70473F
:10FAA0000748006828B19FED070A074880ED270A3C
:10FAB00004E09FED060A044880ED270A7047000025
:10FAC000100242420080BB4460BF002000000000E2
:10FAD0002DE9F74F88B0002108980160099800F0DF
:10FAE000D3FE07900798002803DA0B200BB0BDE87F
:10FAF000F08FD549079851F820400CB90C20F5E754
:10FB000008980460207878B16078FFF74AFA804658
:10FB100008F0010040B90A9820B108F0040008B1CB
:10FB20000A20E3E70020E1E70020207007986070DA
:10FB30006078FFF7C5F9804608F0010008B103209E
:10FB4000D4E70A9820B108F0040008B10A20CDE7F4
:10FB5000002739462046FEF71BF80546012D01D047
:10FB60006DBB2CE0002614E004F5F77101EB0610E4
:10FB7000017951B1C17A0A06817A42EA0142417A99
:10FB800042EA0121027A114300E000214DF82610DB
:10FB9000761C042EE8D3002606B1761E00BF5DF861
:10FBA000267027B139462046FDF7F2FF00E002201B
:10FBB00005461DB1701C06460428F0D300BF032D76
:10FBC00001D1012092E70DB10D208FE73B20015DAF
:10FBD00094F83C0041EA0020B0F5007F01D00D20F0
:10FBE00084E74620015D94F8470041EA0029B9F115
:10FBF000000F0ED194F85700010694F8560041EA20
:10FC0000004194F8550041EA002094F8541040EA6D
:10FC10000109C4F818904020005DE070E0780128E8
:10FC200004D0E078022801D00D205FE7E07809FBDE
:10FC300000F93D20005DA070A07818B1A078411EA9
:10FC4000084008B10D2051E74120015D94F84200C1
:10FC500041EA00202081207A00F00F0008B10D2039
:10FC600044E74320015D94F8440041EA002BBBF1D6
:10FC7000000F0ED194F85300010694F8520041EAA7
:10FC8000004194F8510041EA002094F8501040EAF5
:10FC9000010B3E20015D94F83F0041EA00200490F2
:10FCA000049808B90D2021E704984844218900EB05
:10FCB000111006900698834501D20D2016E706988C
:10FCC000ABEB0000A178B0FBF1FABAF1000F01D163
:10FCD0000D200BE7012540F6F670824500D3022582
:10FCE0004FF6F670824500D303250AF102006061E9
:10FCF000E76104983844206206983844A062032DD6
:10FD000016D1208908B10D20F0E694F85F000106B5
:10FD100094F85E0041EA004194F85D0041EA002059
:10FD200094F85C100843606260698000059014E0FC
:10FD3000208908B90D20D9E6206A48446062022D66
:10FD400002D16069400007E0207D00F00100616998
:10FD500001EB410100EB51000590A169059800F20B
:10FD6000FF10B1EB502F01D20D20BFE64FF0FF3056
:10FD70002061E06080206071032D5AD194F86010FA
:10FD800094F8610041EA0020012852D1791C2046F4
:10FD900004F0AEF8E8BB0020607194F82E1294F8DD
:10FDA0002F0241EA00204AF65521884241D13320F2
:10FDB000005D01063220005D41EA00413120005D16
:10FDC00041EA002094F8301008432049884230D19D
:10FDD00094F81702010694F8160241EA004194F8DB
:10FDE000150241EA002094F8141208431849884289
:10FDF0001FD194F81B02010694F81A0241EA00414F
:10FE000094F8190241EA002094F81812084320617E
:10FE100000E00EE094F81F02010694F81E0241EA89
:10FE2000004194F81D0241EA002094F81C12084396
:10FE3000E060257007480088401C80B205490880B2
:10FE4000E080002052E60000B8EC012052526141EF
:10FE500072724161AEB40020F0EE400A90ED011ADA
:10FE6000D0ED031A21EE211AD0ED001A01EEA01AEE
:10FE7000D0ED021A90ED042A01EEC21AB0EE410A4A
:10FE8000C0ED030A80ED040A70472DE9F0470746EC
:10FE9000884691464FF0010AF6F762F9F320F6F72B
:10FEA0009DF8002413E0002600BF58F8241007EB4B
:10FEB0008400F6F72DF90546761C092D01D0032E96
:10FEC000F3DB032E02D14FF0000A02E0641C4C4524
:10FED000E9D300BFF6F712F95046BDE8F0870000FD
:10FEE0002DE9F05F05460E4605B91A4DF6F738F9CB
:10FEF000F320F6F773F84FF0010A2846F6F7EAFA0E
:10FF0000834605EB8600F6F7E5FA81465C4619E084
:10FF10004FF0000800BF02212046F6F781F807469F
:10FF200008F10108092F02D0B8F1030FF3D3B8F19B
:10FF3000030F02D14FF0000A06E0582C01D12834FB
:10FF400000E008344C45E3D900BFF6F7D7F8504637
:10FF5000BDE8F09F00000E080048704700000E0842
:10FF600010B52DED048B4C4A92EDA20ABDEEC00AED
:10FF700010EE102A11B2494AB2F9000000F0CAFA94
:10FF800000EE100AB8EEC00ADFED450A20EE200AA6
:10FF9000444880ED010A90ED010A434880ED150ABE
:10FFA00090ED150ADFED410A20EE200AB0EE409AEE
:10FFB000B0EE490AFAF74CFFB0EE408AB0EE490ABB
:10FFC000FAF72EFEF0EE408A394890ED1A0A3948C9
:10FFD000D0ED000A30EE200A20EE280A3448D0ED99
:10FFE0001B0A344890ED011A70EE810A00EEC80A2F
:10FFF0002D4880ED000A2E4890ED1A0A2D48D0EDCC
:020000040801F1
:10000000000A30EE200A20EE080A2948D0ED1B0A2B
:10001000284890ED011A70EE810A00EEA80A2248E5
:1000200080ED010A0146D1ED471AB0EE611AD1ED1B
:10003000141AF0EE610AD1ED151AB0EE610AD1F88A
:10004000E00004F00FF91448D0ED9E0A20EE200ADB
:10005000154880ED160A90ED160A80ED170A16482D
:1000600090ED140A104880ED180A0146D1ED471AA8
:10007000B0EE611AD1ED171AF0EE610AD1ED181A3F
:10008000B0EE610AD1F8E40004F0ECF8064880ED27
:10009000020ABDEC048B10BD000000203CC900200A
:1000A0000000343D58B8002020B6002035FA8E3CC0
:1000B000CCBE0020CCBB002028B900202DE9F341A4
:1000C0000446019800782F2803D0019800785C2816
:1000D00002D10198401C01900020A0600198007896
:1000E000202807D200212046FEF79BFE054600206F
:1000F000606128E000BF01A92046FEF7E7FB054646
:1001000005B11FE02046FEF7B9FD0546A069C67A95
:100110003DB1042D04D100BF06F0040000B905254F
:1001200010E006F0040000B10CE06769F87A00F016
:10013000100008B9052505E03946206802F05EFF89
:10014000A060D8E700BF2846BDE8FC8100BF054A93
:10015000128802F04002002AF9D0C2B2014B1B1DE6
:100160001A8070470014014010B5002821D0114BAF
:100170000022001F196803E0814203D80A4649683B
:100180000029F9D152B11368841A9C4204D1006845
:1001900018441060104602E0506000E0186039B169
:1001A00002680B1A934203D10B681A440260496833
:1001B000416010BDC4B40020174A1278824206D0B4
:1001C0000022164B1A60164B83F871201FE003289B
:1001D00001D0012815D1022906D100220F4B1A6047
:1001E0000F4B83F8712012E00E4A1278022A0ED1CA
:1001F00003290CD10122094B1A60094B83F87120A5
:1002000005E00022054B1A60054B83F87120024A75
:100210001070044A11707047B4A6002094824042C6
:1002200060BF0020B5A6002010B502F0ADFC05F0BF
:1002300053FD10BD10B52DED028B0D490A680D4917
:10024000496843F60953594302EB8110F0F779FEF0
:100250009FED090B53EC102BF0F781FD054AC2E925
:100260000201104690ED020BBDEC028B10BD0000A8
:10027000240C004060B70020000000A0F7C6B03E8C
:1002800010B53B480079042830D13A4A92EDA30AD0
:10029000BDEEC00A10EE102A11B2374AB2F90000C2
:1002A00000F038F900EE100AB8EEC00ADFED330AAC
:1002B00020EE200A324880ED020A2E4A92EDA20A70
:1002C000BDEEC00A10EE102A11B22E4AB2F900009B
:1002D00000F020F900EE100AB8EEC00ADFED270AA0
:1002E00020EE200A264880ED010A2FE0214A92EDF7
:1002F000A30ABDEEC00A10EE102A11B2224AB2F9CA
:10030000000000F007F900EE100AB8EEC00ADFEDB9
:100310001B0A20EE200A1A4880ED020A154A92EDC7
:10032000A20ABDEEC00A10EE102A11B2174AB2F9A5
:10033000000000F0EFF800EE100AB8EEC00ADFEDA2
:100340000F0A20EE200A0E4880ED010A104890EDB9
:10035000000A0B4880ED040A0D4890ED010A084898
:1003600080ED030A02F03AFC05F0C4FC10BD000069
:100370009CC0002000000020A0B300200000343DFD
:1003800058B80020A8B3002030C900203CC9002084
:10039000F8B8002000B54C4890F8220000F010009A
:1003A00018B10420494908708CE0494890ED9C0A36
:1003B000DFED480AB4EE600AF1EE10FA3DD1434891
:1003C0000078052831D2DFE800F003172818240050
:1003D0004148C07E022802D13C4908700BE03F48EA
:1003E00090F8840038B100203C4981F88400F4F78B
:1003F000FBFB3649087019E000BF3748C07E022871
:1004000002D13249087003E0F4F7EEFB2F4908707F
:100410000CE000202D49087008E02F48C07E02281B
:1004200002D000202949087000E000BF00BF274823
:1004300000782B4981F8380044E0254890ED9C0A6B
:10044000DFED280AB4EE600AF1EE10FA3AD11F4847
:100450000078052834D2DFE800F00B2203232F00B8
:1004600021480078022802D000201849087028E0AE
:100470001D480078022802D1144908700EE0174880
:1004800090F8840050B11848007838B116480078C8
:100490000E4908700020114981F8840011E000BF66
:1004A00011480078022802D10849087003E00E487C
:1004B00000780649087004E000200449087000E054
:1004C00000BF00BF00BD0000BC020020ACA60020A1
:1004D0000000002000808043CCBE002058B80020DF
:1004E000D0B500200000814360A7002000B5074878
:1004F00090F82610064802F0F1FA044890F8271008
:100500000348401C02F0EAFA00BD0000CCBE002007
:10051000E4BB002002460020B1F5805F0BDBA1F5B3
:100520008053934202DA531A18B20FE002F50053D7
:100530005B1A18B20AE001F580539A4204DDA2F575
:1005400000535B1A18B201E0531A18B2704700004A
:1005500010B55B48817E5B480078FFF72DFE5A4856
:1005600090F8710000287DD056480078032814D1F7
:1005700056480078032809D15148807E012805D1CA
:10058000514981F8730081F8720094E04C48807EF4
:100590000128FAD006F0EEFC8DE04A4800780128E8
:1005A000F3D1474890F82900C00978B1484800784D
:1005B00020B945480079401C4349087142480079F8
:1005C000012810DD0020404908710CE03C4890F8FB
:1005D0002900C0F3401018B102203B49887102E0A5
:1005E0000020394988713B480079012828D13A48D0
:1005F0000068C079052823D03348007960B93748AE
:10060000007E02284AD10AF061FF354908600120C6
:100610002D4981F8730041E02B48007901283DD134
:10062000274890F8260020B10120274981F873005F
:1006300034E00020244981F8730081F84D002DE05A
:1006400024480079022829D123480068C079042869
:1006500024D01D48007960B92048407E02281DD171
:10066000012000E021E0184981F8730081F8720050
:1006700014E015480079012810D1114890F827009E
:1006800030B10120104981F8730081F8720005E053
:1006900000200D4981F8730081F87200084890F835
:1006A0002900C0090A49087005E00020064981F8C0
:1006B000730081F872000248807E0449087010BD02
:1006C000CCBE0020ACA6002060BF0020B6A6002053
:1006D000B7A600209CC00020E4A30020CCBB0020D3
:1006E000B0A6002010B52DED028B0446FFF7A2FD49
:1006F000284880ED3E0B90ED402BB0EE421AF0EE14
:10070000621A90ED3E2BB0EE420AF0EE620A53EC14
:10071000112B51EC100BF0F71CFB41EC180BF0F710
:1007200061FC1C49C1F80801084690ED3E0B80EDC4
:10073000400B002028E004EB8001D1ED000A9FED82
:10074000161A80EE810A1349B83101EB8001D1ED10
:10075000000A30EE600A0F49D1ED420A80EE201AFD
:10076000AC3101EB800181ED001A04EB800191EDC9
:10077000000ADFED090A80EE201A0649B83101EBC4
:10078000800181ED001A401C0328D4DBBDEC028BF4
:1007900010BD0000E8C2002000007A442DE9F041BD
:1007A00005460C46022C02D36869A04202D80120FB
:1007B000BDE8F0812878012804D002282CD0032835
:1007C0005AD13DE0274607EB5707286A00EB57212F
:1007D000284603F08DFB00B150E0C7F3080105F196
:1007E000300010F801807F1C286A00EB5721284652
:1007F00003F07EFB00B141E0C7F3080105F13000D2
:10080000405C48EA002804F0010010B14FEA1810DB
:10081000CEE7C8F30B00CBE7286A00EB142128468B
:1008200003F066FB00B129E040F2FF1000EA44014A
:1008300005F130000E183078717840EA0120B7E7F2
:10084000286A00EBD411284603F052FB00B115E0F2
:1008500040F2FF1000EA840105F130000E18F07834
:100860000006B17840EA0140717840EA0120317811
:10087000084320F070409BE7012099E700BF4FF04C
:10088000FF3095E70020704770B502464FF0FF300B
:100890001568E5B1116800E0491C0D78212D02D3DF
:1008A0000D783A2DF8D10D783A2D0FD1146814F83F
:1008B000015BA5F130030A2B07D28C4205D1032B33
:1008C00003D218464D1C2946156070BD002000BF9C
:1008D000FBE700000020424981F8840081F8850090
:1008E000084690ED040A80ED100A90ED030AD0ED61
:1008F000070A30EE600A80ED0F0A3A4890ED1E0AB2
:100900003948D0ED040A30EE200A0846D0ED0B0A33
:1009100030EE200A80ED0B0A324890ED1D0A324875
:10092000D0ED030A30EE200A0846D0ED0C0A30EE76
:10093000200A80ED0C0A2D4890ED010AF0EE000A25
:10094000B4EE600AF1EE10FA26D190ED9C0ADFEDCC
:10095000280AB4EE600AF1EE10FA1DD1254890ED98
:10096000010A084680ED150A204890ED9E0AB1EE76
:10097000400A0846D0ED150A20EE200A80ED0C0A48
:100980001A4890ED9E0AB1EE400A0846D0ED020AE0
:1009900020EE200A80ED100A114890ED0C0A134851
:1009A000D0EDA40AB4EEE00AF1EE10FA02D290ED16
:1009B000A40A10E00A4890ED0C0A0C48D0EDA50AF4
:1009C000B4EEE00AF1EE10FA02DD90EDA50A02E0C5
:1009D000034890ED0C0A024880ED0C0A70470000B5
:1009E00058B80020CCBE0020CCBB00200000002066
:1009F0000000814360A7002000B589B00020314984
:100A0000087000F0ABF90020049005900690079064
:100A10002D48A0F10C010A1D0B46CDE90032CDE9AD
:100A200002100B1F0C3A0C391C3803F0F3FB25495C
:100A3000C86700200490059006900790224820384F
:100A4000A0F10C010A1D00F11403CDE90032CDE93B
:100A500002100B1F0C3A0C391C3803F0DBFB194950
:100A6000C1F8800000200490059006900790164879
:100A70004030A0F10C010A1D0B46CDE90032CDE952
:100A800002100B1F0C3A0C391C3803F0C3FB0D4944
:100A90004867002004900590069007900A4820308F
:100AA000A0F10C02111D0B1FCDE90031CDE9022090
:100AB000131F083A10391C3803F0ACFB0149886752
:100AC00009B000BD58B800206800002010B52DED19
:100AD000028B6548007865490978884205D16448E9
:100AE00000786349497888421FD00AF0EFFC6149D9
:100AF000086000F033F9604890ED9E0AB1EE400ABC
:100B00005B48D0ED020A20EE200A5C4880ED000A26
:100B1000594890ED9E0AB1EE400A5548D0ED010AC1
:100B200020EE200A564880ED000A534890ED9E0AB8
:100B3000B1EE400A4E48D0ED020A20EE200A80EDC8
:100B4000100A04214F48F5F7BDFDF7EE000A30EE1C
:100B5000C00A4A48D0ED000A20EE200A444880ED41
:100B60000C0A454890ED9E0AB1EE400A4048D0ED8F
:100B7000010A20EE200A80ED0F0A04214248F5F711
:100B8000A1FDF7EE000A30EEC00A3D48D0ED000AA4
:100B900020EE200A364880ED0B0A90ED010AF0EEB7
:100BA000000AB4EEE00AF1EE10FA22D290ED010A4A
:100BB00010EE101A0846F0F7D1F941EC180B9FED32
:100BC000330B53EC102BF0F7F5F912D2284890EDC7
:100BD000020AF0EE000AB4EEE00AF1EE10FA08D2D2
:100BE00090ED020AF8EE000AB4EEE00AF1EE10FA17
:100BF00014DC0AF06BFC1F490968401A00EE100A69
:100C0000B8EE400A1C48D0ED9F0AB0EE081A60EE1C
:100C1000810AB4EEE00AF1EE10FA22DD0320144955
:100C200008701C480079042803D103201A4908776A
:100C300002E00420184908770D4890ED040A80ED81
:100C4000080A90ED030A80ED070A9FED140A80ED73
:100C50000B0A9FED120A80ED0C0A0120044981F86D
:100C60008400BDEC028B10BDADA60020ACA6002018
:100C700058B8002050A700200000002048A70020FE
:100C80004CA7002024A7002000A70020000000009F
:100C9000000000C09CC0002020B600200000000022
:100CA000174A1278012A21D1164AD2ED070A424288
:100CB00000EE102AB8EEC00A20EE800AF0EE000A1C
:100CC00020EE200A104A82ED030A0E4AD2ED070AEE
:100CD00000EE101AB8EEC00A20EE800AF0EE000A0C
:100CE00020EE200A084A82ED040A08E09FED070A78
:100CF000054A82ED030A9FED050A82ED040A70475A
:100D0000ACA6002000000020CCBB002000000000AA
:100D1000104AD2ED060A00EE100AB8EEC00A20EE24
:100D2000800AF0EE000A20EE200A0B4A82ED1D0A2E
:100D3000084AD2ED060A00EE101AB8EEC00A20EEFC
:100D4000800AF0EE000A20EE200A034A82ED1E0A15
:100D50007047000000000020CCBE002010B51348F2
:100D600090ED9F0AF0EE000A80EE201ABDEEC10A57
:100D700010EE104A21460E48F5F7DEFD0B4890EDC7
:100D80009F0AF0EE000A80EE201ABDEEC10A10EEB6
:100D9000104A21460748F5F7CFFD64210648F5F7CC
:100DA000CBFD64210548F5F7C7FD10BD000000200C
:100DB00024A7002000A70020DCA60020B8A6002061
:100DC00010B500200D4981F8840081F885009FED61
:100DD0000C0A0C4880ED0F0AD1F8800003F048FBA4
:100DE0000649C86F03F044FB0449886F03F040FBD9
:100DF0000249486F03F03CFB10BD000058B80020CA
:100E000000000000D0B5002010B59FED7E0A7E489E
:100E100080ED0F0A7D4800787D490978884205D128
:100E20007C4800787B49497888421FD00AF04EFB05
:100E300079490860FFF792FF784890ED9E0AB1EE7D
:100E4000400A7448D0ED020A20EE200A744880ED72
:100E5000000A724890ED9E0AB1EE400A6D48D0ED4E
:100E6000010A20EE200A6F4880ED000A6B4890EDE1
:100E70009E0AB1EE400A6748D0ED020A20EE200A31
:100E800080ED100A654890ED9E0AB1EE400A614877
:100E9000D0ED010A20EE200A80ED0F0A90F88500BF
:100EA00030B301216048F5F70DFC5A48D0ED060A31
:100EB0005B4890ED001A30EEC11AD0ED000A41EE09
:100EC000000A5448C0ED0C0A01215848F5F7FAFB16
:100ED0005048D0ED050A534890ED001A30EEC11A83
:100EE000D0ED000A41EE000A4A48C0ED0B0A28E0A6
:100EF0009FED440A474880ED060A9FED420A80EDC7
:100F0000050A02214848F5F7DDFBF7EE000A30EE4E
:100F1000C00A4348D0ED000A20EE200A3D4880ED8B
:100F20000C0A02214148F5F7CDFBF7EE000A30EE3E
:100F3000C00A3C48D0ED000A20EE200A354880ED7A
:100F40000B0A344890ED010AD0ED050AB0EE001A04
:100F500070EE810AB4EEE00AF1EE10FA26D290EDBE
:100F6000010AD0ED050AB0EE001A70EEC10AB4EE27
:100F7000E00AF1EE10FA19DD90ED020AD0ED060A52
:100F8000B0EE001A70EE810AB4EEE00AF1EE10FA4B
:100F90000CD290ED020AD0ED060AB0EE001A70EE07
:100FA000C10AB4EEE00AF1EE10FA14DC0AF08EFA8F
:100FB00019490968401A00EE100AB8EE400A1748AD
:100FC000D0ED9F0AB0EE001A60EE810AB4EEE00A9E
:100FD000F1EE10FA14DD0F4890ED040A80ED080AD6
:100FE00090ED030A80ED070A90F8850040B99FED67
:100FF000050A084880ED0B0A9FED020A80ED0C0AF5
:1010000010BD000000000000D0B50020ADA60020FB
:10101000ACA6002058B800205CA7002000000020EB
:1010200054A7002058A7002024A7002000A70020D4
:1010300090B101210C4A82F88510B3EE040A1146E2
:1010400081ED060A9FED090A81ED050A0121117063
:101050000321074A117705E00021034A82F8851031
:10106000022111707047000058B8002000000000F5
:1010700020B6002020B10121044A82F8581003E074
:101080000021024A82F858107047000058B800202A
:1010900010B52DED028BFFF7F3F86E4800780528A8
:1010A00023D2DFE800F003071F061C00FFF70EFD48
:1010B0001CE000BF68480078022802D1FFF706FD57
:1010C0000CE065480078032802D1FFF703FC05E037
:1010D00061480078012801D1FFF796FE06E0FFF78E
:1010E00093FE03E0FFF76CFE00E000BF00BFFFF7D8
:1010F000A1F8594880ED240B90ED262BB0EE420A62
:10110000F0EE620A90ED242BB0EE421AF0EE621A75
:1011100053EC102B51EC110BEFF71BFE41EC180BAD
:10112000EFF760FF4C49C1F88800084690ED240BAA
:1011300080ED260B90F8580098B1484890F82C00A4
:1011400078B1464890ED370A084680ED0C0A4348CE
:1011500090ED380A084680ED0B0A90ED040A80ED08
:10116000100A3D49D1ED221AB0EE611AD1ED101AE4
:10117000F0EE610AD1ED0C1AB0EE610AD1F88000F0
:1011800003F070F8344880ED140A0146D1ED221ABC
:10119000B0EE611AD1ED0F1AF0EE610AD1ED0B1A23
:1011A000B0EE610A886F03F05DF82B4880ED130AFA
:1011B00090ED140AB1EE400A80ED0A0A90ED130A90
:1011C000B1EE400A80ED090A254890ED040A224854
:1011D00080ED0E0A224890ED050A1F4880ED0D0AA9
:1011E0000146D1ED221AB0EE611AD1ED0E1AF0EEE1
:1011F000610AD1ED0A1AB0EE610AC86F03F032F845
:10120000B1EE400A144880ED120A0146D1ED221ACF
:10121000B0EE611AD1ED0D1AF0EE610AD1ED091AA6
:10122000B0EE610A486F03F01DF8B1EE400A0A48BB
:1012300080ED110A07480078022808D19FED090ABD
:10124000054880ED110A9FED070A80ED120ABDECFA
:10125000028B10BDACA6002058B80020E8C20020C8
:10126000F8B8002000000000027BC37A42EA0322A3
:1012700012B20A80837B427B43EA022212B24A8086
:10128000037CC27B43EA022212B28A80427C8A71CA
:101290007047027BC37A42EA032212B20A80837B40
:1012A000427B43EA022212B24A80C27B120212B28D
:1012B000037C1A438A8070478B4890ED040AF6EE4F
:1012C000000AB4EEE00AF1EE10FA06D201218748D6
:1012D00080F83F1080F83B1004E1834890ED040A49
:1012E000F6EE000AB4EEE00AF1EE10FA10DD90ED31
:1012F000040AF0EE000AB4EEE00AF1EE10FA07D2AA
:1013000001217A4880F83C10002180F83D10E9E086
:10131000754890ED040AF0EE000AB4EEE00AF1EE32
:1013200010FA0DDD90ED040AF0EE040AB4EEE00AC6
:10133000F1EE10FA04D200216C4880F83B10D1E0A5
:10134000694890ED040AF0EE040AB4EEE00AF1EE0A
:1013500010FA0DDD90ED040AF0EE080AB4EEE00A92
:10136000F1EE10FA04D20020604981F83A00B9E0A9
:101370005D4890ED040AF0EE080AB4EEE00AF1EEE2
:1013800010FA0DDD90ED040AF1EE040AB4EEE00A65
:10139000F1EE10FA04D20121544880F83E10A1E089
:1013A000514890ED040AF1EE040AB4EEE00AF1EEC1
:1013B00010FA0DDD90ED040AF1EE060AB4EEE00A33
:1013C000F1EE10FA04D20120484981F83A0089E090
:1013D000454890ED040AF1EE060AB4EEE00AF1EE9B
:1013E00010FA0DDD90ED040AF1EE0E0AB4EEE00AFB
:1013F000F1EE10FA04D200213C4880F83E1071E072
:10140000394890ED040AF1EE0E0AB4EEE00AF1EE6E
:1014100010FA11DD90ED040AF2EE000AB4EEE00AD3
:10142000F1EE10FA08D20020304981F83A0001218B
:101430002E4880F8411055E02B4890ED040AF2EE5A
:10144000000AB4EEE00AF1EE10FA0DDD90ED040AA8
:10145000F2EE010AB4EEE00AF1EE10FA04D2002135
:10146000224880F841103DE01F4890ED040AF2EE5A
:10147000010AB4EEE00AF1EE10FA0DDD90ED040A77
:10148000F2EE020AB4EEE00AF1EE10FA04D2012103
:10149000164880F83B1025E0134890ED040AF2EE60
:1014A000020AB4EEE00AF1EE10FA0DDD90ED040A46
:1014B000F2EE030AB4EEE00AF1EE10FA04D20021D3
:1014C0000A4880F83F100DE0074890ED040AF2EE5C
:1014D000060AB4EEE00AF1EE10FA03DD9FED040A0D
:1014E00080ED040A70470000D0B4002078B70020D7
:1014F000000000009FED7D0A7D4880ED190A9FEDF8
:101500007B0A80ED1A0A7B4890ED040AF0EE000A8F
:10151000B4EEE00AF1EE10FA14DD90ED040AF0EEFC
:10152000040AB4EEE00AF1EE10FA0BD20121704881
:1015300080F83F10002180F83B1080F83C1080F8C4
:101540003D10D1E06B4890ED040AF0EE040AB4EED1
:10155000E00AF1EE10FA0DDD90ED040AF0EE080A53
:10156000B4EEE00AF1EE10FA04D20020604981F8EE
:101570003A00B9E05F4890ED040AF0EE080AB4EED4
:10158000E00AF1EE10FA0DDD90ED040AF1EE040A26
:10159000B4EEE00AF1EE10FA04D20121544880F8CA
:1015A0003E10A1E0534890ED040AF1EE040AB4EEB7
:1015B000E00AF1EE10FA0DDD90ED040AF1EE060AF4
:1015C000B4EEE00AF1EE10FA04D20120484981F8A5
:1015D0003A0089E0474890ED040AF1EE060AB4EEBD
:1015E000E00AF1EE10FA0DDD90ED040AF1EE0E0ABC
:1015F000B4EEE00AF1EE10FA04D200213C4880F883
:101600003E1071E03B4890ED040AF1EE0E0AB4EE94
:10161000E00AF1EE10FA11DD90ED040AF2EE000A94
:10162000B4EEE00AF1EE10FA08D20020304981F859
:101630003A0001212E4880F8411055E02D4890EDE8
:10164000040AF2EE000AB4EEE00AF1EE10FA0DDD43
:1016500090ED040AF2EE010AB4EEE00AF1EE10FA9F
:1016600004D20021224880F841103DE0214890ED4D
:10167000040AF2EE010AB4EEE00AF1EE10FA0DDD12
:1016800090ED040AF2EE020AB4EEE00AF1EE10FA6E
:1016900004D20121164880F83B1025E0154890ED52
:1016A000040AF2EE020AB4EEE00AF1EE10FA0DDDE1
:1016B00090ED040AF2EE030AB4EEE00AF1EE10FA3D
:1016C00004D200210A4880F83F100DE0094890ED4F
:1016D000040AF2EE030AB4EEE00AF1EE10FA03DDBA
:1016E0009FED050A80ED040A704700000000E54305
:1016F00078B70020D0B400200000000001215F482E
:1017000080F83D105E4890ED040AF0EE000AB4EE59
:10171000E00AF1EE10FA0CDD90ED040AF0EE0C0A8E
:10172000B4EEE00AF1EE10FA03D2544880F83E100D
:10173000A3E0534890ED040AF0EE0C0AB4EEE00A80
:10174000F1EE10FA0DDD90ED040AF1EE000AB4EEB0
:10175000E00AF1EE10FA04D20120484981F83A007B
:101760008BE0474890ED040AF1EE000AB4EEE00A7F
:10177000F1EE10FA0DDD90ED040AF1EE040AB4EE7C
:10178000E00AF1EE10FA04D201213C4880F83B1047
:1017900073E03B4890ED040AF1EE040AB4EEE00A6F
:1017A000F1EE10FA0DDD90ED040AF1EE080AB4EE48
:1017B000E00AF1EE10FA04D20120304981F83A0033
:1017C0005BE02F4890ED040AF1EE080AB4EEE00A5F
:1017D000F1EE10FA0DDD90ED040AF1EE0E0AB4EE12
:1017E000E00AF1EE10FA04D20021244880F83E10FD
:1017F00043E0234890ED040AF1EE0E0AB4EEE00A4D
:10180000F1EE10FA0DDD90ED040AF2EE000AB4EEEE
:10181000E00AF1EE10FA04D20121184880F84110D4
:101820002BE0174890ED040AF2EE000AB4EEE00A4D
:10183000F1EE10FA13DD90ED040AF2EE020AB4EEB6
:10184000E00AF1EE10FA0AD200200C4981F83A00C1
:1018500000210A4880F83D1080F841100DE008484A
:1018600090ED040AF2EE020AB4EEE00AF1EE10FA8C
:1018700003DD9FED040A80ED040A704778B700206D
:10188000D0B40020000000000648407C072804DD9A
:101890000020054981F8350003E00120024981F864
:1018A00035007047E0BA0020E8C2002008B509F012
:1018B0000DFE00904EE00A21684608F0E9FA26483D
:1018C000B0F91600B0F5F57F1CDD2348807E234972
:1018D000C8710846007AC97988420ED01F488088AE
:1018E000401C1E49888008468088042801DD0020AD
:1018F00088801A49888800F039F81748807E17498F
:10190000087222E01448B0F9160010F5F57F18DAD5
:101910001248808800F2011000EE100AB8EEC00AEA
:101920000F4880ED9C0A02200C498871FDF77AF877
:1019300001200C4981F829000849086808F012FBC9
:1019400003E00548807E084908720448C068401CCE
:101950000249C860AFE70000CCBE0020BCBB00203D
:1019600000000020BC0200209CC0002005281DD2E1
:10197000DFE800F003080D12170007210C4A82F877
:10198000261013E008210A4A82F826100EE00921E9
:10199000074A82F8261009E00A21054A82F8261033
:1019A00004E00B21024A82F8261000BF00BF7047F6
:1019B000BC02002008B509F089FD009052E00A2120
:1019C000684608F065FA2848B0F91600B0F5F57FCA
:1019D0001FDD26480078E0B92348807E2449C8717D
:1019E0000846007AC97988420ED021480079401C07
:1019F0001F49087108460079052801DD012008719A
:101A00001B49087900F03AF81748807E1849087297
:101A100023E01548B0F9160010F5F57F19DA1448DF
:101A20000079D0B11248007900EE100AB8EE400AF1
:101A3000104880ED010A02200D498871FCF7F2FF81
:101A400001200D4981F829000949086808F08AFA3F
:101A500003E00548807E0649087205488069401CFD
:101A600003498861ABE70000CCBE00208CA70020B2
:101A70009CC0002000000020BC02002006281DD2CF
:101A8000DFE800F01C03080D121707210C4A82F84A
:101A9000261013E008210A4A82F826100EE00921D8
:101AA000074A82F8261009E00A21054A82F8261022
:101AB00004E00B21024A82F8261000BF00BF7047E5
:101AC000BC02002008B5F4F75BFF0D48B0F9380000
:101AD00000230B4A2032194600900A4804F058FBB4
:101AE0000848D0ED210AB0EE600A00F029F8054858
:101AF000D0F8B000401C0349C1F8B00008BD000098
:101B000094C8002028B9002010B530210948EEF70C
:101B10001EFE04F019FB00F08FFCF3F7FDFE9FEDB5
:101B2000060A064880ED210A0120044981F8AC002C
:101B300010BD0000F8B800200000704228B9002055
:101B400010B52DED028BF0EE408A174991ED110A88
:101B5000F0EE400A15499FED161AB0EE680A886C3F
:101B600002F080FBB0EE408AB5EEC08AF1EE10FACA
:101B700002D29FED100A0BE09FED0F0AB4EEC08A6F
:101B8000F1EE10FA02DD9FED0C0A01E0B0EE480A1A
:101B9000B0EE408ABCEEC80A10EE100A0749086091
:101BA000BDEC028B10BD000028B9002094C80020B5
:101BB0006F12033B0000000000C0DA45340800400B
:101BC00010B500F097F81248C07900B31048007EB5
:101BD00010B900F0C1FA1AE00D48007E012813D1B7
:101BE0000B48C079032807D0042802D0052806D165
:101BF00000BF00F00FF806E000F0F2F903E004483F
